:100000000C9462000C948A000C948A000C948A0070
:100010000C948A000C948A000C948A000C948A0038
:100020000C948A000C948A000C948A000C948A0028
:100030000C948A000C948A000C948A000C948A0018
:100040000C945F050C948A000C942D050C94070504
:100050000C948A000C948A000C948A000C948A00F8
:100060000C948A000C948A000000000023002600F3
:10007000290000000000240027002A0000000000E2
:10008000250028002B0004040404040404040202D4
:100090000202020203030303030301020408102007
:1000A0004080010204081020010204081020000012
:1000B0000008000201000003040700000000000027
:1000C0000000B60511241FBECFEFD8E0DEBFCDBFC4
:1000D00011E0A0E0B1E0E4E4FDE102C005900D9282
:1000E000AA34B107D9F722E0AAE4B1E001C01D9219
:1000F000AD3BB207E1F710E0C2E6D0E004C02197C3
:10010000FE010E949A0EC136D107C9F70E94FC0673
:100110000C94A00E0C940000CB01BA012DEC3CEC29
:100120004CEC5EE30E94F70D20E030E040E85FE336
:100130000E94270C9B01AC0160E070E080E192E43A
:100140000E94980C20E030E04BE553E40E94270C1D
:100150000E940A0DCB010895CB01BA0123EC35EFC3
:1001600048EA5EE30E94F70D20E030E040E85FE3FC
:100170000E94270C9B01AC0160E070E080E592E4F6
:100180000E94980C20E030E04BE453E40E94270CDE
:100190000E940A0DCB010895CB01BA012DEC3CEC75
:1001A0004CEC5EE30E94F70D20E030E040E85FE3B6
:1001B0000E94270C9B01AC0160E070E08CE892E4A7
:1001C0000E94980C20E030E049E353E40E94270CA1
:1001D0000E940A0DCB010895CB01BA012DEC3CEC35
:1001E0004CE45FE30E94F70D20E030E040E85FE37D
:1001F0000E94270C9B01AC0160E070E085E293E473
:100200000E94980C20E030E044EB52E40E94270C5E
:100210000E940A0DCB010895AF92BF92CF92DF9258
:10022000EF92FF920F931F93CF93DF936C017B01AB
:100230008B01040F151FEB015E01AE18BF08C0173C
:10024000D10759F06991D601ED91FC910190F081AF
:10025000E02DC6010995892B79F7C501DF91CF9172
:100260001F910F91FF90EF90DF90CF90BF90AF90D4
:100270000895FC01538D448D252F30E0842F90E0AC
:10028000821B930B541710F0CF9608950197089591
:10029000FC01918D828D981761F0A28DAE0FBF2F5A
:1002A000B11D5D968C91928D9F5F9F73928F90E0B0
:1002B00008958FEF9FEF0895FC01918D828D98171F
:1002C00031F0828DE80FF11D858D90E008958FEF5C
:1002D0009FEF0895FC01918D228D892F90E0805C25
:1002E0009F4F821B91098F739927089583E591E0B1
:1002F0000E946A0121E0892B09F420E0822F0895F1
:1003000080E090E0892B29F00E94760181110C9405
:1003100000000895FC01A48DA80FB92FB11DA35AA8
:10032000BF4F2C91848D90E001968F739927848F15
:10033000A689B7892C93A089B1898C918370806438
:100340008C93938D848D981306C00288F389E02DD9
:1003500080818F7D80830895EF92FF920F931F938A
:10036000CF93DF93EC0181E0888F9B8D8C8D981368
:100370001AC0E889F989808185FF15C09FB7F89474
:10038000EE89FF896083E889F989808183708064C0
:1003900080839FBF81E090E0DF91CF911F910F910B
:1003A000FF90EF900895F62E0B8D10E00F5F1F4F1A
:1003B0000F731127E02E8C8D8E110CC00FB607FC29
:1003C000FACFE889F989808185FFF5CFCE010E94B7
:1003D0008A01F1CFEB8DEC0FFD2FF11DE35AFF4F9A
:1003E000F0829FB7F8940B8FEA89FB898081806245
:1003F000CFCFCF93DF93EC01888D8823B9F0AA8902
:10040000BB89E889F9898C9185FD03C0808186FDCF
:100410000DC00FB607FCF7CF8C9185FFF2CF80811E
:1004200085FFEDCFCE010E948A01E9CFDF91CF9108
:100430000895833081F028F4813099F08230A9F05A
:1004400008958730A9F08830C9F08430B1F48091E4
:1004500080008F7D03C0809180008F778093800023
:10046000089584B58F7784BD089584B58F7DFBCFC3
:100470008091B0008F778093B00008958091B00094
:100480008F7DF9CF1F93CF93DF93282F30E0F901B1
:10049000E255FF4F8491F901E656FF4FD491F901DF
:1004A000EA57FF4FC491CC23A9F0162F81110E9467
:1004B0001902EC2FF0E0EE0FFF1FE458FF4FA5915B
:1004C000B4918FB7F894EC91111108C0D095DE2348
:1004D000DC938FBFDF91CF911F910895DE2BF8CF72
:1004E000CF93DF9390E0FC01E656FF4F24918A57AB
:1004F0009F4FFC0184918823D1F090E0880F991FD1
:10050000FC01EE58FF4FA591B491FC01E458FF4F58
:10051000C591D49161110EC09FB7F8948C91E22FD0
:10052000E0958E238C932881E223E8839FBFDF919F
:10053000CF9108958FB7F894EC91E22BEC938FBF95
:10054000F6CF1F93CF93DF93182FEB0161E00E944A
:100550007002209739F460E0812FDF91CF911F91D5
:100560000C944202CF3FD10511F461E0F5CFE12FA9
:10057000F0E0E255FF4FE491E33031F140F4E13037
:10058000B1F0E230E1F0C038D1057CF7E4CFE730DC
:1005900029F1E83059F1E430B1F7809180008062B0
:1005A00080938000D0938B00C0938A0004C084B5F0
:1005B000806884BDC7BDDF91CF911F91089584B538
:1005C000806284BDC8BDF7CF809180008068809331
:1005D0008000D0938900C0938800EDCF8091B00057
:1005E00080688093B000C093B300E5CF8091B000E5
:1005F00080628093B000C093B400DDCF8E3008F0ED
:100600008E508770806480937C0080917A00806433
:1006100080937A0080917A0086FDFCCF80917800EB
:100620009091790008953FB7F89480914F0190918F
:100630005001A0915101B091520126B5A89B05C06F
:100640002F3F19F00196A11DB11D3FBFBA2FA92F51
:10065000982F8827BC01CD01620F711D811D911D4E
:1006600042E0660F771F881F991F4A95D1F70895BA
:100670008F929F92AF92BF92CF92DF92EF92FF92B2
:100680004B015C010E9413036B017C010E94130368
:100690006C197D098E099F09683E7340810591059B
:1006A000A8F321E0821A9108A108B10888EEC80ECB
:1006B00083E0D81EE11CF11C81149104A104B10453
:1006C00029F7FF90EF90DF90CF90BF90AF909F9071
:1006D0008F9008952FB7F89460914B0170914C0161
:1006E00080914D0190914E012FBF0895FC018381AF
:1006F00094818230910538F0880F991F880F991FD7
:1007000005970197F1F70895EF92FF920F931F93CA
:10071000CF93DF93EC01062F18E061E088810E94FF
:100720007002CE010E947603E02EF12C60E000FF03
:1007300061E089810E947002CE010E94760360E030
:1007400088810E947002CE010E947603F594E7949E
:100750000E2D115011F761E088810E94700260E057
:1007600089810E947002CE010E94760360E0888138
:100770000E947002CE010E947603298130E0F901C7
:10078000E255FF4F8491F901E656FF4F0491F901BC
:10079000EA57FF4F1491112349F181110E94190268
:1007A000E12FF0E0EE0FFF1FE859FF4FA591B49144
:1007B000EC910E2311E009F410E0111104C061E086
:1007C00089810E947002CE010E94760361E08881D7
:1007D0000E947002CE010E947603812F8170DF910A
:1007E000CF911F910F91FF90EF90089510E0E7CF08
:1007F000CF93DF93EC0161E089810E947002CE010A
:100800000E94760360E088810E947002CE010E94FF
:10081000760360E089810E947002CE01DF91CF9162
:100820000C947603CF93DF93EC0161E089810E9401
:100830007002CE01DF91CF910C947603CF92DF92BC
:10084000EF92FF920F931F93CF93DF93EC01F62E5D
:10085000C72EE42E122F0E94120460E4CE010E94E3
:100860008403CE010E94F803CE010E94120460ECC2
:10087000610FCE010E948403DF2C0F2D1C2DF80187
:1008800061918F01CE010E948403802F8D198E15F6
:10089000B0F3CE010E94F803CE010E9412046A81D7
:1008A0006F706058CE010E948403CE01DF91CF911A
:1008B0001F910F91FF90EF90DF90CF900C94F80371
:1008C0004F925F926F927F928F929F92AF92BF9260
:1008D000CF92DF92EF920F931F93CF93DF9300D0CD
:1008E00000D0CDB7DEB74C016A01402F30E067FF82
:1008F00002C0619531E0E42FF0E0CF010197DE0105
:1009000011965D01C114D10451F550E0252F30E05E
:100910002817390734F42A0D3B1DF90110825F5F57
:10092000F5CF8A0D9B1D2FE3DC012C932E2DB501F5
:10093000C4010E941E040F900F900F900F90DF9142
:10094000CF911F910F91EF90DF90CF90BF90AF901C
:100950009F908F907F906F905F904F900895EA0FD7
:10096000FB1F662E660F770810E4C601B3010E94D4
:10097000640E582FDF0111972D0181110CC0C11495
:10098000D10449F41C92332381F0D2011C9330E04E
:100990000CC0F201EACF8C5D9E4FDC018C91D2013C
:1009A0008C93511102C0CD2871F36B01D2014A140E
:1009B0005B0479F7222309F4B9CF6F0183E0C80EF5
:1009C000D11C9D91BD0161507109822F8078892BC6
:1009D000FB018083220FCA16DB0699F7A7CFCF93BE
:1009E000DF9300D000D0CDB7DEB719821A821B8208
:1009F0001C8220E044E0BE016F5F7F4F0E941E0416
:100A00000F900F900F900F90DF91CF9108951F924C
:100A10000F920FB60F9211242F933F934F935F9332
:100A20006F937F938F939F93AF93BF93EF93FF93B6
:100A300083E591E00E948A01FF91EF91BF91AF9110
:100A40009F918F917F916F915F914F913F912F91E6
:100A50000F900FBE0F901F9018951F920F920FB618
:100A60000F9211242F938F939F93EF93FF93E09115
:100A70006301F09164018081E0916901F0916A0164
:100A800082FD1BC0908180916C018F5F8F732091DC
:100A90006D01821741F0E0916C01F0E0ED5AFE4FDC
:100AA000958F80936C01FF91EF919F918F912F9182
:100AB0000F900FBE0F901F9018958081F4CF1F925A
:100AC0000F920FB60F9211242F933F938F939F9302
:100AD000AF93BF9380914B0190914C01A0914D0138
:100AE000B0914E0130914A0123E0230F2D3758F584
:100AF0000196A11DB11D20934A0180934B01909353
:100B00004C01A0934D01B0934E0180914F01909103
:100B10005001A0915101B09152010196A11DB11D4A
:100B200080934F0190935001A0935101B0935201D3
:100B3000BF91AF919F918F913F912F910F900FBED9
:100B40000F901F90189526E8230F0296A11DB11D46
:100B5000D2CF82E692E00E94EF0420E044E065EB11
:100B600072E082E692E00E941E04FFCF4F925F92F5
:100B70006F927F928F929F92AF92BF92CF92DF92AD
:100B8000EF92FF92CF93DF93E3E5F1E013821282BD
:100B900088EE93E0A0E0B0E084839583A683B783DA
:100BA00088E391E09183808385EC90E0958784874A
:100BB00084EC90E09787868780EC90E0918B808B27
:100BC00081EC90E0938B828B82EC90E0958B848B10
:100BD00086EC90E0978B868B118E128E138E148E7E
:100BE000E0EFF1E010821182148213823BE0358342
:100BF0002CE0268384E690E0908787831186128616
:100C000015861486CCE8D0E0D787C687118A108A6B
:100C1000ACEAB0E0B38BA28B158A148A6CEC70E05E
:100C2000778B668B118E108E4CEE50E0538F428F77
:100C3000158E148E17AA16AA11AE10AE13AE12AEF0
:100C400010924502109244021092470210924602FE
:100C500040901001509011016090120170901301AA
:100C6000409248025092490260924A0270924B02AE
:100C70008090140190901501A0901601B09017017A
:100C800080924C0290924D02A0924E02B0924F027E
:100C9000C0901801D0901901E0901A01F0901B014A
:100CA000C0925002D0925102E0925202F09253024E
:100CB000E9E5F2E0108211821482138235832683E3
:100CC000908787831186128615861486D787C687F4
:100CD000118A108AB38BA28B158A148A778B668B44
:100CE000118E108E538F428F158E148E17AA16AA4E
:100CF00011AE10AE13AE12AE1092AE021092AD0253
:100D00001092B0021092AF024092B1025092B20221
:100D10006092B3027092B4028092B5029092B602D1
:100D2000A092B702B092B802C092B902D092BA02B1
:100D3000E092BB02F092BC02A0E0B1E04D915C9168
:100D4000119755AF44AF14964D915C911597509300
:100D50009A024093990218964D915C91199750937D
:100D60009E0240939D021C964D915C911D9750935D
:100D7000A2024093A10212964D915C91139757AF36
:100D800046AF16964D915C91179750939C024093F5
:100D90009B021A964D915C911B975093A002409331
:100DA0009F021E964D915C915093A4024093A30222
:100DB000C4E5D2E0388329839C838B8360E08BE099
:100DC0000E94700260E089810E94700260E0888168
:100DD0000E94420260E08981DF91CF91FF90EF9005
:100DE000DF90CF90BF90AF909F908F907F906F904B
:100DF0005F904F900C944202CF93DF93CDB7DEB754
:100E0000C959D1090FB6F894DEBF0FBECDBF789493
:100E100084B5826084BD84B5816084BD85B58260FF
:100E200085BD85B5816085BD80916E0081608093B0
:100E30006E00109281008091810082608093810019
:100E40008091810081608093810080918000816029
:100E5000809380008091B10084608093B100809184
:100E6000B00081608093B00080917A0084608093AC
:100E70007A0080917A00826080937A0080917A0073
:100E8000816080937A0080917A00806880937A00F4
:100E90001092C10061E089E00E94700261E088E088
:100EA0000E94700261E087E00E94700261E086E0CB
:100EB0000E94700261E085E00E94700261E084E0BF
:100EC0000E94700261E083E00E94700261E082E0B3
:100ED0000E94700261E08AE00E94700261E089E095
:100EE0000E94420261E088E00E94420261E087E0E5
:100EF0000E94420261E086E00E94420261E085E0D9
:100F00000E94420261E084E00E94420261E083E0CC
:100F10000E94420261E082E00E94420261E08AE0B7
:100F20000E9442026FEF70E08AE00E94A1028CE012
:100F30008093560244E6C42ED12CE12C04E020E03C
:100F4000A6016AE084E592E00E94600421E0C21AF2
:100F5000D10898F784E592E00E94EF04E0916301E4
:100F6000F091640182E08083E0915F01F091600183
:100F70001082E0916101F091620180E18083109222
:100F80006B01E0916701F091680186E08083E09158
:100F90006501F0916601808180618083E091650147
:100FA000F0916601808188608083E0916501F09115
:100FB0006601808180688083E0916501F09166011F
:100FC00080818F7D8083AE01495C5F4FCA57DF4FC0
:100FD00059834883C658D0408EE090E090939002A9
:100FE00080938F028AE090E0909392028093910226
:100FF00085E190E0909394028093930209E512E0DA
:1010000037E8E32E32E0F32E712C612C60E0D8013A
:10101000DC968C910E94420260E0F80186AD0E944D
:10102000420266E970E080E090E00E94380324E02C
:10103000C22ED12C812C912C54018EE00E94FE02F4
:10104000BC01990F880B990B0E94420D9B01AC01CA
:10105000C501B4010E94270C4B015C01F1E0CF1ADD
:10106000D10859F761E0D801DC968C910E944202C8
:1010700061E0F80186AD0E944202C501B4010E9400
:101080000A0DD7016D937D937D0120E030E449E4A2
:1010900054E4C501B4010E94930C87FF12C020E004
:1010A00030E849E054E4C501B4010E94F20D18167D
:1010B00044F4CC24C394D12CF701D58EC48E66247D
:1010C000639420E030E449E454E4C501B4010E9493
:1010D000F20D87FF0AC020E030E849E054E4C50182
:1010E000B4010E94930C18162CF0D7015D961C9247
:1010F0001E925C9720E030E449E454E4C501B40159
:101100000E94F20D181614F47724739466E970E0C7
:1011100080E090E00E9438030C5F1F4FB2E0093678
:101120001B0709F073CF61101AC084E592E07720A5
:1011300059F00E94EF0420E044E06CE171E084E5A6
:1011400092E00E941E04FFCF0E94EF0420E044E0E2
:1011500060E271E084E592E00E941E04FFCF84E625
:10116000E9E5F2E0DE01119601900D928A95E1F732
:10117000A0919102B0919202E0919302F0919402B9
:1011800020919502309196024091970250919802D9
:101190008090990290909A0280919B0290919C027B
:1011A00060919D0270919E02A0909F02B090A0025B
:1011B000E090A102F090A2020091A3021091A4027B
:1011C000C0908F02D0909002D0922702C092260247
:1011D000B0932902A0932802F0932B02E0932A02F5
:1011E000FE01BF96AEE1B2E0C190D190CD92DD920A
:1011F000C48CD58C5D96DC92CE925C97CA57DF4F3B
:10120000C880D980C658D040CE16DF0669F7309323
:101210002D0220932C029092310280923002709322
:10122000350260933402F0923902E0923802509312
:101230002F0240932E029093330280933202B09299
:101240003702A092360210933B0200933A021091AB
:101250005F0200915E0260E0802F0E94700260E0F9
:10126000812F0E94700260E0802F0E94420260E0A5
:10127000812F0E944202009362021093630284E66F
:1012800090E090936602809365028DE08093640203
:101290008CE3882E82E0982EF40190E080E021918A
:1012A000319122242A94322C2130310509F41C0179
:1012B00001968430910531F43FEF2316330631F463
:1012C0000E94A9052FEF2216320649F3F101EE0F15
:1012D000FF1FE45CFD4F80819181CC24CA94DC2CFB
:1012E000019709F46101C1010196F101EE0FFF1FA1
:1012F000E25CFD4F8430910559F021913191211527
:10130000310531F02130310509F46C010196F2CF3D
:101310004FEFC416D406A1F28091FE019091FF0117
:10132000A0910002B091010280930E0290930F02EF
:10133000A0931002B09311028091020290910302D7
:10134000A0910402B09105028093120290931302BF
:10135000A0931402B09315028091060290910702A7
:10136000A0910802B091090280931602909317028F
:10137000A0931802B093190280910A0290910B0277
:10138000A0910C02B0910D0280931A0290931B025F
:10139000A0931C02B0931D02B12CA12CD4018D91FD
:1013A0009D914D01BFEFAB1ABB0A009709F44BC0EA
:1013B000019749F4E12C04E020E0A5016AE082E60F
:1013C00092E00E9460046AE872E080E090E00E948F
:1013D0003803F401B09760817181072E000C880BEF
:1013E000990B0E94420D20EC3EE34AEF5EE30E941F
:1013F000F70D2B013C0120E030E0A9010E94F20D25
:1014000020E030E040E05FE387FDE4C0C301B201CB
:101410000E94270C0E940A0DAB0177FF04C04427ED
:101420005527461B570B77FFDAC066EFE12C04E027
:1014300020E482E692E00E94600468EE73E080E0BF
:1014400090E00E943803E4E0AE16B10409F0A6CFA4
:1014500082E692E00E94EF0443E0E42E01E020E007
:1014600050E040E06AE082E692E00E9460046FEFA4
:1014700070E0809128020E94A1029101215F3F4FFC
:10148000C057DF4F39832883C059D040F901EE0F90
:10149000FF1FEE0FFF1FE051FE4F60E080810E94B2
:1014A0004202A601440F551F440F551FC857DF4F76
:1014B00059834883C858D040FA01E051FE4F60E09C
:1014C00086AD0E9442020E946A03CE56DF4F6883B7
:1014D00079838A839B83C259D0400E946A03C6578E
:1014E000DF4F688379838A839B83CA58D0408FEF0C
:1014F00090E0C257DF4F99838883CE58D040812C2B
:10150000912C5401C218D308C601880F991F880F67
:10151000991FDC01A05FBD4FCA56DF4FB983A88376
:10152000C659D040FC01E25FFD4FC856DF4FF9833A
:10153000E883C859D0400E946A03CE56DF4F288105
:1015400039814A815B81C259D040621B730B840B85
:10155000950B613C744D8140910508F043C1412CCD
:10156000512C3201C12CD12C76010E946A03C6573E
:10157000DF4F288139814A815B81CA58D040621B84
:10158000730B840B950B693C71058105910548F53A
:1015900080912A020E94FE02092E000CAA0BBB0BAE
:1015A000C80ED91EEA1EFB1E3FEF431A530A630AF8
:1015B000730AC257DF4F68817981CE58D04080913D
:1015C00028020E94A10260E570E080E090E00E94A5
:1015D0003803CBCFC301B2010E94260C1BCF6AE0B7
:1015E00025CFC701B601A30192010E94780E6901BF
:1015F0007A01CA56DF4FA881B981C659D0408D9172
:101600009C9195958795C856DF4FA881B981C85997
:10161000D040ED91FC91B501A40180519E4F0995F8
:10162000C257DF4F99838883CE58D040B9E5CB1697
:10163000D104E104F10478F16FEF70E080912802A9
:101640000E94A102C057DF4FE881F981C059D04004
:10165000EE0FFF1FEE0FFF1FE051FE4F61E0808194
:101660000E944202C857DF4FE881F981C858D04034
:10167000E051FE4F61E086AD0E94420282E692E0B8
:101680000E94EF0420E044E069EB72E082E692E021
:101690000E941E04FFCFEEE4CE16D104E104F10453
:1016A00050F420E030E040E85FE3C501B4010E945F
:1016B000270C4B015C01D701C60183559109A10993
:1016C000B1090697A105B10550F420E030E040E8EB
:1016D0005FE3C501B4010E94260C4B015C0120E0D0
:1016E00030E040EC50E4C501B4010E94F20D181640
:1016F00024F5F6E0CF16D104E104F104F0F46FEF25
:1017000070E0809128020E94A102F101EE0FFF1FFC
:10171000EE0FFF1FE45DFD4F61E080810E944202F9
:10172000C857DF4FE881F981C858D040E051FE4FDB
:1017300061E086AD0E944202C3CDCB57DF4F1882D5
:10174000C558D040A701960105E610E00C0F1D1FFB
:10175000005E1F4FCA01B9012AE030E040E050E0CE
:101760000E94780E605DD8016E938D0121153105C0
:101770004105510579F7109769F0FD0101900020AE
:10178000E9F73197AF014A1B5B0BBD0183E591E09F
:101790000E940C0142E050E066E471E083E591E0D4
:1017A0000E940C01C701B6010E94400D23E938E1F7
:1017B00044E250E40E94F70D0E940A0DE12C04E07F
:1017C00020E0AB016AE082E692E00E9460040E94A1
:1017D0006A03C657DF4F688379838A839B83CA581D
:1017E000D040A9CE6FEF70E0809128020E94A10244
:1017F000F101EE0FFF1FEE0FFF1FE45DFD4F61E0F3
:1018000080810E944202C857DF4FE881F981C858A1
:10181000D040E051FE4F61E086AD0E94420282E678
:1018200092E00E94EF0460ED77E080E090E00E949B
:10183000380380E090E0892B09F4CECB0E9476013A
:10184000882309F4C9CB0E940000BDCB5058BB27A8
:10185000AA270E943E0C0C94B80D0E94AA0D38F0E5
:101860000E94B10D20F039F49F3F19F426F40C9436
:10187000A70D0EF4E095E7FB0C94A10DE92F0E9453
:10188000C90D58F3BA17620773078407950720F04C
:1018900079F4A6F50C94EB0D0EF4E0950B2EBA2F0F
:1018A000A02D0B01B90190010C01CA01A001112466
:1018B000FF27591B99F0593F50F4503E68F11A1612
:1018C000F040A22F232F342F4427585FF3CF4695A3
:1018D00037952795A795F0405395C9F77EF41F16C5
:1018E000BA0B620B730B840BBAF09150A1F0FF0F8F
:1018F000BB1F661F771F881FC2F70EC0BA0F621F7B
:10190000731F841F48F4879577956795B795F7956A
:101910009E3F08F0B0CF9395880F08F09927EE0FFF
:101920009795879508950E947D0D08F481E00895AC
:101930000E94AC0C0C94B80D0E94B10D58F00E949E
:10194000AA0D40F029F45F3F29F00C94A10D51112C
:101950000C94EC0D0C94A70D0E94C90D68F399230B
:10196000B1F3552391F3951B550BBB27AA2762179B
:101970007307840738F09F5F5F4F220F331F441FA8
:10198000AA1FA9F335D00E2E3AF0E0E832D09150DC
:101990005040E695001CCAF72BD0FE2F29D0660FC9
:1019A000771F881FBB1F261737074807AB07B0E80C
:1019B00009F0BB0B802DBF01FF2793585F4F3AF012
:1019C0009E3F510578F00C94A10D0C94EC0D5F3FF7
:1019D000E4F3983ED4F3869577956795B795F79598
:1019E0009F5FC9F7880F911D9695879597F9089580
:1019F000E1E0660F771F881FBB1F6217730784071C
:101A0000BA0720F0621B730B840BBA0BEE1F88F72A
:101A1000E09508950E94110D6894B1110C94EC0D9D
:101A200008950E94D10D88F09F5798F0B92F9927FB
:101A3000B751B0F0E1F0660F771F881F991F1AF0B9
:101A4000BA95C9F714C0B13091F00E94EB0DB1E026
:101A500008950C94EB0D672F782F8827B85F39F025
:101A6000B93FCCF3869577956795B395D9F73EF452
:101A700090958095709561957F4F8F4F9F4F0895FA
:101A8000E89409C097FB3EF4909580957095619518
:101A90007F4F8F4F9F4F9923A9F0F92F96E9BB27CE
:101AA0009395F695879577956795B795F111F8CF4A
:101AB000FAF4BB0F11F460FF1BC06F5F7F4F8F4FB5
:101AC0009F4F16C0882311F096E911C0772321F0AB
:101AD0009EE8872F762F05C0662371F096E8862F43
:101AE00070E060E02AF09A95660F771F881FDAF79A
:101AF000880F9695879597F90895990F0008550FC7
:101B0000AA0BE0E8FEEF16161706E807F907C0F083
:101B100012161306E407F50798F0621B730B840B8B
:101B2000950B39F40A2661F0232B242B252B21F465
:101B300008950A2609F4A140A6958FEF811D811D05
:101B4000089597F99F6780E870E060E008959FEF3F
:101B500080EC089500240A94161617061806090644
:101B6000089500240A941216130614060506089513
:101B7000092E0394000C11F4882352F0BB0F40F49B
:101B8000BF2B11F460FF04C06F5F7F4F8F4F9F4FDB
:101B9000089557FD9058440F551F59F05F3F71F05D
:101BA0004795880F97FB991F61F09F3F79F08795C4
:101BB0000895121613061406551FF2CF4695F1DF4D
:101BC00008C0161617061806991FF1CF86957105DD
:101BD000610508940895E894BB2766277727CB0111
:101BE00097F908950E947D0D08F48FEF08950E94E3
:101BF0000A0E0C94B80D0E94AA0D38F00E94B10D87
:101C000020F0952311F00C94A10D0C94A70D112434
:101C10000C94EC0D0E94C90D70F3959FC1F3950FC4
:101C200050E0551F629FF001729FBB27F00DB11D60
:101C3000639FAA27F00DB11DAA1F649F6627B00DF0
:101C4000A11D661F829F2227B00DA11D621F739FD9
:101C5000B00DA11D621F839FA00D611D221F749FE7
:101C60003327A00D611D231F849F600D211D822F2E
:101C7000762F6A2F11249F5750409AF0F1F0882355
:101C80004AF0EE0FFF1FBB1F661F771F881F915082
:101C90005040A9F79E3F510580F00C94A10D0C9483
:101CA000EC0D5F3FE4F3983ED4F386957795679506
:101CB000B795F795E7959F5FC1F7FE2B880F911DAC
:101CC0009695879597F90895AA1BBB1B51E107C00C
:101CD000AA1FBB1FA617B70710F0A61BB70B881FBC
:101CE000991F5A95A9F780959095BC01CD0108954B
:101CF000A1E21A2EAA1BBB1BFD010DC0AA1FBB1F10
:101D0000EE1FFF1FA217B307E407F50720F0A21B81
:101D1000B30BE40BF50B661F771F881F991F1A94EE
:101D200069F760957095809590959B01AC01BD0118
:101D3000CF010895EE0FFF1F0590F491E02D099457
:041D4000F894FFCF45
:101D44000900050008000400070003000600020063
:101D54003F5C54797177303871003F393F5C547976
:101D6400545C007C3F065B4F666D7D077F6F777C1C
:101D7400395E797100000000AC010C013901F901F0
:0A1D84006A0148015C010D0A00002D
:107E0000112484B714BE81FFF0D085E080938100F7
:107E100082E08093C00088E18093C10086E0809377
:107E2000C20080E18093C4008EE0C9D0259A86E02C
:107E300020E33CEF91E0309385002093840096BBD3
:107E4000B09BFECF1D9AA8958150A9F7CC24DD24C4
:107E500088248394B5E0AB2EA1E19A2EF3E0BF2EE7
:107E6000A2D0813461F49FD0082FAFD0023811F036
:107E7000013811F484E001C083E08DD089C08234E0
:107E800011F484E103C0853419F485E0A6D080C0E4
:107E9000853579F488D0E82EFF2485D0082F10E0AE
:107EA000102F00270E291F29000F111F8ED06801E7
:107EB0006FC0863521F484E090D080E0DECF843638
:107EC00009F040C070D06FD0082F6DD080E0C81688
:107ED00080E7D80618F4F601B7BEE895C0E0D1E017
:107EE00062D089930C17E1F7F0E0CF16F0E7DF06D8
:107EF00018F0F601B7BEE89568D007B600FCFDCFD4
:107F0000A601A0E0B1E02C9130E011968C91119780
:107F100090E0982F8827822B932B1296FA010C0160
:107F200087BEE89511244E5F5F4FF1E0A038BF0790
:107F300051F7F601A7BEE89507B600FCFDCF97BE46
:107F4000E89526C08437B1F42ED02DD0F82E2BD052
:107F50003CD0F601EF2C8F010F5F1F4F84911BD097
:107F6000EA94F801C1F70894C11CD11CFA94CF0C13
:107F7000D11C0EC0853739F428D08EE10CD085E9AC
:107F80000AD08FE07ACF813511F488E018D01DD067
:107F900080E101D065CF982F8091C00085FFFCCF94
:107FA0009093C60008958091C00087FFFCCF809118
:107FB000C00084FD01C0A8958091C6000895E0E648
:107FC000F0E098E1908380830895EDDF803219F02E
:107FD00088E0F5DFFFCF84E1DECF1F93182FE3DFCA
:107FE0001150E9F7F2DF1F91089580E0E8DFEE27F6
:047FF000FF270994CA
:027FFE00040479
:0400000300007E007B
:00000001FF