:100000000C9462000C948A000C948A000C948A0070
:100010000C948A000C948A000C948A000C948A0038
:100020000C948A000C948A000C948A000C948A0028
:100030000C948A000C948A000C948A000C948A0018
:100040000C94B0050C948A000C947E050C94580511
:100050000C948A000C948A000C948A000C948A00F8
:100060000C948A000C948A000000000023002600F3
:10007000290000000000240027002A0000000000E2
:10008000250028002B0004040404040404040202D4
:100090000202020203030303030301020408102007
:1000A0004080010204081020010204081020000012
:1000B0000008000201000003040700000000000027
:1000C0000000070611241FBECFEFD8E0DEBFCDBF72
:1000D00011E0A0E0B1E0E6EAFEE102C005900D9279
:1000E000A635B107D9F722E0A6E5B1E001C01D921F
:1000F000A93CB207E1F710E0C2E6D0E004C02197C6
:10010000FE010E944B0FC136D107C9F70E944D076F
:100110000C94510F0C940000CB01BA012DEC3CEC77
:100120004CEC5EE30E94A30E20E030E040E85FE389
:100130000E94D30C9B01AC0160E070E080E192E48E
:100140000E94440D20E030E04BE553E40E94D30CC4
:100150000E94B60DCB010895CB01BA0123EC35EF17
:1001600048EA5EE30E94A30E20E030E040E85FE34F
:100170000E94D30C9B01AC0160E070E080E592E44A
:100180000E94440D20E030E04BE453E40E94D30C85
:100190000E94B60DCB010895CB01BA012DEC3CECC9
:1001A0004CEC5EE30E94A30E20E030E040E85FE309
:1001B0000E94D30C9B01AC0160E070E08CE892E4FB
:1001C0000E94440D20E030E049E353E40E94D30C48
:1001D0000E94B60DCB010895CB01BA012DEC3CEC89
:1001E0004CE45FE30E94A30E20E030E040E85FE3D0
:1001F0000E94D30C9B01AC0160E070E085E293E4C7
:100200000E94440D20E030E044EB52E40E94D30C05
:100210000E94B60DCB010895AF92BF92CF92DF92AC
:10022000EF92FF920F931F93CF93DF936C017B01AB
:100230008B01040F151FEB015E01AE18BF08C0173C
:10024000D10759F06991D601ED91FC910190F081AF
:10025000E02DC6010995892B79F7C501DF91CF9172
:100260001F910F91FF90EF90DF90CF90BF90AF90D4
:100270000895FC01538D448D252F30E0842F90E0AC
:10028000821B930B541710F0CF9608950197089591
:10029000FC01918D828D981761F0A28DAE0FBF2F5A
:1002A000B11D5D968C91928D9F5F9F73928F90E0B0
:1002B00008958FEF9FEF0895FC01918D828D98171F
:1002C00031F0828DE80FF11D858D90E008958FEF5C
:1002D0009FEF0895FC01918D228D892F90E0805C25
:1002E0009F4F821B91098F73992708958FE591E0A5
:1002F0000E946A0121E0892B09F420E0822F0895F1
:1003000080E090E0892B29F00E94760181110C9405
:1003100000000895FC01A48DA80FB92FB11DA35AA8
:10032000BF4F2C91848D90E001968F739927848F15
:10033000A689B7892C93A089B1898C918370806438
:100340008C93938D848D981306C00288F389E02DD9
:1003500080818F7D80830895EF92FF920F931F938A
:10036000CF93DF93EC0181E0888F9B8D8C8D981368
:100370001AC0E889F989808185FF15C09FB7F89474
:10038000EE89FF896083E889F989808183708064C0
:1003900080839FBF81E090E0DF91CF911F910F910B
:1003A000FF90EF900895F62E0B8D10E00F5F1F4F1A
:1003B0000F731127E02E8C8D8E110CC00FB607FC29
:1003C000FACFE889F989808185FFF5CFCE010E94B7
:1003D0008A01F1CFEB8DEC0FFD2FF11DE35AFF4F9A
:1003E000F0829FB7F8940B8FEA89FB898081806245
:1003F000CFCFCF93DF93EC01888D8823B9F0AA8902
:10040000BB89E889F9898C9185FD03C0808186FDCF
:100410000DC00FB607FCF7CF8C9185FFF2CF80811E
:1004200085FFEDCFCE010E948A01E9CFDF91CF9108
:100430000895833081F028F4813099F08230A9F05A
:1004400008958730A9F08830C9F08430B1F48091E4
:1004500080008F7D03C0809180008F778093800023
:10046000089584B58F7784BD089584B58F7DFBCFC3
:100470008091B0008F778093B00008958091B00094
:100480008F7DF9CF1F93CF93DF93282F30E0F901B1
:10049000E255FF4F8491F901E656FF4FD491F901DF
:1004A000EA57FF4FC491CC23A9F0162F81110E9467
:1004B0001902EC2FF0E0EE0FFF1FE458FF4FA5915B
:1004C000B4918FB7F894EC91111108C0D095DE2348
:1004D000DC938FBFDF91CF911F910895DE2BF8CF72
:1004E000CF93DF9390E0FC01E656FF4F24918A57AB
:1004F0009F4FFC0184918823D1F090E0880F991FD1
:10050000FC01EE58FF4FA591B491FC01E458FF4F58
:10051000C591D49161110EC09FB7F8948C91E22FD0
:10052000E0958E238C932881E223E8839FBFDF919F
:10053000CF9108958FB7F894EC91E22BEC938FBF95
:10054000F6CF1F93CF93DF93182FEB0161E00E944A
:100550007002209739F460E0812FDF91CF911F91D5
:100560000C944202CF3FD10511F461E0F5CFE12FA9
:10057000F0E0E255FF4FE491E33031F140F4E13037
:10058000B1F0E230E1F0C038D1057CF7E4CFE730DC
:1005900029F1E83059F1E430B1F7809180008062B0
:1005A00080938000D0938B00C0938A0004C084B5F0
:1005B000806884BDC7BDDF91CF911F91089584B538
:1005C000806284BDC8BDF7CF809180008068809331
:1005D0008000D0938900C0938800EDCF8091B00057
:1005E00080688093B000C093B300E5CF8091B000E5
:1005F00080628093B000C093B400DDCF8E3008F0ED
:100600008E508770806480937C0080917A00806433
:1006100080937A0080917A0086FDFCCF80917800EB
:100620009091790008953FB7F89480915B01909183
:100630005C01A0915D01B0915E0126B5A89B05C04B
:100640002F3F19F00196A11DB11D3FBFBA2FA92F51
:10065000982F8827BC01CD01620F711D811D911D4E
:1006600042E0660F771F881F991F4A95D1F70895BA
:100670008F929F92AF92BF92CF92DF92EF92FF92B2
:100680004B015C010E9413036B017C010E94130368
:100690006C197D098E099F09683E7340810591059B
:1006A000A8F321E0821A9108A108B10888EEC80ECB
:1006B00083E0D81EE11CF11C81149104A104B10453
:1006C00029F7FF90EF90DF90CF90BF90AF909F9071
:1006D0008F9008952FB7F894609157017091580149
:1006E0008091590190915A012FBF0895FC01838197
:1006F00094818230910538F0880F991F880F991FD7
:1007000005970197F1F70895EF92FF920F931F93CA
:10071000CF93DF93EC01062F18E061E088810E94FF
:100720007002CE010E947603E02EF12C60E000FF03
:1007300061E089810E947002CE010E94760360E030
:1007400088810E947002CE010E947603F594E7949E
:100750000E2D115011F761E088810E94700260E057
:1007600089810E947002CE010E94760360E0888138
:100770000E947002CE010E947603298130E0F901C7
:10078000E255FF4F8491F901E656FF4F0491F901BC
:10079000EA57FF4F1491112349F181110E94190268
:1007A000E12FF0E0EE0FFF1FE859FF4FA591B49144
:1007B000EC910E2311E009F410E0111104C061E086
:1007C00089810E947002CE010E94760361E08881D7
:1007D0000E947002CE010E947603812F8170DF910A
:1007E000CF911F910F91FF90EF90089510E0E7CF08
:1007F000CF93DF93EC0161E089810E947002CE010A
:100800000E94760360E088810E947002CE010E94FF
:10081000760360E089810E947002CE01DF91CF9162
:100820000C947603CF93DF93EC0161E089810E9401
:100830007002CE01DF91CF910C947603CF92DF92BC
:10084000EF92FF920F931F93CF93DF93EC01F62E5D
:10085000C72EE42E122F0E94120460E4CE010E94E3
:100860008403CE010E94F803CE010E94120460ECC2
:10087000610FCE010E948403DF2C0F2D1C2DF80187
:1008800061918F01CE010E948403802F8D198E15F6
:10089000B0F3CE010E94F803CE010E9412046A81D7
:1008A0006F706058CE010E948403CE01DF91CF911A
:1008B0001F910F91FF90EF90DF90CF900C94F80371
:1008C0004F925F926F927F928F929F92AF92BF9260
:1008D000CF92DF92EF920F931F93CF93DF9300D0CD
:1008E00000D0CDB7DEB74C016A01402F30E067FF82
:1008F00002C0619531E0E42FF0E0CF010197DE0105
:1009000011965D01C114D10451F550E0252F30E05E
:100910002817390734F42A0D3B1DF90110825F5F57
:10092000F5CF8A0D9B1D2FE3DC012C932E2DB501F5
:10093000C4010E941E040F900F900F900F90DF9142
:10094000CF911F910F91EF90DF90CF90BF90AF901C
:100950009F908F907F906F905F904F900895EA0FD7
:10096000FB1F662E660F770810E4C601B3010E94D4
:10097000150F582FDF0111972D0181110CC0C114E3
:10098000D10449F41C92332381F0D2011C9330E04E
:100990000CC0F201EACF8C5D9E4FDC018C91D2013C
:1009A0008C93511102C0CD2871F36B01D2014A140E
:1009B0005B0479F7222309F4B9CF6F0183E0C80EF5
:1009C000D11C9D91BD0161507109822F8078892BC6
:1009D000FB018083220FCA16DB0699F7A7CFCF93BE
:1009E000DF9300D000D0CDB7DEB719821A821B8208
:1009F0001C8220E044E0BE016F5F7F4F0E941E0416
:100A00000F900F900F900F90DF91CF910895FC0100
:100A100001900020E9F73197AF01481B590BBC0149
:100A20008FE591E00C940C018F929F92AF92BF9250
:100A30000F931F93CF93DF93CDB7DEB7A1970FB678
:100A4000F894DEBF0FBECDBF19A2423008F44AE0D1
:100A50008E010F5D1F4F842E912CB12CA12CA5016E
:100A600094010E94290FE62FB901CA01EA30F4F47B
:100A7000E05DD801EE938D01232B242B252B79F7F4
:100A800090E080E0109719F0CD010E940705A19633
:100A90000FB6F894DEBF0FBECDBFDF91CF911F918F
:100AA0000F91BF90AF909F908F900895E95CE1CF38
:100AB0001F920F920FB60F9211242F933F934F93D3
:100AC0005F936F937F938F939F93AF93BF93EF93B6
:100AD000FF938FE591E00E948A01FF91EF91BF9112
:100AE000AF919F918F917F916F915F914F913F91C6
:100AF0002F910F900FBE0F901F9018951F920F927D
:100B00000FB60F9211242F938F939F93EF93FF9320
:100B1000E0916F01F09170018081E0917501F09199
:100B2000760182FD1BC09081809178018F5F8F7369
:100B300020917901821741F0E0917801F0E0E15ACB
:100B4000FE4F958F80937801FF91EF919F918F9148
:100B50002F910F900FBE0F901F9018958081F4CFAA
:100B60001F920F920FB60F9211242F933F938F93E2
:100B70009F93AF93BF938091570190915801A0919B
:100B80005901B0915A013091560123E0230F2D37BE
:100B900058F50196A11DB11D209356018093570170
:100BA00090935801A0935901B0935A0180915B0131
:100BB00090915C01A0915D01B0915E010196A11D33
:100BC000B11D80935B0190935C01A0935D01B09394
:100BD0005E01BF91AF919F918F913F912F910F90A7
:100BE0000FBE0F901F90189526E8230F0296A11DA7
:100BF000B11DD2CF8EE692E00E94EF0420E044E0E7
:100C000061EC72E08EE692E00E941E04FFCF4F92EC
:100C10005F926F927F928F929F92AF92BF92CF928C
:100C2000DF92EF92FF92CF93DF93EFE5F1E0138233
:100C3000128288EE93E0A0E0B0E084839583A683DF
:100C4000B78388E391E09183808385EC90E095877A
:100C5000848784EC90E09787868780EC90E0918B86
:100C6000808B81EC90E0938B828B82EC90E0958B73
:100C7000848B86EC90E0978B868B118E128E138E70
:100C8000148EECEFF1E010821182148213823BE0AB
:100C900035832CE0268384E690E090878783118655
:100CA000128615861486CCE8D0E0D787C687118ACD
:100CB000108AACEAB0E0B38BA28B158A148A6CEC74
:100CC00070E0778B668B118E108E4CEE50E0538F58
:100CD000428F158E148E17AA16AA11AE10AE13AE3F
:100CE00012AE1092510210925002109253021092C2
:100CF00052024090100150901101609012017090CA
:100D00001301409254025092550260925602709222
:100D100057028090140190901501A0901601B09098
:100D200017018092580290925902A0925A02B092F2
:100D30005B02C0901801D0901901E0901A01F09068
:100D40001B01C0925C02D0925D02E0925E02F092C2
:100D50005F02E5E6F2E0108211821482138235838D
:100D60002683908787831186128615861486D787F7
:100D7000C687118A108AB38BA28B158A148A778B47
:100D8000668B118E108E538F428F158E148E17AA7C
:100D900016AA11AE10AE13AE12AE1092BA02109295
:100DA000B9021092BC021092BB024092BD02509256
:100DB000BE026092BF027092C0028092C102909205
:100DC000C202A092C302B092C402C092C502D092E5
:100DD000C602E092C702F092C802A0E0B1E04D91D5
:100DE0005C91119755AF44AF14964D915C91159756
:100DF0005093A6024093A50218964D915C911997C5
:100E00005093AA024093A9021C964D915C911D97A4
:100E10005093AE024093AD0212964D915C911397A0
:100E200057AF46AF16964D915C9117975093A80215
:100E30004093A7021A964D915C911B975093AC0278
:100E40004093AB021E964D915C915093B00240933B
:100E5000AF02C0E6D2E0388329839C838B8360E0B5
:100E60008BE00E94700260E089810E94700260E065
:100E700088810E94420260E08981DF91CF91FF90DA
:100E8000EF90DF90CF90BF90AF909F908F907F902A
:100E90006F905F904F900C944202CF93DF93CDB749
:100EA000DEB7C857D1090FB6F894DEBF0FBECDBF6D
:100EB000789484B5826084BD84B5816084BD85B535
:100EC000826085BD85B5816085BD80916E00816041
:100ED00080936E00109281008091810082608093E7
:100EE00081008091810081608093810080918000E9
:100EF0008160809380008091B10084608093B10014
:100F00008091B00081608093B00080917A0084600D
:100F100080937A0080917A00826080937A00809139
:100F20007A00816080937A0080917A008068809353
:100F30007A001092C10061E089E00E94700261E0D5
:100F400088E00E94700261E087E00E94700261E028
:100F500086E00E94700261E085E00E94700261E01C
:100F600084E00E94700261E083E00E94700261E010
:100F700082E00E94700261E08AE00E94700261E0FB
:100F800089E00E94420261E088E00E94420261E042
:100F900087E00E94420261E086E00E94420261E036
:100FA00085E00E94420261E084E00E94420261E02A
:100FB00083E00E94420261E082E00E94420261E01E
:100FC0008AE00E9442026FEF70E08AE00E94A10274
:100FD0008CE08093620234E6C32ED12CE12C04E035
:100FE00020E0A6016AE080E692E00E94600421E031
:100FF000C21AD10898F780E692E00E94EF04E091CF
:101000006F01F091700182E08083E0916B01F091BB
:101010006C011082E0916D01F0916E0180E180839E
:1010200010927701E0917301F091740186E0808362
:10103000E0917101F0917201808180618083E09183
:101040007101F0917201808188608083E09171016B
:10105000F0917201808180688083E0917101F0914C
:10106000720180818F7D8083AE01495C5F4FA796BE
:101070005FAF4EAFA7978EE090E090939C02809375
:101080009B02AAE0B0E0B0939E02A0939D02E5E12E
:10109000F0E0F093A002E0939F0205E612E023E95E
:1010A000622E22E0722EAA961FAEAA97A8961FAEB5
:1010B000A89760E0D801DC968C910E94420260E023
:1010C000F80186AD0E94420266E970E080E090E09F
:1010D0000E94380394E0A92EB12CC12CD12C7601AA
:1010E0008EE00E94FE02BC01990F880B990B0E94B2
:1010F000EE0D9B01AC01C701B6010E94D30C6B0140
:101100007C01F1E0AF1AB10859F7AC019B010E94D4
:10111000100F882309F484C086E491E00E9407053B
:1011200082E591E00E94070561E0D801DC968C9190
:101130000E94420261E0F80186AD0E944202C701AE
:10114000B6010E94B60DD3016D937D933D0120E061
:1011500030E042E554E4C701B6010E943F0D87FF2D
:1011600013C020E030E849E054E4C701B6010E9412
:101170009E0E18164CF421E030E0F301358F248FD9
:1011800031E0A8963FAFA89720E030E042E554E474
:10119000C701B6010E949E0E87FF0AC020E030E81A
:1011A00049E054E4C701B6010E943F0D18162CF027
:1011B000D3015D961C921E925C9720E030E042E5E0
:1011C00054E4C701B6010E949E0E181624F4B1E043
:1011D000AA96BFAFAA9766E970E080E090E00E940F
:1011E00038030C5F1F4FE2E005371E0709F061CF9F
:1011F000A896CFACA897C110B0C0AA96DFACAA97AA
:1012000080E692E0DD2009F49DC00E94EF0420E01A
:1012100044E06CE171E080E692E00E941E04FFCFA2
:1012200046015701E894B7F82FEF3FEF4FE75FE72C
:10123000C501B4010E94100F81110DC02FEF3FEFC7
:101240004FE75FE7C501B4010E943F0D18161CF47B
:101250008AE491E063CF2FEF3FEF4FE75FE4C701F0
:10126000B6010E949E0E18161CF48EE491E056CF33
:101270002FEF3FEF4FE75FECC701B6010E943F0D34
:1012800087FDF3CF20E030E0A901C701B6010E943D
:101290003F0D87FF54C06DE28FE591E00E94AC01E5
:1012A000C701B60190582AE037ED43EA5BE30E949C
:1012B000D30C1B012C010E94BD0D4B015C010E944F
:1012C000EC0D9B01AC01C201B1010E94D20C1B01CB
:1012D0002C014AE0C501B4010E9414056EE28FE5BD
:1012E00091E00E94AC0120E030E040E251E4C20114
:1012F000B1010E94A30E1B012C010E94BD0D4B01E8
:10130000B12CA12C4AE0C501B4010E941405C5010D
:10131000B4010E94EC0D9B01AC01C201B1010E941D
:10132000D20C20E030E040E251E40E94A30E0E9483
:10133000BD0D90E080E04AE00E941405F1CEC701A7
:10134000B601B1CF0E94EF0420E044E060E271E01A
:1013500080E692E00E941E04FFCF84E6E5E6F2E01C
:10136000DE01119601900D928A95E1F7A0919D0200
:10137000B0919E02E0919F02F091A0028091A102A3
:101380009091A2022091A3023091A402E090A502C4
:10139000F090A6020091A7021091A8026091A90204
:1013A0007091AA02A090AB02B090AC028090AD0206
:1013B0009090AE024091AF025091B002C0909B025B
:1013C000D0909C02D0923302C0923202B093350288
:1013D000A0933402F0933702E0933602FE01BF96E9
:1013E000AAE2B2E0C190D190CD92DD92C48CD58CAE
:1013F0005D96DC92CE925C97A796CEACDFACA797B9
:10140000CE16DF0679F79093390280933802F09276
:101410003D02E0923C027093410260934002909240
:1014200045028092440230933B0220933A0210938B
:101430003F0200933E02B0924302A09242025093B8
:1014400047024093460210916B0200916A0260E0ED
:10145000802F0E94700260E0812F0E94700260E085
:10146000802F0E94420260E0812F0E94420200937E
:101470006E0210936F0224E630E0309372022093E4
:1014800071028DE08093700288E4882E82E0982EAD
:10149000F40190E080E02191319122242A94322CB1
:1014A0002130310509F41C0101968430910531F495
:1014B0003FEF2316330631F40E94FA052FEF221670
:1014C000320649F3F101EE0FFF1FE85BFD4F80810B
:1014D0009181CC24CA94DC2C019709F46101C101EB
:1014E0000196F101EE0FFF1FE65BFD4F8430910581
:1014F00059F0219131912115310531F0213031051B
:1015000009F46C010196F2CF4FEFC416D406A1F294
:1015100080910A0290910B02A0910C02B0910D02F1
:1015200080931A0290931B02A0931C02B0931D0299
:1015300080910E0290910F02A0911002B0911102C1
:1015400080931E0290931F02A0932002B093210269
:101550008091120290911302A0911402B091150291
:101560008093220290932302A0932402B093250239
:101570008091160290911702A0911802B091190261
:101580008093260290932702A0932802B093290209
:10159000B12CA12CD4018D919D914D01BFEFAB1ABF
:1015A000BB0A009709F451C0019749F4E12C04E00B
:1015B00020E0A5016AE08EE692E00E9460046AE8FD
:1015C00072E080E090E00E943803F401B0976081FF
:1015D0007181072E000C880B990B0E94EE0D20E004
:1015E00030E040E551E40E94D30C20EC3EE34AEFAA
:1015F0005EE30E94A30E2B013C0120E030E0A90134
:101600000E949E0E20E030E040E05FE387FDD0C006
:10161000C301B2010E94D30C0E94B60DAB0177FF4B
:1016200004C044275527461B570B77FFC6C066EFFB
:10163000E12C04E020E48EE692E00E94600468EE73
:1016400073E080E090E00E943803E4E0AE16B1045D
:1016500009F0A0CF8EE692E00E94EF0443E0E42E72
:1016600001E020E050E040E06AE08EE692E00E9477
:1016700060046FEF70E0809134020E94A10291013A
:10168000215F3F4FAB963FAF2EAFAB97F901EE0F07
:10169000FF1FEE0FFF1FE450FE4F60E080810E94AD
:1016A0004202A601440F551F440F551FA9965FAF74
:1016B0004EAFA997FA01E450FE4F60E086AD0E945C
:1016C00042020E946A03E5966CAF7DAF8EAF9FAF7A
:1016D000E5970E946A03AF966CAF7DAF8EAF9FAF68
:1016E000AF978FEF90E0E1969FAF8EAFE197812C9F
:1016F000912C5401C218D308C601880F991F880F76
:10170000991FDC01A45EBD4FE796BFAFAEAFE79770
:10171000FC01E65EFD4FE996FFAFEEAFE9970E9450
:101720006A03E5962CAD3DAD4EAD5FADE597621B0E
:10173000730B840B950B613C744D8140910508F04F
:10174000FCC0412C512C3201C12CD12C76010E94BD
:101750006A03AF962CAD3DAD4EAD5FADAF97621B4A
:10176000730B840B950B693C71058105910538F568
:10177000809136020E94FE02092E000CAA0BBB0BC0
:10178000C80ED91EEA1EFB1E3FEF431A530A630A16
:10179000730AE1966EAD7FADE197809134020E94AD
:1017A000A10260E570E080E090E00E943803CFCFB6
:1017B000C301B2010E94D20C2FCF6AE039CFC7011A
:1017C000B601A30192010E94290F69017A01E796EF
:1017D000AEADBFADE7978D919C9195958795E996B4
:1017E000AEADBFADE997ED91FC91B501A401845078
:1017F0009E4F0995E1969FAF8EAFE197B9E5CB1665
:10180000D104E104F10458F16FEF70E080913402EB
:101810000E94A102AB96EEADFFADAB97EE0FFF1F9E
:10182000EE0FFF1FE450FE4F61E080810E944202F4
:10183000A996EEADFFADA997E450FE4F61E086ADED
:101840000E9442028EE692E00E94EF0420E044E013
:1018500065EC72E08EE692E00E941E04FFCFEEE49B
:10186000CE16D104E104F10450F420E030E040E869
:101870005FE3C501B4010E94D30C4B015C01D701A9
:10188000C60183559109A109B1090697A105B105C2
:1018900050F420E030E040E85FE3C501B4010E946D
:1018A000D20C4B015C0120E030E040EC50E4C5017B
:1018B000B4010E949E0E181614F5F6E0CF16D1045E
:1018C000E104F104E0F46FEF70E0809134020E94D3
:1018D000A102F101EE0FFF1FEE0FFF1FE85CFD4FAD
:1018E00061E080810E944202A996EEADFFADA9970A
:1018F000E450FE4F61E086AD0E944202DDCDC7019B
:10190000B6010E94EC0D23E938E144E250E40E9464
:10191000A30E0E94B60DE12C04E020E0AB016AE0CA
:101920008EE692E00E9460040E946A03AF966CAF5C
:101930007DAF8EAF9FAFAF97F2CE6FEF70E080912B
:1019400034020E94A102AB96EEADFFADAB97EE0F55
:10195000FF1FEE0FFF1FE450FE4F61E080810E94E9
:101960004202A996EEADFFADA997E450FE4F61E0AB
:1019700086AD0E9442028EE692E00E94EF0460ED86
:1019800077E080E090E00E94380380E090E0892BCF
:1019900009F471CB0E947601882309F46CCB0E9474
:1019A000000069CB5058BB27AA270E94EA0C0C9470
:1019B000640E0E94560E38F00E945D0E20F039F43D
:1019C0009F3F19F426F40C94530E0EF4E095E7FBB8
:1019D0000C944D0EE92F0E94750E58F3BA1762074A
:1019E00073078407950720F079F4A6F50C94970EF9
:1019F0000EF4E0950B2EBA2FA02D0B01B90190012A
:101A00000C01CA01A0011124FF27591B99F0593F6D
:101A100050F4503E68F11A16F040A22F232F342FB5
:101A20004427585FF3CF469537952795A795F04003
:101A30005395C9F77EF41F16BA0B620B730B840B18
:101A4000BAF09150A1F0FF0FBB1F661F771F881FD0
:101A5000C2F70EC0BA0F621F731F841F48F4879528
:101A600077956795B795F7959E3F08F0B0CF93951A
:101A7000880F08F09927EE0F9795879508950E9493
:101A8000290E08F481E008950E94580D0C94640E0C
:101A90000E945D0E58F00E94560E40F029F45F3F00
:101AA00029F00C944D0E51110C94980E0C94530E79
:101AB0000E94750E68F39923B1F3552391F3951B9A
:101AC000550BBB27AA2762177307840738F09F5F5F
:101AD0005F4F220F331F441FAA1FA9F335D00E2ECC
:101AE0003AF0E0E832D091505040E695001CCAF739
:101AF0002BD0FE2F29D0660F771F881FBB1F2617FC
:101B000037074807AB07B0E809F0BB0B802DBF01D2
:101B1000FF2793585F4F3AF09E3F510578F00C94A1
:101B20004D0E0C94980E5F3FE4F3983ED4F38695E7
:101B300077956795B795F7959F5FC9F7880F911DC2
:101B40009695879597F90895E1E0660F771F881FAE
:101B5000BB1F621773078407BA0720F0621B730B61
:101B6000840BBA0BEE1F88F7E09508950E94BD0D17
:101B70006894B1110C94980E08950E947D0E88F01F
:101B80009F5798F0B92F9927B751B0F0E1F0660F41
:101B9000771F881F991F1AF0BA95C9F714C0B13082
:101BA00091F00E94970EB1E008950C94970E672F64
:101BB000782F8827B85F39F0B93FCCF386957795B1
:101BC0006795B395D9F73EF490958095709561959A
:101BD0007F4F8F4F9F4F0895E89409C097FB3EF4C5
:101BE00090958095709561957F4F8F4F9F4F99236A
:101BF000A9F0F92F96E9BB279395F69587957795E8
:101C00006795B795F111F8CFFAF4BB0F11F460FFA7
:101C10001BC06F5F7F4F8F4F9F4F16C0882311F0FF
:101C200096E911C0772321F09EE8872F762F05C013
:101C3000662371F096E8862F70E060E02AF09A95AE
:101C4000660F771F881FDAF7880F9695879597F9A3
:101C50000895990F0008550FAA0BE0E8FEEF16163D
:101C60001706E807F907C0F012161306E407F50790
:101C700098F0621B730B840B950B39F40A2661F004
:101C8000232B242B252B21F408950A2609F4A140A7
:101C9000A6958FEF811D811D089597F99F6780E8B4
:101CA00070E060E008959FEF80EC089500240A94AE
:101CB0001616170618060906089500240A94121627
:101CC0001306140605060895092E0394000C11F45A
:101CD000882352F0BB0F40F4BF2B11F460FF04C007
:101CE0006F5F7F4F8F4F9F4F089557FD9058440F60
:101CF000551F59F05F3F71F04795880F97FB991F6B
:101D000061F09F3F79F08795089512161306140627
:101D1000551FF2CF4695F1DF08C0161617061806B4
:101D2000991FF1CF86957105610508940895E8948F
:101D3000BB2766277727CB0197F908950E94290EC4
:101D400008F48FEF08950E94B60E0C94640E0E9462
:101D5000560E38F00E945D0E20F0952311F00C9481
:101D60004D0E0C94530E11240C94980E0E94750E77
:101D700070F3959FC1F3950F50E0551F629FF001DE
:101D8000729FBB27F00DB11D639FAA27F00DB11DF7
:101D9000AA1F649F6627B00DA11D661F829F222780
:101DA000B00DA11D621F739FB00DA11D621F839F07
:101DB000A00D611D221F749F3327A00D611D231FDD
:101DC000849F600D211D822F762F6A2F11249F572B
:101DD00050409AF0F1F088234AF0EE0FFF1FBB1F2E
:101DE000661F771F881F91505040A9F79E3F5105ED
:101DF00080F00C944D0E0C94980E5F3FE4F3983EE7
:101E0000D4F3869577956795B795F795E7959F5F96
:101E1000C1F7FE2B880F911D9695879597F9089528
:101E20000E94290E880B990B0895AA1BBB1B51E138
:101E300007C0AA1FBB1FA617B70710F0A61BB70B3A
:101E4000881F991F5A95A9F780959095BC01CD01DF
:101E50000895A1E21A2EAA1BBB1BFD010DC0AA1FEB
:101E6000BB1FEE1FFF1FA217B307E407F50720F003
:101E7000A21BB30BE40BF50B661F771F881F991F7E
:101E80001A9469F760957095809590959B01AC01C7
:101E9000BD01CF010895EE0FFF1F0590F491E02DD5
:061EA0000994F894FFCF45
:101EA6000900050008000400070003000600020000
:101EB6003F5C54797177303871003F393F5C547913
:101EC600545C007C3F065B4F666D7D077F6F777CB9
:101ED600395E797100000000AC010C013901F9018D
:101EE6006A0148015C016E616E00696E66006F767C
:061EF60066000D0A000069
:107E0000112484B714BE81FFF0D085E080938100F7
:107E100082E08093C00088E18093C10086E0809377
:107E2000C20080E18093C4008EE0C9D0259A86E02C
:107E300020E33CEF91E0309385002093840096BBD3
:107E4000B09BFECF1D9AA8958150A9F7CC24DD24C4
:107E500088248394B5E0AB2EA1E19A2EF3E0BF2EE7
:107E6000A2D0813461F49FD0082FAFD0023811F036
:107E7000013811F484E001C083E08DD089C08234E0
:107E800011F484E103C0853419F485E0A6D080C0E4
:107E9000853579F488D0E82EFF2485D0082F10E0AE
:107EA000102F00270E291F29000F111F8ED06801E7
:107EB0006FC0863521F484E090D080E0DECF843638
:107EC00009F040C070D06FD0082F6DD080E0C81688
:107ED00080E7D80618F4F601B7BEE895C0E0D1E017
:107EE00062D089930C17E1F7F0E0CF16F0E7DF06D8
:107EF00018F0F601B7BEE89568D007B600FCFDCFD4
:107F0000A601A0E0B1E02C9130E011968C91119780
:107F100090E0982F8827822B932B1296FA010C0160
:107F200087BEE89511244E5F5F4FF1E0A038BF0790
:107F300051F7F601A7BEE89507B600FCFDCF97BE46
:107F4000E89526C08437B1F42ED02DD0F82E2BD052
:107F50003CD0F601EF2C8F010F5F1F4F84911BD097
:107F6000EA94F801C1F70894C11CD11CFA94CF0C13
:107F7000D11C0EC0853739F428D08EE10CD085E9AC
:107F80000AD08FE07ACF813511F488E018D01DD067
:107F900080E101D065CF982F8091C00085FFFCCF94
:107FA0009093C60008958091C00087FFFCCF809118
:107FB000C00084FD01C0A8958091C6000895E0E648
:107FC000F0E098E1908380830895EDDF803219F02E
:107FD00088E0F5DFFFCF84E1DECF1F93182FE3DFCA
:107FE0001150E9F7F2DF1F91089580E0E8DFEE27F6
:047FF000FF270994CA
:027FFE00040479
:0400000300007E007B
:00000001FF