:100000000C9462000C948A000C948A000C948A0070
:100010000C948A000C948A000C948A000C948A0038
:100020000C948A000C948A000C948A000C948A0028
:100030000C948A000C948A000C948A000C948A0018
:100040000C9407040C948A000C948A000C948A0087
:100050000C948A000C948A000C948A000C948A00F8
:100060000C948A000C948A000000000023002600F3
:10007000290000000000240027002A0000000000E2
:10008000250028002B0004040404040404040202D4
:100090000202020203030303030301020408102007
:1000A0004080010204081020010204081020000012
:1000B0000008000201000003040700000000000027
:1000C0000000510411241FBECFEFD8E0DEBFCDBF2A
:1000D00011E0A0E0B1E0E8E7F8E102C005900D9280
:1000E000A433B107D9F722E0A4E3B1E001C01D9227
:1000F000AA30B207E1F710E0C2E6D0E004C02197D1
:10010000FE010E94340CC136D107C9F70E946B056D
:100110000C943A0C0C940000CB01BA0120E030E0C2
:1001200040E05FE30E946D0B20E030E040E85FE3D9
:100130000E94C6099B01AC0160E070E08CE092E493
:100140000E94320A20E030E04CE553E40E94C609E8
:100150000E94A40ACB010895CB01BA0120E030E04F
:1001600040E05FE30E946D0B20E030E040E85FE399
:100170000E94C6099B01AC0160E070E08CE392E450
:100180000E94320A20E030E040E553E40E94C609B4
:100190000E94A40ACB010895CB01BA012DEC3CECDE
:1001A0004CEC5EE30E946D0B20E030E040E85FE342
:1001B0000E94C6099B01AC0160E070E082E892E415
:1001C0000E94320A20E030E04EE353E40E94C60968
:1001D0000E94A40ACB010895CB01BA012DEC3CEC9E
:1001E0004CE45FE30E946D0B20E030E040E85FE309
:1001F0000E94C6099B01AC0160E070E085E293E4D7
:100200000E94320A20E030E044EB52E40E94C6092A
:100210000E94A40ACB010895833081F028F4813034
:1002200099F08230A9F008958730A9F08830C9F09C
:100230008430B1F4809180008F7D03C08091800074
:100240008F7780938000089584B58F7784BD08955B
:1002500084B58F7DFBCF8091B0008F778093B00005
:1002600008958091B0008F7DF9CF1F93CF93DF93D6
:10027000282F30E0F901E255FF4F8491F901E6564D
:10028000FF4FD491F901EA57FF4FC491CC23A9F055
:10029000162F81110E940C01EC2FF0E0EE0FFF1FD2
:1002A000E458FF4FA591B4918FB7F894EC911111D8
:1002B00008C0D095DE23DC938FBFDF91CF911F91D3
:1002C0000895DE2BF8CFCF93DF9390E0FC01E65644
:1002D000FF4F24918A579F4FFC0184918823D1F0CE
:1002E00090E0880F991FFC01EE58FF4FA591B49143
:1002F000FC01E458FF4FC591D49161110EC09FB726
:10030000F8948C91E22FE0958E238C932881E22340
:10031000E8839FBFDF91CF9108958FB7F894EC9158
:10032000E22BEC938FBFF6CF1F93CF93DF93182F61
:10033000EB0161E00E946301209739F460E0812FB6
:10034000DF91CF911F910C943501CF3FD10511F46E
:1003500061E0F5CFE12FF0E0E255FF4FE491E330AB
:1003600031F140F4E130B1F0E230E1F0C038D105D4
:100370007CF7E4CFE73029F1E83059F1E430B1F708
:1003800080918000806280938000D0938B00C09326
:100390008A0004C084B5806884BDC7BDDF91CF9159
:1003A0001F91089584B5806284BDC8BDF7CF809148
:1003B0008000806880938000D0938900C09388007B
:1003C000EDCF8091B00080688093B000C093B300FF
:1003D000E5CF8091B00080628093B000C093B400FC
:1003E000DDCF8E3008F08E508770806480937C0063
:1003F00080917A00806480937A0080917A0086FDF3
:10040000FCCF809178009091790008953FB7F894DF
:100410008091390190913A01A0913B01B0913C014A
:1004200026B5A89B05C02F3F19F00196A11DB11D4F
:100430003FBFBA2FA92F982F8827BC01CD01620F8B
:10044000711D811D911D42E0660F771F881F991F46
:100450004A95D1F708958F929F92AF92BF92CF9213
:10046000DF92EF92FF924B015C010E9406026B014A
:100470007C010E9406026C197D098E099F09683E65
:10048000734081059105A8F321E0821A9108A10823
:10049000B10888EEC80E83E0D81EE11CF11C81145F
:1004A0009104A104B10429F7FF90EF90DF90CF9061
:1004B000BF90AF909F908F9008952FB7F894609160
:1004C00035017091360180913701909138012FBF2D
:1004D0000895FC01838194818230910538F0880F62
:1004E000991F880F991F05970197F1F70895EF92CB
:1004F000FF920F931F93CF93DF93EC01062F18E029
:1005000061E088810E946301CE010E946902E02EB1
:10051000F12C60E000FF61E089810E946301CE015F
:100520000E94690260E088810E946301CE010E94FE
:100530006902F594E7940E2D115011F761E088815E
:100540000E94630160E089810E946301CE010E94E4
:10055000690260E088810E946301CE010E94690205
:10056000298130E0F901E255FF4F8491F901E65607
:10057000FF4F0491F901EA57FF4F1491112349F1FC
:1005800081110E940C01E12FF0E0EE0FFF1FE859EE
:10059000FF4FA591B491EC910E2311E009F410E006
:1005A000111104C061E089810E946301CE010E94A3
:1005B000690261E088810E946301CE010E946902A4
:1005C000812F8170DF91CF911F910F91FF90EF905C
:1005D000089510E0E7CFCF93DF93EC0161E08981CC
:1005E0000E946301CE010E94690260E088810E943E
:1005F0006301CE010E94690260E089810E9463016B
:10060000CE01DF91CF910C946902CF93DF93EC017F
:1006100061E089810E946301CE01DF91CF910C944A
:100620006902CF92DF92EF92FF920F931F93CF93C5
:10063000DF93EC01F62EC72EE42E122F0E94050345
:1006400060E4CE010E947702CE010E94EB02CE014F
:100650000E94050360EC610FCE010E947702DF2C3F
:100660000F2D1C2DF80161918F01CE010E947702A0
:10067000802F8D198E15B0F3CE010E94EB02CE01B2
:100680000E9405036A816F706058CE010E94770254
:10069000CE01DF91CF911F910F91FF90EF90DF90EE
:1006A000CF900C94EB024F925F926F927F928F9259
:1006B0009F92AF92BF92CF92DF92EF920F931F93D0
:1006C000CF93DF9300D000D0CDB7DEB74C016A01E5
:1006D000402F30E067FF02C0619531E0E42FF0E089
:1006E000CF010197DE0111965D01C114D10451F5CE
:1006F00050E0252F30E02817390734F42A0D3B1D30
:10070000F90110825F5FF5CF8A0D9B1D2FE3DC019D
:100710002C932E2DB501C4010E9411030F900F9050
:100720000F900F90DF91CF911F910F91EF90DF907D
:10073000CF90BF90AF909F908F907F906F905F9081
:100740004F900895EA0FFB1F662E660F770810E49E
:10075000C601B3010E94FE0B582FDF0111972D0136
:1007600081110CC0C114D10449F41C92332381F0CF
:10077000D2011C9330E00CC0F201EACF8C5D9E4F99
:10078000DC018C91D2018C93511102C0CD2871F300
:100790006B01D2014A145B0479F7222309F4B9CF23
:1007A0006F0183E0C80ED11C9D91BD01615071099C
:1007B000822F8078892BFB018083220FCA16DB06EB
:1007C00099F7A7CFCF93DF9300D000D0CDB7DEB796
:1007D00019821A821B821C8220E044E0BE016F5FF6
:1007E0007F4F0E9411030F900F900F900F90DF9199
:1007F000CF9108958FEA91E00E94E20320E044E067
:1008000062E072E08FEA91E00E941103FFCF1F9235
:100810000F920FB60F9211242F933F938F939F93B4
:10082000AF93BF938091350190913601A09137012C
:10083000B09138013091340123E0230F2D3758F562
:100840000196A11DB11D2093340180933501909331
:100850003601A0933701B09338018091390190910E
:100860003A01A0913B01B0913C010196A11DB11D3F
:100870008093390190933A01A0933B01B0933C01DE
:10088000BF91AF919F918F913F912F910F900FBE8C
:100890000F901F90189526E8230F0296A11DB11DF9
:1008A000D2CF4F925F926F927F928F929F92AF9230
:1008B000BF92CF92DF92EF92FF92CF93DF93EDE35F
:1008C000F1E010821182148213823BE035832CE028
:1008D000268384E690E090878783118612861586AA
:1008E0001486CCE8D0E0D787C687118A108AACEA94
:1008F000B0E0B38BA28B158A148A6CEC70E0778B16
:10090000668B118E108E4CEE50E0538F428F158EF9
:10091000148E17AA16AA11AE10AE13AE12AE109214
:1009200092011092910110929401109293014090C3
:1009300010015090110160901201709013014092CB
:100940009501509296016092970170929801809063
:10095000140190901501A0901601B090170180929B
:10096000990190929A01A0929B01B0929C01C09033
:100970001801D0901901E0901A01F0901B01C0926B
:100980009D01D0929E01E0929F01F092A001E6EAC3
:10099000F1E01082118214821382358326839087BE
:1009A00087831186128615861486D787C687118A93
:1009B000108AB38BA28B158A148A778B668B118E63
:1009C000108E538F428F158E148E17AA16AA11AE51
:1009D00010AE13AE12AE1092FB011092FA011092FB
:1009E000FD011092FC014092FE015092FF016092C5
:1009F0000002709201028092020290920302A09281
:100A00000402B0920502C0920602D0920702E09260
:100A10000802F0920902A0E0B1E04D915C911197BB
:100A200055AF44AF14964D915C9115975093E701E3
:100A30004093E60118964D915C9119975093EB0104
:100A40004093EA011C964D915C911D975093EF01E4
:100A50004093EE0112964D915C91139757AF46AFBC
:100A600016964D915C9117975093E9014093E801D8
:100A70001A964D915C911B975093ED014093EC01B8
:100A80001E964D915C915093F1014093F001C1EAA3
:100A9000D1E0388329839C838B8360E08BE00E94C4
:100AA000630160E089810E94630160E088810E94A7
:100AB000350160E08981DF91CF91FF90EF90DF9069
:100AC000CF90BF90AF909F908F907F906F905F90EE
:100AD0004F900C943501CF93DF93CDB7DEB7C65757
:100AE000D1090FB6F894DEBF0FBECDBF789484B5A0
:100AF000826084BD84B5816084BD85B5826085BD1A
:100B000085B5816085BD80916E00816080936E00A7
:100B10001092810080918100826080938100809199
:100B2000810081608093810080918000816080934A
:100B300080008091B10084608093B1008091B0000A
:100B400081608093B00080917A00846080937A0005
:100B500080917A00826080937A0080917A0081602F
:100B600080937A0080917A00806880937A00109256
:100B7000C10061E089E00E94630161E088E00E94B9
:100B8000630161E087E00E94630161E086E00E940A
:100B9000630161E085E00E94630161E084E00E94FE
:100BA000630161E083E00E94630161E082E00E94F2
:100BB000630161E08AE00E94630161E089E00E94D4
:100BC000350161E088E00E94350161E087E00E9424
:100BD000350161E086E00E94350161E085E00E9418
:100BE000350161E084E00E94350161E083E00E940C
:100BF000350161E082E00E94350161E08AE00E94F7
:100C000035016FEF70E08AE00E9494018CE08093E0
:100C1000A30144E6C42ED12CE12C04E020E0A6017F
:100C20006AE081EA91E00E94530321E0C21AD108F0
:100C300098F781EA91E00E94E203AE01495C5F4FC0
:100C4000A7965FAF4EAFA7978EE090E09093DD013F
:100C50008093DC01AAE0B0E0B093DF01A093DE0155
:100C6000E5E1F0E0F093E101E093E00106EA11E054
:100C700034EDC32E31E0D32E912C812C60E0D801CD
:100C8000DC968C910E94350160E0F80186AD0E94EF
:100C9000350168EC70E080E090E00E942B0224E0D7
:100CA000A22EB12CF12CE12C8EE00E94F101E80E75
:100CB000F91EF1E0AF1AB108B9F761E0D801DC968E
:100CC0008C910E94350161E0F80186AD0E943501EA
:100CD000D601ED92FD926D01C701875292408E3F81
:100CE000910508F045C3E1E0F0E05D96FC93EE93DA
:100CF0005C978824839466E970E080E090E00E942D
:100D00002B020C5F1F4FF1E0063B1F0709F0B6CF27
:100D100081101AC081EA91E0992059F00E94E20303
:100D200020E044E06CE171E081EA91E00E9411036F
:100D3000FFCF0E94E20320E044E060E271E081EA3C
:100D400091E00E941103FFCF84E6E6EAF1E0DE01C4
:100D5000119601900D928A95E1F7A091DE01B09174
:100D6000DF01E091E001F091E1012091E201309199
:100D7000E3014091E4015091E5016091E601709139
:100D8000E701E090E801F090E9018090EA0190909D
:100D9000EB010091EC011091ED01A090EE01B090FB
:100DA000EF018091F0019091F101C090DC01D090B1
:100DB000DD01D0927401C0927301B0937601A093CB
:100DC0007501F0937801E0937701FE01BF96ABE6E1
:100DD000B1E0C190D190CD92DD92C48CD58C5D965E
:100DE000DC92CE925C97A796CEACDFACA797CE16DE
:100DF000DF0679F730937A012093790170937E01B1
:100E000060937D019092820180928101B09286016F
:100E1000A092850150937C0140937B01F092800168
:100E2000E0927F01109384010093830190938801E5
:100E3000809387011091AC010091AB0160E0802F9D
:100E40000E94630160E0812F0E94630160E0802FB7
:100E50000E94350160E0812F0E9435010093AF01AF
:100E60001093B00184E6C82ED12CD092B301C09269
:100E7000B2018DE08093B10199E8692E91E0792E5D
:100E8000F30190E080E021913191AA24AA94BA2C38
:100E90002130310509F45C0101968430910531F46B
:100EA0003FEFA316B30631F40E94FA032FEFA21608
:100EB000B20649F3F501EE0FFF1FE757FE4F8081A1
:100EC0009181CC24CA94DC2C019709F46501C501F9
:100ED0000196F501EE0FFF1FE557FE4F8430910597
:100EE00059F0219131912115310531F02130310531
:100EF00009F46C010196F2CF4FEFC416D406A1F2AB
:100F000080914B0190914C01A0914D01B0914E0107
:100F100080935B0190935C01A0935D01B0935E01AF
:100F200080914F0190915001A0915101B0915201D7
:100F300080935F0190936001A0936101B09362017F
:100F40008091530190915401A0915501B0915601A7
:100F50008093630190936401A0936501B09366014F
:100F60008091570190915801A0915901B0915A0177
:100F70008093670190936801A0936901B0936A011F
:100F8000912C812CD3018D919D913D01BFEF8B1A46
:100F90009B0A009709F44BC0019749F4E12C04E047
:100FA00020E0A4016AE08FEA91E00E9453036AE81E
:100FB00072E080E090E00E942B02F301B097608124
:100FC0007181072E000C880B990B0E94DC0A25EA20
:100FD0003CE243E05FE30E946D0B1B012C0120E02B
:100FE00030E0A9010E94680B20E030E040E05FE3C0
:100FF00087FDCDC0C201B1010E94C6090E94A40AAA
:10100000AB0177FF04C044275527461B570B77FFDA
:10101000C3C066EFE12C04E020E48FEA91E00E9477
:10102000530368EE73E080E090E00E942B02E4E05E
:101030008E16910409F0A6CF8FEA91E00E94E20398
:1010400043E0E42E01E020E050E040E06AE08FEA77
:1010500091E00E9453036FEF70E0809175010E9450
:1010600094011501FFE02F0E311CF101EE0FFF1F5F
:10107000EE0FFF1FE35CFE4F60E080810E943501B0
:101080009601220F331F220F331FA9963FAF2EAFB9
:10109000A997F901E35CFE4F60E086AD0E9435013F
:1010A0000E945D02E3966CAF7DAF8EAF9FAFE3977A
:1010B0000E945D02AD966CAF7DAF8EAF9FAFAD97D6
:1010C0004FEF50E0AF965FAF4EAFAF97412C512C32
:1010D0003201CA18DB08C601880F991F880F991FB3
:1010E000DC01A35ABE4FE596BFAFAEAFE597FC015A
:1010F000E55AFE4FE796FFAFEEAFE7970E945D021D
:10110000E3962CAD3DAD4EAD5FADE397621B730B27
:10111000840B950B613C744D8140910508F0FBC038
:10112000812C912C5401C12CD12C76010E945D029E
:10113000AD962CAD3DAD4EAD5FADAD97621B730B63
:10114000840B950B693C71058105910538F58091FB
:1011500077010E94F101092E000CAA0BBB0BC80EEF
:10116000D91EEA1EFB1E3FEF831A930AA30AB30A95
:10117000AF966EAD7FADAF97809175010E949401DF
:1011800060E570E080E090E00E942B02CFCFC201CA
:10119000B1010E94C50932CF6AE03CCFC701B60158
:1011A000A50194010E94120C49015A01E596AEADC9
:1011B000BFADE5978D919C9195958795E796AEADDE
:1011C000BFADE797ED91FC91B301A201835C9E4F07
:1011D0000995AF969FAF8EAFAF97BAE58B16910486
:1011E000A104B10440F16FEF70E0809175010E949D
:1011F0009401F101EE0FFF1FEE0FFF1FE35CFE4FA6
:1012000061E080810E943501A996EEADFFADA997FE
:10121000E35CFE4F61E086AD0E9435018FEA91E00C
:101220000E94E20320E044E066E072E08FEA91E091
:101230000E941103FFCFEEE48E169104A104B104C5
:1012400050F420E030E040E85FE3C301B2010E94C7
:10125000C6092B013C01D501C40183559109A1099F
:10126000B1090597A105B10550F420E030E040E850
:101270005FE3C301B2010E94C5092B013C0104E0F8
:1012800010E0F12CE12C809173010E94F101E80E35
:10129000F91E01501109B9F7FDE2EF16F1E0FF0662
:1012A000E4F4F101EE0FFF1FEE0FFF1FE35CFE4FB2
:1012B00061E080810E943501A996EEADFFADA9974E
:1012C000E35CFE4F61E086AD0E94350161E070E0B5
:1012D000809175010E949401E7CDC501B4010E947F
:1012E000DA0A23E938E144E250E40E946D0B0E94DF
:1012F000A40AE12C04E020E0AB016AE08FEA91E06F
:101300000E9453030E945D02AD966CAF7DAF8EAF1D
:101310009FAFAD97F3CE6FEF70E0809175010E94A3
:101320009401F101EE0FFF1FEE0FFF1FE35CFE4F74
:1013300061E080810E943501A996EEADFFADA997CD
:10134000E35CFE4F61E086AD0E9435018FEA91E0DB
:101350000E94E20360ED77E080E090E00E942B02C3
:1013600080E090E0892B09F46FCC0E9400006CCCE7
:101370005D961C921E925C97B6E2EB16B3E0FB06FC
:101380000CF4B9CC99249394B6CC5058BB27AA2717
:101390000E94DD090C942E0B0E94200B38F00E9455
:1013A000270B20F039F49F3F19F426F40C941D0B01
:1013B0000EF4E095E7FB0C94170BE92F0E943F0B0E
:1013C00058F3BA17620773078407950720F079F47A
:1013D000A6F50C94610B0EF4E0950B2EBA2FA02D00
:1013E0000B01B90190010C01CA01A0011124FF27D2
:1013F000591B99F0593F50F4503E68F11A16F040CD
:10140000A22F232F342F4427585FF3CF46953795CB
:101410002795A795F0405395C9F77EF41F16BA0B90
:10142000620B730B840BBAF09150A1F0FF0FBB1F3E
:10143000661F771F881FC2F70EC0BA0F621F731F87
:10144000841F48F4879577956795B795F7959E3FE4
:1014500008F0B0CF9395880F08F09927EE0F979575
:10146000879508950E94460A0C942E0B0E94270B24
:1014700058F00E94200B40F029F45F3F29F00C94B3
:10148000170B51110C94620B0C941D0B0E943F0B17
:1014900068F39923B1F3552391F3951B550BBB27A3
:1014A000AA2762177307840738F09F5F5F4F220FE8
:1014B000331F441FAA1FA9F335D00E2E3AF0E0E8DF
:1014C00032D091505040E695001CCAF72BD0FE2F29
:1014D00029D0660F771F881FBB1F261737074807BD
:1014E000AB07B0E809F0BB0B802DBF01FF27935875
:1014F0005F4F3AF09E3F510578F00C94170B0C9417
:10150000620B5F3FE4F3983ED4F386957795679539
:10151000B795F7959F5FC9F7880F911D96958795A9
:1015200097F90895E1E0660F771F881FBB1F6217C8
:1015300073078407BA0720F0621B730B840BBA0B86
:10154000EE1F88F7E09508950E94AB0A6894B111E8
:101550000C94620B08950E94470B88F09F5798F0F7
:10156000B92F9927B751B0F0E1F0660F771F881FA8
:10157000991F1AF0BA95C9F714C0B13091F00E94C2
:10158000610BB1E008950C94610B672F782F8827C9
:10159000B85F39F0B93FCCF3869577956795B395E9
:1015A000D9F73EF490958095709561957F4F8F4F58
:1015B0009F4F0895E89409C097FB3EF4909580955D
:1015C000709561957F4F8F4F9F4F9923A9F0F92F09
:1015D00096E9BB279395F695879577956795B79587
:1015E000F111F8CFFAF4BB0F11F460FF1BC06F5F6D
:1015F0007F4F8F4F9F4F16C0882311F096E911C07F
:10160000772321F09EE8872F762F05C0662371F09F
:1016100096E8862F70E060E02AF09A95660F771FB3
:10162000881FDAF7880F9695879597F9089597F9A7
:101630009F6780E870E060E008959FEF80EC089578
:1016400000240A94161617061806090608950024A1
:101650000A9412161306140605060895092E03941B
:10166000000C11F4882352F0BB0F40F4BF2B11F48F
:1016700060FF04C06F5F7F4F8F4F9F4F089557FDEE
:101680009058440F551F59F05F3F71F04795880FF0
:1016900097FB991F61F09F3F79F087950895121687
:1016A00013061406551FF2CF4695F1DF08C0161633
:1016B00017061806991FF1CF8695710561050894E4
:1016C0000895E894BB2766277727CB0197F90895FB
:1016D0000E94DA0B08F48FEF08950E94800B0C949F
:1016E0002E0B0E94200B38F00E94270B20F0952330
:1016F00011F00C94170B0C941D0B11240C94620B1D
:101700000E943F0B70F3959FC1F3950F50E0551F5A
:10171000629FF001729FBB27F00DB11D639FAA2746
:10172000F00DB11DAA1F649F6627B00DA11D661F95
:10173000829F2227B00DA11D621F739FB00DA11DB6
:10174000621F839FA00D611D221F749F3327A00D70
:10175000611D231F849F600D211D822F762F6A2F0C
:1017600011249F5750409AF0F1F088234AF0EE0F71
:10177000FF1FBB1F661F771F881F91505040A9F79E
:101780009E3F510580F00C94170B0C94620B5F3F49
:10179000E4F3983ED4F3869577956795B795F795DA
:1017A000E7959F5FC1F7FE2B880F911D9695879552
:1017B00097F90895990F0008550FAA0BE0E8FEEF7E
:1017C00016161706E807F907C0F012161306E40705
:1017D000F50798F0621B730B840B950B39F40A26FE
:1017E00061F0232B242B252B21F408950A2609F4DC
:1017F000A140A6958FEF811D811D0895AA1BBB1BDB
:1018000051E107C0AA1FBB1FA617B70710F0A61B00
:10181000B70B881F991F5A95A9F780959095BC0121
:10182000CD010895A1E21A2EAA1BBB1BFD010DC01C
:10183000AA1FBB1FEE1FFF1FA217B307E407F50780
:1018400020F0A21BB30BE40BF50B661F771F881F5C
:10185000991F1A9469F760957095809590959B01F2
:10186000AC01BD01CF010895EE0FFF1F0590F4916B
:08187000E02D0994F894FFCF6C
:101878000900050008000400070003000600020034
:101888003F5C54797177303871003F393F5C547947
:10189800545C007C3F065B4F666D7D077F6F777CED
:0418A800395E7971BB
:107E0000112484B714BE81FFF0D085E080938100F7
:107E100082E08093C00088E18093C10086E0809377
:107E2000C20080E18093C4008EE0C9D0259A86E02C
:107E300020E33CEF91E0309385002093840096BBD3
:107E4000B09BFECF1D9AA8958150A9F7CC24DD24C4
:107E500088248394B5E0AB2EA1E19A2EF3E0BF2EE7
:107E6000A2D0813461F49FD0082FAFD0023811F036
:107E7000013811F484E001C083E08DD089C08234E0
:107E800011F484E103C0853419F485E0A6D080C0E4
:107E9000853579F488D0E82EFF2485D0082F10E0AE
:107EA000102F00270E291F29000F111F8ED06801E7
:107EB0006FC0863521F484E090D080E0DECF843638
:107EC00009F040C070D06FD0082F6DD080E0C81688
:107ED00080E7D80618F4F601B7BEE895C0E0D1E017
:107EE00062D089930C17E1F7F0E0CF16F0E7DF06D8
:107EF00018F0F601B7BEE89568D007B600FCFDCFD4
:107F0000A601A0E0B1E02C9130E011968C91119780
:107F100090E0982F8827822B932B1296FA010C0160
:107F200087BEE89511244E5F5F4FF1E0A038BF0790
:107F300051F7F601A7BEE89507B600FCFDCF97BE46
:107F4000E89526C08437B1F42ED02DD0F82E2BD052
:107F50003CD0F601EF2C8F010F5F1F4F84911BD097
:107F6000EA94F801C1F70894C11CD11CFA94CF0C13
:107F7000D11C0EC0853739F428D08EE10CD085E9AC
:107F80000AD08FE07ACF813511F488E018D01DD067
:107F900080E101D065CF982F8091C00085FFFCCF94
:107FA0009093C60008958091C00087FFFCCF809118
:107FB000C00084FD01C0A8958091C6000895E0E648
:107FC000F0E098E1908380830895EDDF803219F02E
:107FD00088E0F5DFFFCF84E1DECF1F93182FE3DFCA
:107FE0001150E9F7F2DF1F91089580E0E8DFEE27F6
:047FF000FF270994CA
:027FFE00040479
:0400000300007E007B
:00000001FF