:100000000C9462000C948A000C948A000C948A0070
:100010000C948A000C948A000C948A000C948A0038
:100020000C948A000C948A000C948A000C948A0028
:100030000C948A000C948A000C948A000C948A0018
:100040000C9445050C948A000C9413050C94ED0453
:100050000C948A000C948A000C948A000C948A00F8
:100060000C948A000C948A000000000023002600F3
:10007000290000000000240027002A0000000000E2
:10008000250028002B0004040404040404040202D4
:100090000202020203030303030301020408102007
:1000A0004080010204081020010204081020000012
:1000B0000008000201000003040700000000000027
:1000C00000008F0511241FBECFEFD8E0DEBFCDBFEB
:1000D00011E0A0E0B1E0E6EAF9E102C005900D927E
:1000E000A234B107D9F722E0A2E4B1E001C01D9229
:1000F000A53AB207E1F710E0C2E6D0E004C02197CC
:10010000FE010E94CB0CC136D107C9F70E94A5069B
:100110000C94D10C0C940000CB01BA0120E030E02B
:1001200040E05FE30E94280C20E030E040E85FE31D
:100130000E94860A9B01AC0160E070E08CE092E4D2
:100140000E94F20A20E030E04CE553E40E94860A67
:100150000E94640BCB010895CB01BA0120E030E08E
:1001600040E05FE30E94280C20E030E040E85FE3DD
:100170000E94860A9B01AC0160E070E08CE392E48F
:100180000E94F20A20E030E040E553E40E94860A33
:100190000E94640BCB010895CB01BA0123E333E342
:1001A00043E35FE30E94280C20E030E040E85FE397
:1001B0000E94860A9B01AC0160E070E08CE892E44A
:1001C0000E94F20A20E030E049E353E40E94860AEC
:1001D0000E94640BCB010895CB01BA0120E030E00E
:1001E00040E85FE30E94860A9B01AC0160E070E09A
:1001F00085E793E40E94F20A20E030E040E251E417
:100200000E94860A0E94640BCB010895FC01538D65
:10021000448D252F30E0842F90E0821B930B5417E0
:1002200010F0CF96089501970895FC01918D828D6D
:10023000981761F0A28DAE0FBF2FB11D5D968C9106
:10024000928D9F5F9F73928F90E008958FEF9FEF45
:100250000895FC01918D828D981731F0828DE80F01
:10026000F11D858D90E008958FEF9FEF0895FC01BB
:10027000918D228D892F90E0805C9F4F821B910988
:100280008F7399270895FC01A48DA80FB92FB11D74
:10029000A35ABF4F2C91848D90E001968F739927BC
:1002A000848FA689B7892C93A089B1898C9183709A
:1002B00080648C93938D848D981306C00288F38993
:1002C000E02D80818F7D80830895EF92FF920F93C0
:1002D0001F93CF93DF93EC0181E0888F9B8D8C8DF2
:1002E00098131AC0E889F989808185FF15C09FB7E6
:1002F000F894EE89FF896083E889F98980818370A9
:10030000806480839FBF81E090E0DF91CF911F9157
:100310000F91FF90EF900895F62E0B8D10E00F5F78
:100320001F4F0F731127E02E8C8D8E110CC00FB64E
:1003300007FCFACFE889F989808185FFF5CFCE01E6
:100340000E944301F1CFEB8DEC0FFD2FF11DE35A1D
:10035000FF4FF0829FB7F8940B8FEA89FB89808169
:100360008062CFCFCF93DF93EC01888D8823B9F0E3
:10037000AA89BB89E889F9898C9185FD03C08081B0
:1003800086FD0DC00FB607FCF7CF8C9185FFF2CF2D
:10039000808185FFEDCFCE010E944301E9CFDF913F
:1003A000CF9108958BE491E00E94370121E0892BE1
:1003B00009F420E0822F089580E090E0892B29F055
:1003C0000E94D20181110C9400000895AF92BF9257
:1003D000CF92DF92EF92FF920F931F93CF93DF9311
:1003E0006C017B018B01040F151FEB015E01AE1840
:1003F000BF08C017D10759F06991D601ED91FC9162
:100400000190F081E02DC6010995892B79F7C5018E
:10041000DF91CF911F910F91FF90EF90DF90CF90E0
:10042000BF90AF900895833081F028F4813099F027
:100430008230A9F008958730A9F08830C9F084305F
:10044000B1F4809180008F7D03C0809180008F7710
:1004500080938000089584B58F7784BD089584B516
:100460008F7DFBCF8091B0008F778093B00008958F
:100470008091B0008F7DF9CF1F93CF93DF93282F0A
:1004800030E0F901E255FF4F8491F901E656FF4F44
:10049000D491F901EA57FF4FC491CC23A9F0162F4C
:1004A00081110E941302EC2FF0E0EE0FFF1FE458C1
:1004B000FF4FA591B4918FB7F894EC91111108C03A
:1004C000D095DE23DC938FBFDF91CF911F910895EC
:1004D000DE2BF8CFCF93DF9390E0FC01E656FF4F81
:1004E00024918A579F4FFC0184918823D1F090E09A
:1004F000880F991FFC01EE58FF4FA591B491FC01A4
:10050000E458FF4FC591D49161110EC09FB7F89484
:100510008C91E22FE0958E238C932881E223E8834F
:100520009FBFDF91CF9108958FB7F894EC91E22BA4
:10053000EC938FBFF6CF1F93CF93DF93182FEB0170
:1005400061E00E946A02209739F460E0812FDF9118
:10055000CF911F910C943C02CF3FD10511F461E083
:10056000F5CFE12FF0E0E255FF4FE491E33031F1B8
:1005700040F4E130B1F0E230E1F0C038D1057CF771
:10058000E4CFE73029F1E83059F1E430B1F7809158
:100590008000806280938000D0938B00C0938A009B
:1005A00004C084B5806884BDC7BDDF91CF911F9121
:1005B000089584B5806284BDC8BDF7CF8091800066
:1005C000806880938000D0938900C0938800EDCF2D
:1005D0008091B00080688093B000C093B300E5CFF5
:1005E0008091B00080628093B000C093B400DDCFF2
:1005F0008E3008F08E508770806480937C008091EC
:100600007A00806480937A0080917A0086FDFCCF26
:10061000809178009091790008953FB7F894809187
:10062000470190914801A0914901B0914A0126B536
:10063000A89B05C02F3F19F00196A11DB11D3FBF1A
:10064000BA2FA92F982F8827BC01CD01620F711DE9
:10065000811D911D42E0660F771F881F991F4A95E3
:10066000D1F708958F929F92AF92BF92CF92DF926F
:10067000EF92FF924B015C010E940D036B017C0124
:100680000E940D036C197D098E099F09683E734015
:1006900081059105A8F321E0821A9108A108B1080B
:1006A00088EEC80E83E0D81EE11CF11C8114910471
:1006B000A104B10429F7FF90EF90DF90CF90BF9095
:1006C000AF909F908F9008952FB7F8946091430159
:1006D0007091440180914501909146012FBF08958A
:1006E000FC01838194818230910538F0880F991F35
:1006F000880F991F05970197F1F70895EF92FF92E0
:100700000F931F93CF93DF93EC01062F18E061E066
:1007100088810E946A02CE010E947003E02EF12CB3
:1007200060E000FF61E089810E946A02CE010E94C0
:10073000700360E088810E946A02CE010E9470030B
:10074000F594E7940E2D115011F761E088810E9415
:100750006A0260E089810E946A02CE010E947003F1
:1007600060E088810E946A02CE010E9470032981A4
:1007700030E0F901E255FF4F8491F901E656FF4F51
:100780000491F901EA57FF4F1491112349F18111A6
:100790000E941302E12FF0E0EE0FFF1FE859FF4F18
:1007A000A591B491EC910E2311E009F410E0111120
:1007B00004C061E089810E946A02CE010E94700338
:1007C00061E088810E946A02CE010E947003812F3D
:1007D0008170DF91CF911F910F91FF90EF9008955D
:1007E00010E0E7CFCF93DF93EC0161E089810E94B5
:1007F0006A02CE010E94700360E088810E946A0252
:10080000CE010E94700360E089810E946A02CE01DD
:10081000DF91CF910C947003CF93DF93EC0161E0F3
:1008200089810E946A02CE01DF91CF910C947003FE
:10083000CF92DF92EF92FF920F931F93CF93DF93AC
:10084000EC01F62EC72EE42E122F0E940C0460E459
:10085000CE010E947E03CE010E94F203CE010E94CF
:100860000C0460EC610FCE010E947E03DF2C0F2D83
:100870001C2DF80161918F01CE010E947E03802F13
:100880008D198E15B0F3CE010E94F203CE010E94A5
:100890000C046A816F706058CE010E947E03CE0105
:1008A000DF91CF911F910F91FF90EF90DF90CF904C
:1008B0000C94F203CF93DF9300D000D0CDB7DEB716
:1008C00019821A821B821C8220E044E0BE016F5F05
:1008D0007F4F82E592E00E94180420E044E061EA44
:1008E00072E082E592E00E941804FFCF4F925F927F
:1008F0007F928F929F92AF92BF92CF92DF92EF92B0
:10090000FF920F931F93CF93DF9300D000D0CDB70A
:10091000DEB75C016A01422F202F30E067FF02C082
:10092000619531E0E42EF12CF7013197CE0101966B
:100930004C01C114D10441F530E0832F90E08E17B3
:100940009F0734F4880D991DDC011C923F5FF5CFA1
:10095000E80DF91D8FE38083B401C5010E941804DE
:100960000F900F900F900F90DF91CF911F910F91EB
:10097000FF90EF90DF90CF90BF90AF909F908F90BF
:100980007F905F904F900895E80EF91E462E660FF7
:10099000550880E4782EC601B2010E94950C8C01A6
:1009A000982FD7011197811109C0C114D10431F4D6
:1009B0001C92332361F07C9230E009C0045E1E4F2C
:1009C000F80180818C93911102C0CD2891F36B01C5
:1009D0007D018A169B06F9F6BFCF1F920F920FB6C4
:1009E0000F9211242F933F934F935F936F937F93B5
:1009F0008F939F93AF93BF93EF93FF938BE491E01B
:100A00000E944301FF91EF91BF91AF919F918F9110
:100A10007F916F915F914F913F912F910F900FBEFA
:100A20000F901F9018951F920F920FB60F921124DE
:100A30002F938F939F93EF93FF93E0915B01F0913E
:100A40005C018081E0916101F091620182FD1BC037
:100A50009081809164018F5F8F732091650182176F
:100A600041F0E0916401F0E0E55BFE4F958F8093EB
:100A70006401FF91EF919F918F912F910F900FBE85
:100A80000F901F9018958081F4CF1F920F920FB690
:100A90000F9211242F933F938F939F93AF93BF9304
:100AA0008091430190914401A0914501B09146018C
:100AB0003091420123E0230F2D3758F50196A11DF7
:100AC000B11D209342018093430190934401A09370
:100AD0004501B09346018091470190914801A09152
:100AE0004901B0914A010196A11DB11D80934701B2
:100AF00090934801A0934901B0934A01BF91AF91EF
:100B00009F918F913F912F910F900FBE0F901F904B
:100B1000189526E8230F0296A11DB11DD2CF8F9202
:100B20009F92AF92BF92CF92DF92EF92FF92CF93BC
:100B3000DF93EBE4F1E01382128288EE93E0A0E011
:100B4000B0E084839583A683B78380E391E09183AB
:100B5000808385EC90E09587848784EC90E097878C
:100B6000868780EC90E0918B808B81EC90E0938B7A
:100B7000828B82EC90E0958B848B86EC90E0978B57
:100B8000868B118E128E138E148EE8EEF1E0108299
:100B90001182148213823BE035832CE0268384E6A5
:100BA00090E0908787831186128615861486CCE89C
:100BB000D0E0D787C687118A108AACEAB0E0B38B41
:100BC000A28B158A148A6CEC70E0778B668B118E81
:100BD000108E4CEE50E0538F428F158E148E17AA54
:100BE00016AA11AE10AE13AE12AE80901001909006
:100BF0001101A0901201B090130180923C029092DA
:100C00003D02A0923E02B0923F02C0901401D090EB
:100C10001501E0901601F0901701C0924002D092A9
:100C20004102E0924202F0924302E9E4F2E01082D3
:100C300011821482138235832683908787831186DD
:100C4000128615861486D787C687118A108AB38BB9
:100C5000A28B158A148A778B668B118E108E538F18
:100C6000428F158E148E17AA16AA11AE10AE13AEAF
:100C700012AE80929D0290929E02A0929F02B0922C
:100C8000A002C092A102D092A202E092A302F0922E
:100C9000A402A0E0B1E04D915C91119755AF44AF33
:100CA00014964D915C91159750938A024093890256
:100CB00018964D915C91199750938E0240938D0236
:100CC0001C964D915C911D97509392024093910216
:100CD00012964D915C91139757AF46AF16964D9172
:100CE0005C91179750938C0240938B021A964D910A
:100CF0005C911B975093900240938F021E964D91EA
:100D00005C915093940240939302C4E4D2E0388300
:100D100029839C838B8360E08BE00E946A0260E001
:100D200089810E946A0260E088810E943C0260E042
:100D30008981DF91CF91FF90EF90DF90CF90BF90AE
:100D4000AF909F908F900C943C02CF93DF93CDB7E0
:100D5000DEB7CF58D1090FB6F894DEBF0FBECDBFB6
:100D6000789484B5826084BD84B5816084BD85B586
:100D7000826085BD85B5816085BD80916E00816092
:100D800080936E0010928100809181008260809338
:100D9000810080918100816080938100809180003A
:100DA0008160809380008091B10084608093B10065
:100DB0008091B00081608093B00080917A0084605F
:100DC00080937A0080917A00826080937A0080918B
:100DD0007A00816080937A0080917A0080688093A5
:100DE0007A001092C10061E089E00E946A0261E02D
:100DF00088E00E946A0261E087E00E946A0261E086
:100E000086E00E946A0261E085E00E946A0261E079
:100E100084E00E946A0261E083E00E946A0261E06D
:100E200082E00E946A0261E08AE00E946A0261E058
:100E300089E00E943C0261E088E00E943C0261E09F
:100E400087E00E943C0261E086E00E943C0261E093
:100E500085E00E943C0261E084E00E943C0261E087
:100E600083E00E943C0261E082E00E943C0261E07B
:100E70008AE00E943C026FEF70E08AE00E949B02D1
:100E80008CE08093460234E6E32EF12C00E024E06F
:100E9000A7016AE084E492E00E94760421E0E21A6D
:100EA000F108A0F7AE01495C5F4FC258DF4F59838C
:100EB0004883CE57D0408EE090E09093800280939C
:100EC0007F028AE090E0909382028093810285E124
:100ED00090E0909384028093830209E412E097E704
:100EE000C92E92E0D92E29E5822E22E0922E712C75
:100EF00060E0D801DC968C910E943C0260E0F80131
:100F000086AD0E943C0266E970E080E090E00E94BD
:100F1000320384E0A82EB12CF12CE12C8EE00E944B
:100F2000F802E80EF91EF1E0AF1AB108B9F761E076
:100F3000D801DC968C910E943C0261E0F80186ADFC
:100F40000E943C02D601ED92FD926D01B7E2EB1AD0
:100F5000B2E0FB0AE1E2EE16E1E0FE0608F0D1C2E3
:100F6000E1E0F0E0D6015D96FC93EE935C97772488
:100F7000739466E970E080E090E00E9432030C5FB9
:100F80001F4F8016910609F0B3CF711018C0A196BB
:100F90001CAE1DAE1EAE1FAEA19720E044E0BE0108
:100FA000635A7F4F84E492E00E94180420E044E0FA
:100FB00068E171E084E492E00E941804FFCF8CE5C0
:100FC000E9E4F2E0DE01119601900D928A95E1F7D5
:100FD000A0918102B0918202E0918302F09184029B
:100FE000A0908502B09086022091870230918802FD
:100FF0008091890290918A0240918B0250918C02DB
:1010000060918D0270918E0200918F02109190027A
:10101000E0909102F090920280909302909094025E
:10102000C0907F02D0908002D0921F02C0921E0218
:10103000B0932102A0932002F0932302E0932202B6
:10104000FE01BF96A6E1B2E0C190D190CD92DD92B3
:10105000C48CD58C5D96DC92CE925C97C258DF4FE3
:10106000C880D980CE57D040EC15FD0569F7B09205
:101070002502A09224029093290280932802709363
:101080002D0260932C02F0923102E09230023093F4
:1010900027022093260250932B0240932A0210939A
:1010A0002F0200932E02909233028092320210910E
:1010B0004F0200914E0260E0802F0E946A0260E0C1
:1010C000812F0E946A0260E0802F0E943C0260E053
:1010D000812F0E943C02009352021093530284E637
:1010E00090E090935602809355028DE080935402D5
:1010F000E4E3F2E090E080E0219131916C01213055
:10110000310519F0CC24CA94DC2C01968430910569
:1011100031F43FEFC316D30631F40E945A042FEF87
:10112000C216D20649F3F601EE0FFF1FEC5CFD4F2D
:10113000808191817601019719F0EE24EA94FE2CCA
:10114000C6010196F601EE0FFF1FEA5CFD4F8430E9
:10115000910541F0219131912130310509F47C0153
:101160000196F5CF4FEFE416F406B9F28091F6013F
:101170009091F701A091F801B091F90180930602D6
:1011800090930702A0930802B09309028091FA019C
:101190009091FB01A091FC01B091FD0180930A02A6
:1011A00090930B02A0930C02B0930D028091FE016C
:1011B0009091FF01A0910002B091010280930E0274
:1011C00090930F02A0931002B0931102809102023B
:1011D00090910302A0910402B09105028093120243
:1011E00090931302A0931402B093150203E021E040
:1011F00050E040E06AE082E592E00E9476046FEF02
:1012000070E0809120020E949B0216015FE0250E93
:10121000311CF101EE0FFF1FEE0FFF1FE851FE4FD3
:1012200060E080810E943C02C701880F991F880FEF
:10123000991FCA57DF4F99838883C658D040FC0155
:10124000E851FE4F60E086AD0E943C020E946403BC
:10125000C857DF4F688379838A839B83C858D040FF
:101260000E946403C058DF4F688379838A839B831D
:10127000C058D040AFEFB0E0CC57DF4FB983A88360
:10128000C458D040812C912C5401EC18FD08C701A2
:10129000880F991F880F991FFC01E85FFD4FC45705
:1012A000DF4FF983E883CC58D0409C012A5F3D4F43
:1012B000C257DF4F39832883CE58D0400E94640341
:1012C000C857DF4F288139814A815B81C858D04097
:1012D000621B730B840B950B61367A4E8105910569
:1012E00008F0E5C0412C512C3201C12CD12C7601E3
:1012F0000E946403C058DF4F288139814A815B8195
:10130000C058D040621B730B840B950B693C710570
:101310008105910510F5809122020E94F802092EA4
:10132000000CAA0BBB0BC80ED91EEA1EFB1E3FEF1A
:10133000431A530A630A730ACC57DF4F68817981D5
:10134000C458D040809120020E949B0260E570E06A
:1013500080E090E00E943203CBCFC701B601A30129
:1013600092010E94A90C69017A0129013A01C4572E
:10137000DF4FA881B981CC58D0408D919C91959533
:101380008795C257DF4FA881B981CE58D040ED91E3
:10139000FC91B501A40188519E4F0995CC57DF4FB0
:1013A00099838883C458D040BAE5CB16D104E104B0
:1013B000F10438F06FEF70E0809120020E949B02F0
:1013C000ACCEEEE4CE16D104E104F10450F420E0FA
:1013D00030E040E85FE3C501B4010E94860A4B019A
:1013E0005C01D701C60183559109A109B10905978F
:1013F000A105B10550F420E030E040E85FE3C5010D
:10140000B4010E94850A4B015C01C701B6010E942C
:101410009A0B23E938E144E250E40E94280C0E9430
:10142000640B00E024E0AB016AE082E592E00E94F8
:101430007604EE961FAEEE970DE510E00C0F1D1F23
:10144000005E1F4FC301B2012AE030E040E050E0EF
:101450000E94A90C29013A01605DD8016E938D01AB
:10146000411451046104710469F7109769F0FD019A
:1014700001900020E9F73197AF014A1B5B0BBD01DA
:101480008BE491E00E94E60142E050E06EE371E0FF
:101490008BE491E00E94E6010E946403C058DF4F94
:1014A000688379838A839B83C058D04007CF6FEFCE
:1014B00070E0809120020E949B02F101EE0FFF1F5D
:1014C000EE0FFF1FE851FE4F61E080810E943C0259
:1014D000CA57DF4FE881F981C658D040E851FE4F26
:1014E00061E086AD0E943C0280E090E0892B09F427
:1014F000E2CC0E94D201882309F4DDCC0E940000D6
:10150000D1CCF601158E148E34CD5058BB27AA27A6
:101510000E949D0A0C94EE0B0E94E00B38F00E9492
:10152000E70B20F039F49F3F19F426F40C94DD0BFF
:101530000EF4E095E7FB0C94D70BE92F0E94FF0B0C
:1015400058F3BA17620773078407950720F079F4F8
:10155000A6F50C94210C0EF4E0950B2EBA2FA02DBD
:101560000B01B90190010C01CA01A0011124FF2750
:10157000591B99F0593F50F4503E68F11A16F0404B
:10158000A22F232F342F4427585FF3CF469537954A
:101590002795A795F0405395C9F77EF41F16BA0B0F
:1015A000620B730B840BBAF09150A1F0FF0FBB1FBD
:1015B000661F771F881FC2F70EC0BA0F621F731F06
:1015C000841F48F4879577956795B795F7959E3F63
:1015D00008F0B0CF9395880F08F09927EE0F9795F4
:1015E000879508950E94060B0C94EE0B0E94E70B62
:1015F00058F00E94E00B40F029F45F3F29F00C9472
:10160000D70B51110C94220C0C94DD0B0E94FF0B94
:1016100068F39923B1F3552391F3951B550BBB2721
:10162000AA2762177307840738F09F5F5F4F220F66
:10163000331F441FAA1FA9F335D00E2E3AF0E0E85D
:1016400032D091505040E695001CCAF72BD0FE2FA7
:1016500029D0660F771F881FBB1F2617370748073B
:10166000AB07B0E809F0BB0B802DBF01FF279358F3
:101670005F4F3AF09E3F510578F00C94D70B0C94D5
:10168000220C5F3FE4F3983ED4F3869577956795F7
:10169000B795F7959F5FC9F7880F911D9695879528
:1016A00097F90895E1E0660F771F881FBB1F621747
:1016B00073078407BA0720F0621B730B840BBA0B05
:1016C000EE1F88F7E09508950E946B0B6894B111A6
:1016D0000C94220C08950E94070C88F09F5798F0F4
:1016E000B92F9927B751B0F0E1F0660F771F881F27
:1016F000991F1AF0BA95C9F714C0B13091F00E9441
:10170000210CB1E008950C94210C672F782F8827C5
:10171000B85F39F0B93FCCF3869577956795B39567
:10172000D9F73EF490958095709561957F4F8F4FD6
:101730009F4F0895E89409C097FB3EF490958095DB
:10174000709561957F4F8F4F9F4F9923A9F0F92F87
:1017500096E9BB279395F695879577956795B79505
:10176000F111F8CFFAF4BB0F11F460FF1BC06F5FEB
:101770007F4F8F4F9F4F16C0882311F096E911C0FD
:10178000772321F09EE8872F762F05C0662371F01E
:1017900096E8862F70E060E02AF09A95660F771F32
:1017A000881FDAF7880F9695879597F9089597F926
:1017B0009F6780E870E060E008959FEF80EC0895F7
:1017C00000240A9416161706180609060895002420
:1017D0000A9412161306140605060895092E03949A
:1017E000000C11F4882352F0BB0F40F4BF2B11F40E
:1017F00060FF04C06F5F7F4F8F4F9F4F089557FD6D
:101800009058440F551F59F05F3F71F04795880F6E
:1018100097FB991F61F09F3F79F087950895121605
:1018200013061406551FF2CF4695F1DF08C01616B1
:1018300017061806991FF1CF869571056105089462
:101840000895E894BB2766277727CB0197F9089579
:101850000E943B0C0C94EE0B0E94E00B38F00E94AF
:10186000E70B20F0952311F00C94D70B0C94DD0BB3
:1018700011240C94220C0E94FF0B70F3959FC1F36E
:10188000950F50E0551F629FF001729FBB27F00D2E
:10189000B11D639FAA27F00DB11DAA1F649F662783
:1018A000B00DA11D661F829F2227B00DA11D621FD2
:1018B000739FB00DA11D621F839FA00D611D221F8C
:1018C000749F3327A00D611D231F849F600D211D70
:1018D000822F762F6A2F11249F5750409AF0F1F0F3
:1018E00088234AF0EE0FFF1FBB1F661F771F881F5C
:1018F00091505040A9F79E3F510580F00C94D70BB2
:101900000C94220C5F3FE4F3983ED4F386957795D0
:101910006795B795F795E7959F5FC1F7FE2B880F01
:10192000911D9695879597F90895AA1BBB1B51E1C8
:1019300007C0AA1FBB1FA617B70710F0A61BB70B3F
:10194000881F991F5A95A9F780959095BC01CD01E4
:101950000895A1E21A2EAA1BBB1BFD010DC0AA1FF0
:10196000BB1FEE1FFF1FA217B307E407F50720F008
:10197000A21BB30BE40BF50B661F771F881F991F83
:101980001A9469F760957095809590959B01AC01CC
:10199000BD01CF010895EE0FFF1F0590F491E02DDA
:0619A0000994F894FFCF4A
:1019A6000900050008000400070003000600020005
:1019B6003F5C547971773038545C007C3F065B4F4E
:1019C600666D7D077F6F777C395E79710000000058
:1019D6006501E6010601B2013701150129010D0A6B
:0219E6000000FF
:00000001FF
