:100000000C9462000C948A000C948A000C948A0070
:100010000C948A000C948A000C948A000C948A0038
:100020000C948A000C948A000C948A000C948A0028
:100030000C948A000C948A000C948A000C948A0018
:100040000C94E9030C948A000C948A000C948A00A6
:100050000C948A000C948A000C948A000C948A00F8
:100060000C948A000C948A000000000023002600F3
:10007000290000000000240027002A0000000000E2
:10008000250028002B0004040404040404040202D4
:100090000202020203030303030301020408102007
:1000A0004080010204081020010204081020000012
:1000B0000008000201000003040700000000000027
:1000C0000000330411241FBECFEFD8E0DEBFCDBF48
:1000D00011E0A0E0B1E0E2E1F6E102C005900D928E
:1000E000AC32B107D9F721E0ACE2B1E001C01D921A
:1000F000A23FB207E1F710E0C2E6D0E004C02197CA
:10010000FE010E94010BC136D107C9F70E941D05EF
:100110000C94070B0C940000CB01BA0120E030E0F6
:1001200040E05FE30E945E0A20E030E040E85FE3E9
:100130000E94BC089B01AC0160E070E08CE092E49E
:100140000E94280920E030E04CE553E40E94BC08FE
:100150000E949A09CB010895CB01BA0120E030E05A
:1001600040E05FE30E945E0A20E030E040E85FE3A9
:100170000E94BC089B01AC0160E070E08CE392E45B
:100180000E94280920E030E040E553E40E94BC08CA
:100190000E949A09CB010895CB01BA0123E333E30E
:1001A00043E35FE30E945E0A20E030E040E85FE363
:1001B0000E94BC089B01AC0160E070E08CE892E416
:1001C0000E94280920E030E049E353E40E94BC0883
:1001D0000E949A09CB010895CB01BA0120E030E0DA
:1001E00040E85FE30E94BC089B01AC0160E070E066
:1001F00085E793E40E94280920E030E040E251E4E2
:100200000E94BC080E949A09CB010895833081F0B6
:1002100028F4813099F08230A9F008958730A9F050
:100220008830C9F08430B1F4809180008F7D03C0A4
:10023000809180008F7780938000089584B58F77B8
:1002400084BD089584B58F7DFBCF8091B0008F77FA
:100250008093B00008958091B0008F7DF9CF1F93F7
:10026000CF93DF93282F30E0F901E255FF4F8491BF
:10027000F901E656FF4FD491F901EA57FF4FC491B7
:10028000CC23A9F0162F81110E940601EC2FF0E07B
:10029000EE0FFF1FE458FF4FA591B4918FB7F8946C
:1002A000EC91111108C0D095DE23DC938FBFDF9154
:1002B000CF911F910895DE2BF8CFCF93DF9390E07D
:1002C000FC01E656FF4F24918A579F4FFC01849111
:1002D0008823D1F090E0880F991FFC01EE58FF4F62
:1002E000A591B491FC01E458FF4FC591D4916111DF
:1002F0000EC09FB7F8948C91E22FE0958E238C93DB
:100300002881E223E8839FBFDF91CF9108958FB7C3
:10031000F894EC91E22BEC938FBFF6CF1F93CF9321
:10032000DF93182FEB0161E00E945D01209739F403
:1003300060E0812FDF91CF911F910C942F01CF3F6F
:10034000D10511F461E0F5CFE12FF0E0E255FF4F68
:10035000E491E33031F140F4E130B1F0E230E1F02A
:10036000C038D1057CF7E4CFE73029F1E83059F106
:10037000E430B1F780918000806280938000D09358
:100380008B00C0938A0004C084B5806884BDC7BD5B
:10039000DF91CF911F91089584B5806284BDC8BD5F
:1003A000F7CF80918000806880938000D09389008F
:1003B000C0938800EDCF8091B00080688093B0003A
:1003C000C093B300E5CF8091B00080628093B0000D
:1003D000C093B400DDCF8E3008F08E5087708064FB
:1003E00080937C0080917A00806480937A00809171
:1003F0007A0086FDFCCF8091780090917900089575
:100400003FB7F8948091310190913201A09133016E
:10041000B091340126B5A89B05C02F3F19F0019675
:10042000A11DB11D3FBFBA2FA92F982F8827BC014E
:10043000CD01620F711D811D911D42E0660F771F76
:10044000881F991F4A95D1F708958F929F92AF9276
:10045000BF92CF92DF92EF92FF924B015C010E941C
:1004600000026B017C010E9400026C197D098E095B
:100470009F09683E734081059105A8F321E0821A27
:100480009108A108B10888EEC80E83E0D81EE11CCF
:10049000F11C81149104A104B10429F7FF90EF909D
:1004A000DF90CF90BF90AF909F908F9008952FB71F
:1004B000F89460912D0170912E0180912F019091FF
:1004C00030012FBF0895FC01838194818230910512
:1004D00038F0880F991F880F991F05970197F1F73A
:1004E0000895EF92FF920F931F93CF93DF93EC0148
:1004F000062F18E061E088810E945D01CE010E9414
:100500006302E02EF12C60E000FF61E089810E942F
:100510005D01CE010E94630260E088810E945D015E
:10052000CE010E946302F594E7940E2D115011F74D
:1005300061E088810E945D0160E089810E945D0127
:10054000CE010E94630260E088810E945D01CE01BD
:100550000E946302298130E0F901E255FF4F849146
:10056000F901E656FF4F0491F901EA57FF4F149144
:10057000112349F181110E940601E12FF0E0EE0FF5
:10058000FF1FE859FF4FA591B491EC910E2311E0A4
:1005900009F410E0111104C061E089810E945D013D
:1005A000CE010E94630261E088810E945D01CE015C
:1005B0000E946302812F8170DF91CF911F910F9173
:1005C000FF90EF90089510E0E7CFCF93DF93EC0119
:1005D00061E089810E945D01CE010E94630260E0BA
:1005E00088810E945D01CE010E94630260E08981E2
:1005F0000E945D01CE01DF91CF910C946302CF93F5
:10060000DF93EC0161E089810E945D01CE01DF9101
:10061000CF910C946302CF92DF92EF92FF920F93EF
:100620001F93CF93DF93EC01F62EC72EE42E122FEB
:100630000E94FF0260E4CE010E947102CE010E947E
:10064000E502CE010E94FF0260EC610FCE010E9424
:100650007102DF2C0F2D1C2DF80161918F01CE014D
:100660000E947102802F8D198E15B0F3CE010E9469
:10067000E502CE010E94FF026A816F706058CE01D0
:100680000E947102CE01DF91CF911F910F91FF90D7
:10069000EF90DF90CF900C94E502CF93DF9300D0E2
:1006A00000D0CDB7DEB719821A821B821C8220E0EF
:1006B00044E0BE016F5F7F4F0E940B030F900F90CD
:1006C0000F900F90DF91CF9108958FE991E00E94F4
:1006D0004D0320E044E06EEE71E08FE991E00E946E
:1006E0000B03FFCF4F925F927F928F929F92AF92B8
:1006F000BF92CF92DF92EF92FF920F931F93CF930F
:10070000DF9300D000D0CDB7DEB75C016A01422F85
:10071000202F30E067FF02C0619531E0E42EF12C1C
:10072000F7013197CE0101964C01C114D10441F576
:1007300030E0832F90E08E179F0734F4880D991DC9
:10074000DC011C923F5FF5CFE80DF91D8FE380833C
:10075000B401C5010E940B030F900F900F900F90F2
:10076000DF91CF911F910F91FF90EF90DF90CF908D
:10077000BF90AF909F908F907F905F904F90089523
:10078000E80EF91E462E660F550880E4782EC60145
:10079000B2010E94CB0A8C01982FD70111978111C9
:1007A00009C0C114D10431F41C92332361F07C924E
:1007B00030E009C0045E1E4FF80180818C939111D6
:1007C00002C0CD2891F36B017D018A169B06F9F6D4
:1007D000BFCF1F920F920FB60F9211242F933F930A
:1007E0008F939F93AF93BF9380912D0190912E0192
:1007F000A0912F01B091300130912C0123E0230F03
:100800002D3758F50196A11DB11D20932C01809321
:100810002D0190932E01A0932F01B0933001809170
:10082000310190913201A0913301B09134010196D0
:10083000A11DB11D8093310190933201A09333012A
:10084000B0933401BF91AF919F918F913F912F91C0
:100850000F900FBE0F901F90189526E8230F029659
:10086000A11DB11DD2CF8F929F92AF92BF92CF9216
:10087000DF92EF92FF92CF93DF93E5E3F1E01082F6
:100880001182148213823BE035832CE0268384E6B8
:1008900090E0908787831186128615861486CCE8AF
:1008A000D0E0D787C687118A108AACEAB0E0B38B54
:1008B000A28B158A148A6CEC70E0778B668B118E94
:1008C000108E4CEE50E0538F428F158E148E17AA67
:1008D00016AA11AE10AE13AE12AE80901001909019
:1008E0001101A0901201B0901301809289019092A1
:1008F0008A01A0928B01B0928C01C0901401D0901B
:100900001501E0901601F0901701C0928D01D09270
:100910008E01E0928F01F0929001E6E9F1E0108201
:1009200011821482138235832683908787831186F0
:10093000128615861486D787C687118A108AB38BCC
:10094000A28B158A148A778B668B118E108E538F2B
:10095000428F158E148E17AA16AA11AE10AE13AEC2
:1009600012AE8092EA019092EB01A092EC01B0925B
:10097000ED01C092EE01D092EF01E092F001F09211
:10098000F101A0E0B1E04D915C91119755AF44AFFA
:1009900014964D915C9115975093D7014093D601D1
:1009A00018964D915C9119975093DB014093DA01B1
:1009B0001C964D915C911D975093DF014093DE0191
:1009C00012964D915C91139757AF46AF16964D9185
:1009D0005C9117975093D9014093D8011A964D9185
:1009E0005C911B975093DD014093DC011E964D9165
:1009F0005C915093E1014093E001C1E9D1E038837B
:100A000029839C838B8360E08BE00E945D0160E022
:100A100089810E945D0160E088810E942F0160E071
:100A20008981DF91CF91FF90EF90DF90CF90BF90C1
:100A3000AF909F908F900C942F01CF93DF93CDB701
:100A4000DEB7CE56D1090FB6F894DEBF0FBECDBFCC
:100A5000789484B5826084BD84B5816084BD85B599
:100A6000826085BD85B5816085BD80916E008160A5
:100A700080936E001092810080918100826080934B
:100A8000810080918100816080938100809180004D
:100A90008160809380008091B10084608093B10078
:100AA0008091B00081608093B00080917A00846072
:100AB00080937A0080917A00826080937A0080919E
:100AC0007A00816080937A0080917A0080688093B8
:100AD0007A001092C10061E089E00E945D0161E04E
:100AE00088E00E945D0161E087E00E945D0161E0B5
:100AF00086E00E945D0161E085E00E945D0161E0A9
:100B000084E00E945D0161E083E00E945D0161E09C
:100B100082E00E945D0161E08AE00E945D0161E087
:100B200089E00E942F0161E088E00E942F0161E0CE
:100B300087E00E942F0161E086E00E942F0161E0C2
:100B400085E00E942F0161E084E00E942F0161E0B6
:100B500083E00E942F0161E082E00E942F0161E0AA
:100B60008AE00E942F016FEF70E08AE00E948E0100
:100B70008CE08093930124E6E22EF12C00E024E047
:100B8000A7016AE081E991E00E94720321E0E21A84
:100B9000F108A0F7AE01495C5F4F6F965FAF4EAFB3
:100BA0006F978EE090E09093CD018093CC01AAE006
:100BB000B0E0B093CF01A093CE01E5E1F0E0F09377
:100BC000D101E093D00106E911E094ECC92E91E047
:100BD000D92E912C60E0D801DC968C910E942F01D7
:100BE00060E0F80186AD0E942F0166E970E080E0C8
:100BF00090E00E94250284E0A82EB12CF12CE12C7B
:100C00008EE00E94EB01E80EF91EF1E0AF1AB10888
:100C1000B9F761E0D801DC968C910E942F0161E068
:100C2000F80186AD0E942F01D601ED92FD926D0173
:100C3000B7E2EB1AB2E0FB0AEEEFEE16F10408F0B1
:100C400094C2E1E0F0E0D6015D96FC93EE935C97F0
:100C50009924939466E970E080E090E00E94250278
:100C60000C5F1F4F26EA31E02017310709F0B2CFA1
:100C700091100DC081E991E00E944D0320E044E015
:100C800068E171E081E991E00E940B03FFCF8CE500
:100C9000E6E9F1E0DE01119601900D928A95E1F707
:100CA000A091CE01B091CF01E091D001F091D1019E
:100CB0008090D2019090D301A090D401B090D50142
:100CC0008091D6019091D7012091D8013091D9011E
:100CD0004091DA015091DB010091DC011091DD01BE
:100CE000E090DE01F090DF016091E0017091E101A0
:100CF000C090CC01D090CD01D0926C01C0926B011C
:100D0000B0936E01A0936D01F0937001E0936F01B9
:100D1000FE01BF96A3E6B1E0C190D190CD92DD92E5
:100D2000C48CD58C5D96DC92CE925C976F96CEACDF
:100D3000DFAC6F97EC15FD0579F790927201809208
:100D40007101909376018093750150937A014093DD
:100D50007901F0927E01E0927D01B0927401A0923F
:100D60007301309378012093770110937C010093F5
:100D70007B017093800160937F0110919C01009131
:100D80009B0160E0802F0E945D0160E0812F0E9446
:100D90005D0160E0802F0E942F0160E0812F0E94A2
:100DA0002F0100939F011093A00144E650E050935F
:100DB000A3014093A2018DE08093A101E1E8F1E05D
:100DC00090E080E0219131916C012130310519F0E2
:100DD000CC24CA94DC2C01968430910531F43FEF89
:100DE000C316D30631F40E9465032FEFC216D20654
:100DF00049F3F601EE0FFF1FEF57FE4F80819181FF
:100E00007601019719F0EE24EA94FE2CC6010196B2
:100E1000F601EE0FFF1FED57FE4F8430910541F0B4
:100E2000219131912130310509F47C010196F5CFF2
:100E30004FEFE416F406B9F280914301909144011A
:100E4000A0914501B09146018093530190935401C4
:100E5000A0935501B09356018091470190914801AC
:100E6000A0914901B0914A01809357019093580194
:100E7000A0935901B0935A0180914B0190914C017C
:100E8000A0914D01B0914E0180935B0190935C0164
:100E9000A0935D01B0935E0180914F01909150014C
:100EA000A0915101B091520180935F019093600134
:100EB000A0936101B093620103E021E050E040E0C3
:100EC0006AE08FE991E00E9472036FEF70E0809119
:100ED0006D010E948E0116015FE0250E311CF101AB
:100EE000EE0FFF1FEE0FFF1FEB5CFE4F60E08081F7
:100EF0000E942F01C701880F991F880F991FA7967D
:100F00009FAF8EAFA797FC01EB5CFE4F60E086AD14
:100F10000E942F010E945702AB966CAF7DAF8EAF3F
:100F20009FAFAB970E945702A3966CAF7DAF8EAF79
:100F30009FAFA397AFEFB0E0A596BFAFAEAFA597B9
:100F4000812C912C5401EC18FD08C701880F991FC2
:100F5000880F991FFC01EB5AFE4FAD96FFAFEEAF25
:100F6000AD979C012D5A3E4FAF963FAF2EAFAF9736
:100F70000E945702AB962CAD3DAD4EAD5FADAB9729
:100F8000621B730B840B950B613C744D8140910582
:100F900008F0A1C0412C512C3201C12CD12C76017A
:100FA0000E945702A3962CAD3DAD4EAD5FADA39709
:100FB000621B730B840B950B693C710581059105D0
:100FC00000F580916F010E94EB01092E000CAA0B25
:100FD000BB0BC80ED91EEA1EFB1E3FEF431A530A75
:100FE000630A730AA5966EAD7FADA59780916D01DA
:100FF0000E948E0160E570E080E090E00E94250292
:10100000CFCFC701B601A30192010E94DF0A2901D7
:101010003A01AD96AEADBFADAD978D919C919595D2
:101020008795AF96AEADBFADAF97ED91FC91B50191
:10103000A4018B5C9E4F0995A5969FAF8EAFA59797
:10104000BAE54B1651046104710438F06FEF70E09B
:1010500080916D010E948E01C6CEEEE44E165104C1
:101060006104710450F420E030E040E85FE3C50122
:10107000B4010E94BC084B015C01D301C20183553D
:101080009109A109B1090597A105B10550F420E026
:1010900030E040E85FE3C501B4010E94BB084B01AA
:1010A0005C0104E010E0F12CE12C80916B010E94C6
:1010B000EB01E80EF91E01501109B9F7FDE2EF1638
:1010C000F1E0FF06ACF520E044E06EEE71E08FE960
:1010D00091E00E940B036FEF70E080916D010E9420
:1010E0008E01F101EE0FFF1FEE0FFF1FEB5CFE4FB5
:1010F00061E080810E942F01A796EEADFFADA7971A
:10110000EB5CFE4F61E086AD0E942F018FE991E01C
:101110000E944D0360ED77E080E090E00E942502A0
:1011200080E090E0892B09F43CCD0E94000039CD8D
:10113000C301B2010E94D00923E938E144E250E43E
:101140000E945E0A0E949A0900E024E0AB016AE076
:101150008FE991E00E9472030E945702A3966CAF40
:101160007DAF8EAF9FAFA39703CFD6015D961C9244
:101170001E925C976FCD5058BB27AA270E94D308B8
:101180000C94240A0E94160A38F00E941D0A20F0CE
:1011900039F49F3F19F426F40C94130A0EF4E095E9
:1011A000E7FB0C940D0AE92F0E94350A58F3BA1791
:1011B000620773078407950720F079F4A6F50C946D
:1011C000570A0EF4E0950B2EBA2FA02D0B01B90192
:1011D00090010C01CA01A0011124FF27591B99F0AD
:1011E000593F50F4503E68F11A16F040A22F232FB9
:1011F000342F4427585FF3CF469537952795A79509
:10120000F0405395C9F77EF41F16BA0B620B730BAF
:10121000840BBAF09150A1F0FF0FBB1F661F771F20
:10122000881FC2F70EC0BA0F621F731F841F48F4D5
:10123000879577956795B795F7959E3F08F0B0CF5E
:101240009395880F08F09927EE0F97958795089545
:101250000E943C090C94240A0E941D0A58F00E9426
:10126000160A40F029F45F3F29F00C940D0A511141
:101270000C94580A0C94130A0E94350A68F39923B7
:10128000B1F3552391F3951B550BBB27AA27621782
:101290007307840738F09F5F5F4F220F331F441F8F
:1012A000AA1FA9F335D00E2E3AF0E0E832D09150C3
:1012B0005040E695001CCAF72BD0FE2F29D0660FB0
:1012C000771F881FBB1F261737074807AB07B0E8F3
:1012D00009F0BB0B802DBF01FF2793585F4F3AF0F9
:1012E0009E3F510578F00C940D0A0C94580A5F3F0C
:1012F000E4F3983ED4F3869577956795B795F7957F
:101300009F5FC9F7880F911D9695879597F9089566
:10131000E1E0660F771F881FBB1F62177307840702
:10132000BA0720F0621B730B840BBA0BEE1F88F711
:10133000E09508950E94A1096894B1110C94580A8F
:1013400008950E943D0A88F09F5798F0B92F992779
:10135000B751B0F0E1F0660F771F881F991F1AF0A0
:10136000BA95C9F714C0B13091F00E94570AB1E0A4
:1013700008950C94570A672F782F8827B85F39F0A3
:10138000B93FCCF3869577956795B395D9F73EF439
:1013900090958095709561957F4F8F4F9F4F0895E1
:1013A000E89409C097FB3EF49095809570956195FF
:1013B0007F4F8F4F9F4F9923A9F0F92F96E9BB27B5
:1013C0009395F695879577956795B795F111F8CF31
:1013D000FAF4BB0F11F460FF1BC06F5F7F4F8F4F9C
:1013E0009F4F16C0882311F096E911C0772321F092
:1013F0009EE8872F762F05C0662371F096E8862F2A
:1014000070E060E02AF09A95660F771F881FDAF780
:10141000880F9695879597F9089597F99F6780E8C3
:1014200070E060E008959FEF80EC089500240A9436
:101430001616170618060906089500240A941216AF
:101440001306140605060895092E0394000C11F4E2
:10145000882352F0BB0F40F4BF2B11F460FF04C08F
:101460006F5F7F4F8F4F9F4F089557FD9058440FE8
:10147000551F59F05F3F71F04795880F97FB991FF3
:1014800061F09F3F79F087950895121613061406B0
:10149000551FF2CF4695F1DF08C01616170618063D
:1014A000991FF1CF86957105610508940895E89418
:1014B000BB2766277727CB0197F908950E94710A09
:1014C0000C94240A0E94160A38F00E941D0A20F08B
:1014D000952311F00C940D0A0C94130A11240C940A
:1014E000580A0E94350A70F3959FC1F3950F50E09A
:1014F000551F629FF001729FBB27F00DB11D639FC6
:10150000AA27F00DB11DAA1F649F6627B00DA11D6B
:10151000661F829F2227B00DA11D621F739FB00D11
:10152000A11D621F839FA00D611D221F749F332781
:10153000A00D611D231F849F600D211D822F762F1A
:101540006A2F11249F5750409AF0F1F088234AF0F7
:10155000EE0FFF1FBB1F661F771F881F9150504063
:10156000A9F79E3F510580F00C940D0A0C94580A7F
:101570005F3FE4F3983ED4F3869577956795B795EA
:10158000F795E7959F5FC1F7FE2B880F911D969504
:10159000879597F90895AA1BBB1B51E107C0AA1FA5
:1015A000BB1FA617B70710F0A61BB70B881F991F04
:1015B0005A95A9F780959095BC01CD010895A1E2B7
:1015C0001A2EAA1BBB1BFD010DC0AA1FBB1FEE1FBD
:1015D000FF1FA217B307E407F50720F0A21BB30B08
:1015E000E40BF50B661F771F881F991F1A9469F784
:1015F00060957095809590959B01AC01BD01CF01E0
:101600000895EE0FFF1F0590F491E02D0994F894D2
:02161000FFCF0A
:10161200090005000800040007000300060002009C
:101622003F5C547971773038545C007C3F065B4FE5
:0C163200666D7D077F6F777C395E7971F3
:00000001FF
