:100000000C9462000C948A000C948A000C948A0070
:100010000C948A000C948A000C948A000C948A0038
:100020000C948A000C948A000C948A000C948A0028
:100030000C948A000C948A000C948A000C948A0018
:100040000C94B4050C948A000C9482050C945C0505
:100050000C948A000C948A000C948A000C948A00F8
:100060000C948A000C948A000000000023002600F3
:10007000290000000000240027002A0000000000E2
:10008000250028002B0004040404040404040202D4
:100090000202020203030303030301020408102007
:1000A0004080010204081020010204081020000012
:1000B0000008000201000003040700000000000027
:1000C0000000FE0511241FBECFEFD8E0DEBFCDBF7C
:1000D00011E0A0E0B1E0E4E0FCE102C005900D9287
:1000E000A234B107D9F722E0A2E4B1E001C01D9229
:1000F000AD3AB207E1F710E0C2E6D0E004C02197C4
:10010000FE010E94FA0DC136D107C9F70E942407EB
:100110000C94000E0C940000CB01BA0120E030E0FA
:1001200040E05FE30E94330D20E030E040E85FE311
:100130000E948C0B9B01AC0160E070E08CE092E4CB
:100140000E94F80B20E030E04CE553E40E948C0B59
:100150000E946A0CCB010895CB01BA0120E030E087
:1001600040E05FE30E94330D20E030E040E85FE3D1
:100170000E948C0B9B01AC0160E070E08CE392E488
:100180000E94F80B20E030E040E553E40E948C0B25
:100190000E946A0CCB010895CB01BA0123E333E33B
:1001A00043E35FE30E94330D20E030E040E85FE38B
:1001B0000E948C0B9B01AC0160E070E08CE892E443
:1001C0000E94F80B20E030E049E353E40E948C0BDE
:1001D0000E946A0CCB010895CB01BA0120E030E007
:1001E00040E85FE30E948C0B9B01AC0160E070E093
:1001F00085E793E40E94F80B20E030E040E251E410
:100200000E948C0B0E946A0CCB010895AF92BF92A2
:10021000CF92DF92EF92FF920F931F93CF93DF93D2
:100220006C017B018B01040F151FEB015E01AE1801
:10023000BF08C017D10759F06991D601ED91FC9123
:100240000190F081E02DC6010995892B79F7C50150
:10025000DF91CF911F910F91FF90EF90DF90CF90A2
:10026000BF90AF900895FC01538D448D252F30E051
:10027000842F90E0821B930B541710F0CF960895B3
:1002800001970895FC01918D828D981761F0A28DE0
:10029000AE0FBF2FB11D5D968C91928D9F5F9F73A6
:1002A000928F90E008958FEF9FEF0895FC01918D5C
:1002B000828D981731F0828DE80FF11D858D90E0C9
:1002C00008958FEF9FEF0895FC01918D228D892F66
:1002D00090E0805C9F4F821B91098F73992708954E
:1002E0008BE491E00E94640121E0892B09F420E075
:1002F000822F089580E090E0892B29F00E94700100
:1003000081110C9400000895FC01A48DA80FB92F51
:10031000B11DA35ABF4F2C91848D90E001968F732D
:100320009927848FA689B7892C93A089B1898C914C
:10033000837080648C93938D848D981306C002889B
:10034000F389E02D80818F7D80830895EF92FF9265
:100350000F931F93CF93DF93EC0181E0888F9B8DE8
:100360008C8D98131AC0E889F989808185FF15C0A2
:100370009FB7F894EE89FF896083E889F9898081C5
:100380008370806480839FBF81E090E0DF91CF9194
:100390001F910F91FF90EF900895F62E0B8D10E0B6
:1003A0000F5F1F4F0F731127E02E8C8D8E110CC025
:1003B0000FB607FCFACFE889F989808185FFF5CF70
:1003C000CE010E948401F1CFEB8DEC0FFD2FF11DCA
:1003D000E35AFF4FF0829FB7F8940B8FEA89FB89AD
:1003E00080818062CFCFCF93DF93EC01888D88230B
:1003F000B9F0AA89BB89E889F9898C9185FD03C088
:10040000808186FD0DC00FB607FCF7CF8C9185FF6C
:10041000F2CF808185FFEDCFCE010E948401E9CF2C
:10042000DF91CF910895833081F028F4813099F0E5
:100430008230A9F008958730A9F08830C9F084305F
:10044000B1F4809180008F7D03C0809180008F7710
:1004500080938000089584B58F7784BD089584B516
:100460008F7DFBCF8091B0008F778093B00008958F
:100470008091B0008F7DF9CF1F93CF93DF93282F0A
:1004800030E0F901E255FF4F8491F901E656FF4F44
:10049000D491F901EA57FF4FC491CC23A9F0162F4C
:1004A00081110E941302EC2FF0E0EE0FFF1FE458C1
:1004B000FF4FA591B4918FB7F894EC91111108C03A
:1004C000D095DE23DC938FBFDF91CF911F910895EC
:1004D000DE2BF8CFCF93DF9390E0FC01E656FF4F81
:1004E00024918A579F4FFC0184918823D1F090E09A
:1004F000880F991FFC01EE58FF4FA591B491FC01A4
:10050000E458FF4FC591D49161110EC09FB7F89484
:100510008C91E22FE0958E238C932881E223E8834F
:100520009FBFDF91CF9108958FB7F894EC91E22BA4
:10053000EC938FBFF6CF1F93CF93DF93182FEB0170
:1005400061E00E946A02209739F460E0812FDF9118
:10055000CF911F910C943C02CF3FD10511F461E083
:10056000F5CFE12FF0E0E255FF4FE491E33031F1B8
:1005700040F4E130B1F0E230E1F0C038D1057CF771
:10058000E4CFE73029F1E83059F1E430B1F7809158
:100590008000806280938000D0938B00C0938A009B
:1005A00004C084B5806884BDC7BDDF91CF911F9121
:1005B000089584B5806284BDC8BDF7CF8091800066
:1005C000806880938000D0938900C0938800EDCF2D
:1005D0008091B00080688093B000C093B300E5CFF5
:1005E0008091B00080628093B000C093B400DDCFF2
:1005F0008E3008F08E508770806480937C008091EC
:100600007A00806480937A0080917A0086FDFCCF26
:10061000809178009091790008953FB7F894809187
:10062000470190914801A0914901B0914A0126B536
:10063000A89B05C02F3F19F00196A11DB11D3FBF1A
:10064000BA2FA92F982F8827BC01CD01620F711DE9
:10065000811D911D42E0660F771F881F991F4A95E3
:10066000D1F708958F929F92AF92BF92CF92DF926F
:10067000EF92FF924B015C010E940D036B017C0124
:100680000E940D036C197D098E099F09683E734015
:1006900081059105A8F321E0821A9108A108B1080B
:1006A00088EEC80E83E0D81EE11CF11C8114910471
:1006B000A104B10429F7FF90EF90DF90CF90BF9095
:1006C000AF909F908F9008952FB7F8946091430159
:1006D0007091440180914501909146012FBF08958A
:1006E000FC01838194818230910538F0880F991F35
:1006F000880F991F05970197F1F70895EF92FF92E0
:100700000F931F93CF93DF93EC01062F18E061E066
:1007100088810E946A02CE010E947003E02EF12CB3
:1007200060E000FF61E089810E946A02CE010E94C0
:10073000700360E088810E946A02CE010E9470030B
:10074000F594E7940E2D115011F761E088810E9415
:100750006A0260E089810E946A02CE010E947003F1
:1007600060E088810E946A02CE010E9470032981A4
:1007700030E0F901E255FF4F8491F901E656FF4F51
:100780000491F901EA57FF4F1491112349F18111A6
:100790000E941302E12FF0E0EE0FFF1FE859FF4F18
:1007A000A591B491EC910E2311E009F410E0111120
:1007B00004C061E089810E946A02CE010E94700338
:1007C00061E088810E946A02CE010E947003812F3D
:1007D0008170DF91CF911F910F91FF90EF9008955D
:1007E00010E0E7CFCF93DF93EC0161E089810E94B5
:1007F0006A02CE010E94700360E088810E946A0252
:10080000CE010E94700360E089810E946A02CE01DD
:10081000DF91CF910C947003CF93DF93EC0161E0F3
:1008200089810E946A02CE01DF91CF910C947003FE
:10083000CF92DF92EF92FF920F931F93CF93DF93AC
:10084000EC01F62EC72EE42E122F0E940C0460E459
:10085000CE010E947E03CE010E94F203CE010E94CF
:100860000C0460EC610FCE010E947E03DF2C0F2D83
:100870001C2DF80161918F01CE010E947E03802F13
:100880008D198E15B0F3CE010E94F203CE010E94A5
:100890000C046A816F706058CE010E947E03CE0105
:1008A000DF91CF911F910F91FF90EF90DF90CF904C
:1008B0000C94F2034F925F926F927F928F929F926D
:1008C000AF92BF92CF92DF92EF920F931F93CF938D
:1008D000DF9300D000D0CDB7DEB74C016A01402FC6
:1008E00030E067FF02C0619531E0E42FF0E0CF0116
:1008F0000197DE0111965D01C114D10451F550E05C
:10090000252F30E02817390734F42A0D3B1DF90153
:1009100010825F5FF5CF8A0D9B1D2FE3DC012C93C6
:100920002E2DB501C4010E9418040F900F900F9056
:100930000F90DF91CF911F910F91EF90DF90CF90AB
:10094000BF90AF909F908F907F906F905F904F90EF
:100950000895EA0FFB1F662E660F770810E4C601A4
:10096000B3010E94C40D582FDF0111972D01811191
:100970000CC0C114D10449F41C92332381F0D2017C
:100980001C9330E00CC0F201EACF845E9E4FDC0184
:100990008C91D2018C93511102C0CD2871F36B015F
:1009A000D2014A145B0479F7222309F4B9CF6F010D
:1009B00083E0C80ED11C9D91BD0161507109822F49
:1009C0008078892BFB018083220FCA16DB0699F7FA
:1009D000A7CFCF93DF9300D000D0CDB7DEB7198279
:1009E0001A821B821C8220E044E0BE016F5F7F4FB1
:1009F0000E9418040F900F900F900F90DF91CF91ED
:100A0000089586E592E00E94E90420E044E069EA66
:100A100072E086E592E00E941804FFCF8F929F92C9
:100A2000AF92BF920F931F93CF93DF93CDB7DEB7F3
:100A3000A1970FB6F894DEBF0FBECDBF19A242300A
:100A400008F44AE08E010F5D1F4F842E912CB12CCB
:100A5000A12CA50194010E94D80DE62FB901CA016D
:100A6000EA3044F5E05DD801EE938D01232B242B71
:100A7000252B79F790E080E0109769F0FD01019057
:100A80000020E9F73197AF014A1B5B0BBD018BE4F6
:100A900091E00E940601A1960FB6F894DEBF0FBE4A
:100AA000CDBFDF91CF911F910F91BF90AF909F90DD
:100AB0008F900895E95CD7CF1F920F920FB60F92D7
:100AC00011242F933F934F935F936F937F938F9353
:100AD0009F93AF93BF93EF93FF938BE491E00E94BA
:100AE0008401FF91EF91BF91AF919F918F917F9181
:100AF0006F915F914F913F912F910F900FBE0F908B
:100B00001F9018951F920F920FB60F9211242F93DA
:100B10008F939F93EF93FF93E0915B01F0915C01C2
:100B20008081E0916101F091620182FD1BC09081A2
:100B3000809164018F5F8F7320916501821741F06E
:100B4000E0916401F0E0E55BFE4F958F80936401D6
:100B5000FF91EF919F918F912F910F900FBE0F906A
:100B60001F9018958081F4CF1F920F920FB60F92AD
:100B700011242F933F938F939F93AF93BF938091B3
:100B8000430190914401A0914501B09146013091FB
:100B9000420123E0230F2D3758F50196A11DB11D09
:100BA000209342018093430190934401A093450117
:100BB000B09346018091470190914801A09149016D
:100BC000B0914A010196A11DB11D809347019093F8
:100BD0004801A0934901B0934A01BF91AF919F9101
:100BE0008F913F912F910F900FBE0F901F901895EE
:100BF00026E8230F0296A11DB11DD2CF8F929F929E
:100C0000AF92BF92CF92DF92EF92FF92CF93DF939A
:100C1000EBE4F1E01382128288EE93E0A0E0B0E012
:100C200084839583A683B78380E391E09183808357
:100C300085EC90E09587848784EC90E097878687A1
:100C400080EC90E0918B808B81EC90E0938B828B99
:100C500082EC90E0958B848B86EC90E0978B868B72
:100C6000118E128E138E148EE8EEF1E01082118236
:100C7000148213823BE035832CE0268384E690E0E7
:100C8000908787831186128615861486CCE8D0E07B
:100C9000D787C687118A108AACEAB0E0B38BA28BE3
:100CA000158A148A6CEC70E0778B668B118E108E2F
:100CB0004CEE50E0538F428F158E148E17AA16AA51
:100CC00011AE10AE13AE12AE10923D0210923C0265
:100CD00010923F0210923E028090100190901101FC
:100CE000A0901201B09013018092400290924102B4
:100CF000A0924202B0924302C0901401D09015011C
:100D0000E0901601F0901701C0924402D092450283
:100D1000E0924602F0924702EDE4F2E01082118286
:100D200014821382358326839087878311861286E7
:100D300015861486D787C687118A108AB38BA28B33
:100D4000158A148A778B668B118E108E538F428F83
:100D5000158E148E17AA16AA11AE10AE13AE12AECF
:100D60001092A2021092A1021092A4021092A30269
:100D70008092A5029092A602A092A702B092A80229
:100D8000C092A902D092AA02E092AB02F092AC0209
:100D9000A0E0B1E04D915C91119755AF44AF14962E
:100DA0004D915C91159750938E0240938D02189649
:100DB0004D915C91199750939202409391021C9629
:100DC0004D915C911D975093960240939502129617
:100DD0004D915C91139757AF46AF16964D915C912C
:100DE00017975093900240938F021A964D915C9101
:100DF0001B9750939402409393021E964D915C91E1
:100E00005093980240939702C8E4D2E03883298334
:100E10009C838B8360E08BE00E946A0260E08981A2
:100E20000E946A0260E088810E943C0260E0898141
:100E3000DF91CF91FF90EF90DF90CF90BF90AF9078
:100E40009F908F900C943C02CF93DF93CDB7DEB789
:100E5000C257D1090FB6F894DEBF0FBECDBF78944C
:100E600084B5826084BD84B5816084BD85B58260AF
:100E700085BD85B5816085BD80916E008160809360
:100E80006E001092810080918100826080938100C9
:100E900080918100816080938100809180008160D9
:100EA000809380008091B10084608093B100809134
:100EB000B00081608093B00080917A00846080935C
:100EC0007A0080917A00826080937A0080917A0023
:100ED000816080937A0080917A00806880937A00A4
:100EE0001092C10061E089E00E946A0261E088E03E
:100EF0000E946A0261E087E00E946A0261E086E087
:100F00000E946A0261E085E00E946A0261E084E07A
:100F10000E946A0261E083E00E946A0261E082E06E
:100F20000E946A0261E08AE00E946A0261E089E050
:100F30000E943C0261E088E00E943C0261E087E0A0
:100F40000E943C0261E086E00E943C0261E085E094
:100F50000E943C0261E084E00E943C0261E083E088
:100F60000E943C0261E082E00E943C0261E08AE073
:100F70000E943C026FEF70E08AE00E949B028CE0CE
:100F800080934A0224E6C22ED12CE12C04E020E01A
:100F9000A6016AE088E492E00E945A0421E0C21AA5
:100FA000D10898F7E0915B01F0915C0182E08083C9
:100FB000E0915701F09158011082E0915901F091B0
:100FC0005A018FEC808310926301E0915F01F091F0
:100FD000600186E08083E0915D01F0915E01808197
:100FE00080618083E0915D01F0915E018081886085
:100FF0008083E0915D01F0915E0180818068808353
:10100000E0915D01F0915E0180818F7D8083AE0172
:10101000495C5F4FA3965FAF4EAFA3978EE090E021
:101020009093840280938302AAE0B0E0B09386029A
:10103000A0938502E5E1F0E0F0938802E093870257
:101040000DE412E09BE7C92E92E0D92E912C60E0CE
:10105000D801DC968C910E943C0260E0F80186ADDC
:101060000E943C0266E970E080E090E00E9432035A
:1010700084E0A82EB12CF12CE12C8EE00E94F80225
:10108000E80EF91EF1E0AF1AB108B9F727010F2CED
:10109000000C660877084AE0C301B20177FE0DC074
:1010A0006DE28BE491E00E94A60166277727CB01D1
:1010B00064197509860997094AE00E940E0542E005
:1010C00050E06EE371E08BE491E00E94060161E084
:1010D000D801DC968C910E943C0261E0F80186AD5B
:1010E0000E943C02D601ED92FD926D01B7E2EB1A2F
:1010F000B2E0FB0AEEEFEE16F10408F006C3E1E001
:10110000F0E0D6015D96FC93EE935C97992493945E
:1011100066E970E080E090E00E9432030C5F1F4FB0
:10112000F2E00D351F0709F092CF91100DC088E451
:1011300092E00E94E90420E044E068E171E088E484
:1011400092E00E941804FFCF80E6EDE4F2E0DE01B9
:10115000119601900D928A95E1F7A0918502B091C8
:101160008602E0918702F091880280918902909135
:101170008A0220918B0230918C0280908D02909097
:101180008E0240918F025091900260919102709175
:1011900092020091930210919402E0909502F090D7
:1011A0009602A0909702B0909802C0908302D090CF
:1011B0008402D0921F02C0921E02B0932102A0931B
:1011C0002002F0932302E0932202FE01BF96A6E1E3
:1011D000B2E0C190D190CD92DD92C48CD58C5D9659
:1011E000DC92CE925C97A396CEACDFACA397CE16E2
:1011F000DF0679F7909325028093240290922902CA
:101200008092280270932D0260932C02F09231029A
:10121000E0923002309327022093260250932B0253
:1012200040932A0210932F0200932E02B0923302B1
:10123000A0923202109153020091520260E0802F7E
:101240000E946A0260E0812F0E946A0260E0802FA3
:101250000E943C0260E0812F0E943C0200935602F3
:101260001093570214E6C12ED12CD0925A02C0928C
:1012700059028DE08093580204E3602E02E0702E44
:10128000F30190E080E0219131915C012130310542
:1012900019F0AA24AA94BA2C01968430910531F44D
:1012A0003FEFA316B30631F40E9401052FEFA216FB
:1012B000B20649F3F501EE0FFF1FEC5CFD4F808194
:1012C00091816501019719F0CC24CA94DC2CC501E9
:1012D0000196F501EE0FFF1FEA5CFD4F843091058A
:1012E00041F0219131912130310509F46C010196D1
:1012F000F5CF4FEFC416D406B9F28091F601909164
:10130000F701A091F801B091F90180930602909342
:101310000702A0930802B09309028091FA0190910C
:10132000FB01A091FC01B091FD0180930A02909312
:101330000B02A0930C02B0930D028091FE019091DC
:10134000FF01A0910002B091010280930E029093E0
:101350000F02A0931002B0931102809102029091AB
:101360000302A0910402B0910502809312029093AF
:101370001302A0931402B0931502912C812CD30177
:101380008D919D913D01009709F44BC0019749F45F
:10139000E12C04E020E0A4016AE086E592E00E94EE
:1013A0005A046EEE72E080E090E00E943203F30196
:1013B000B09760817181072E000C880B990B0E94F9
:1013C000A20C2DEB33EE44E05FE30E94330D1B01D2
:1013D0002C0120E030E0A9010E942E0D20E030E039
:1013E00040E05FE387FDD0C0C201B1010E948C0BD9
:1013F0000E946A0CAB0177FF04C044275527461BA7
:10140000570B77FDC6C06AE0E12C04E020E486E5D6
:1014100092E00E945A0462EE74E080E090E00E9444
:101420003203BFEF8B1A9B0AE4E08E16910409F099
:10143000A6CF86E592E00E94E90433E0E32E01E0C6
:1014400020E050E040E06AE086E592E00E945A0425
:101450006FEF70E0809120020E949B021501FFE077
:101460002F0E311CF101EE0FFF1FEE0FFF1FE85191
:10147000FE4F60E080810E943C029601220F331FE4
:10148000220F331FAB963FAF2EAFAB97F901E85158
:10149000FE4F60E086AD0E943C020E946403AF965E
:1014A0006CAF7DAF8EAF9FAFAF970E946403A796DE
:1014B0006CAF7DAF8EAF9FAFA7974FEF50E0A9966F
:1014C0005FAF4EAFA997412C512C3201CA18DB08EF
:1014D000C601880F991F880F991FDC01A85FBD4FB7
:1014E000E196BFAFAEAFE197FC01EA5FFD4FE39637
:1014F000FFAFEEAFE3970E946403AF962CAD3DAD16
:101500004EAD5FADAF97621B730B840B950B613CC7
:10151000744D8140910508F0A8C0812C912C540194
:10152000C12CD12C76010E946403A7962CAD3DAD51
:101530004EAD5FADA797621B730B840B950B693C97
:1015400071058105910538F5809122020E94F8020B
:10155000092E000CAA0BBB0BC80ED91EEA1EFB1EDF
:101560003FEF831A930AA30AB30AA9966EAD7FAD23
:10157000A997809120020E949B0260E570E080E0C4
:1015800090E00E943203CFCFC201B1010E948B0BC9
:101590002FCF66EF39CFC701B601A50194010E9494
:1015A000D80D49015A01E196AEADBFADE1978D91DD
:1015B0009C9195958795E396AEADBFADE397ED9180
:1015C000FC91B301A20188519E4F0995A9969FAF46
:1015D0008EAFA997BAE58B169104A104B10438F037
:1015E0006FEF70E0809120020E949B025DCEEEE4DE
:1015F0008E169104A104B10450F420E030E040E8DC
:101600005FE3C301B2010E948C0B2B013C01D501A9
:10161000C40183559109A109B1090597A105B10537
:1016200050F420E030E040E85FE3C301B2010E94E3
:101630008B0B2B013C0104E010E0F12CE12C80919C
:101640001E020E94F802E80EF91E01501109B9F7B6
:10165000FDE2EF16F1E0FF06D4F520E044E069EA90
:1016600072E086E592E00E9418046FEF70E08091CE
:1016700020020E949B02F101EE0FFF1FEE0FFF1FE1
:10168000E851FE4F61E080810E943C02AB96EEADD6
:10169000FFADAB97E851FE4F61E086AD0E943C0282
:1016A00086E592E00E94E90460ED77E080E090E05A
:1016B0000E94320380E090E0892B09F4AFCC0E94B5
:1016C0007001882309F4AACC0E940000A7CCC501B0
:1016D000B4010E94A00C23E938E144E250E40E94E6
:1016E000330D0E946A0CE12C04E020E0AB016AE0BB
:1016F00086E592E00E945A040E946403A7966CAFAC
:101700007DAF8EAF9FAFA797F6CED6015D961C92A8
:101710001E925C97FDCC5058BB27AA270E94A30BB2
:101720000C94F40C0E94E60C38F00E94ED0C20F0B2
:1017300039F49F3F19F426F40C94E30C0EF4E09571
:10174000E7FB0C94DD0CE92F0E94050D58F3BA1746
:10175000620773078407950720F079F4A6F50C94C7
:10176000270D0EF4E0950B2EBA2FA02D0B01B90119
:1017700090010C01CA01A0011124FF27591B99F007
:10178000593F50F4503E68F11A16F040A22F232F13
:10179000342F4427585FF3CF469537952795A79563
:1017A000F0405395C9F77EF41F16BA0B620B730B0A
:1017B000840BBAF09150A1F0FF0FBB1F661F771F7B
:1017C000881FC2F70EC0BA0F621F731F841F48F430
:1017D000879577956795B795F7959E3F08F0B0CFB9
:1017E0009395880F08F09927EE0F979587950895A0
:1017F0000E940C0C0C94F40C0E94ED0C58F00E940A
:10180000E60C40F029F45F3F29F00C94DD0C5111F7
:101810000C94280D0C94E30C0E94050D68F3992399
:10182000B1F3552391F3951B550BBB27AA276217DC
:101830007307840738F09F5F5F4F220F331F441FE9
:10184000AA1FA9F335D00E2E3AF0E0E832D091501D
:101850005040E695001CCAF72BD0FE2F29D0660F0A
:10186000771F881FBB1F261737074807AB07B0E84D
:1018700009F0BB0B802DBF01FF2793585F4F3AF053
:101880009E3F510578F00C94DD0C0C94280D5F3FC1
:10189000E4F3983ED4F3869577956795B795F795D9
:1018A0009F5FC9F7880F911D9695879597F90895C1
:1018B000E1E0660F771F881FBB1F6217730784075D
:1018C000BA0720F0621B730B840BBA0BEE1F88F76C
:1018D000E09508950E94710C6894B1110C94280D44
:1018E00008950E940D0D88F09F5798F0B92F992701
:1018F000B751B0F0E1F0660F771F881F991F1AF0FB
:10190000BA95C9F714C0B13091F00E94270DB1E02B
:1019100008950C94270D672F782F8827B85F39F02A
:10192000B93FCCF3869577956795B395D9F73EF493
:1019300090958095709561957F4F8F4F9F4F08953B
:10194000E89409C097FB3EF4909580957095619559
:101950007F4F8F4F9F4F9923A9F0F92F96E9BB270F
:101960009395F695879577956795B795F111F8CF8B
:10197000FAF4BB0F11F460FF1BC06F5F7F4F8F4FF6
:101980009F4F16C0882311F096E911C0772321F0EC
:101990009EE8872F762F05C0662371F096E8862F84
:1019A00070E060E02AF09A95660F771F881FDAF7DB
:1019B000880F9695879597F9089597F99F6780E81E
:1019C00070E060E008959FEF80EC089500240A9491
:1019D0001616170618060906089500240A9412160A
:1019E0001306140605060895092E0394000C11F43D
:1019F000882352F0BB0F40F4BF2B11F460FF04C0EA
:101A00006F5F7F4F8F4F9F4F089557FD9058440F42
:101A1000551F59F05F3F71F04795880F97FB991F4D
:101A200061F09F3F79F0879508951216130614060A
:101A3000551FF2CF4695F1DF08C016161706180697
:101A4000991FF1CF86957105610508940895E89472
:101A5000BB2766277727CB0197F908950E94A00D31
:101A600008F48FEF08950E94460D0C94F40C0E9428
:101A7000E60C38F00E94ED0C20F0952311F00C9448
:101A8000DD0C0C94E30C11240C94280D0E94050D20
:101A900070F3959FC1F3950F50E0551F629FF001C1
:101AA000729FBB27F00DB11D639FAA27F00DB11DDA
:101AB000AA1F649F6627B00DA11D661F829F222763
:101AC000B00DA11D621F739FB00DA11D621F839FEA
:101AD000A00D611D221F749F3327A00D611D231FC0
:101AE000849F600D211D822F762F6A2F11249F570E
:101AF00050409AF0F1F088234AF0EE0FFF1FBB1F11
:101B0000661F771F881F91505040A9F79E3F5105CF
:101B100080F00C94DD0C0C94280D5F3FE4F3983EAC
:101B2000D4F3869577956795B795F795E7959F5F79
:101B3000C1F7FE2B880F911D9695879597F908950B
:101B4000990F0008550FAA0BE0E8FEEF16161706CE
:101B5000E807F907C0F012161306E407F50798F036
:101B6000621B730B840B950B39F40A2661F0232B4F
:101B7000242B252B21F408950A2609F4A140A695CB
:101B80008FEF811D811D0895AA1BBB1B51E107C06A
:101B9000AA1FBB1FA617B70710F0A61BB70B881FFD
:101BA000991F5A95A9F780959095BC01CD0108958C
:101BB000A1E21A2EAA1BBB1BFD010DC0AA1FBB1F51
:101BC000EE1FFF1FA217B307E407F50720F0A21BC3
:101BD000B30BE40BF50B661F771F881F991F1A9430
:101BE00069F760957095809590959B01AC01BD015A
:101BF000CF010895EE0FFF1F0590F491E02D099499
:041C0000F894FFCF86
:101C040009000500080004000700030006000200A4
:101C14003F5C547971773038545C007C3F065B4FED
:101C2400666D7D077F6F777C395E797100000000F7
:101C3400A60106013301F3016401420156010D0AB4
:021C440000009E
:00000001FF
