:100000000C9462000C948A000C948A000C948A0070
:100010000C948A000C948A000C948A000C948A0038
:100020000C948A000C948A000C948A000C948A0028
:100030000C948A000C948A000C948A000C948A0018
:100040000C946C050C948A000C943A050C941405DD
:100050000C948A000C948A000C948A000C948A00F8
:100060000C948A000C948A000000000023002600F3
:10007000290000000000240027002A0000000000E2
:10008000250028002B0004040404040404040202D4
:100090000202020203030303030301020408102007
:1000A0004080010204081020010204081020000012
:1000B0000008000201000003040700000000000027
:1000C0000000B60511241FBECFEFD8E0DEBFCDBFC4
:1000D00023E0AEE5B1E001C01D92A731B207E1F720
:1000E00011E0A0E0B1E0EAE1FDE102C005900D926F
:1000F000AE35B107D9F710E0C2E6D0E004C02197D1
:10010000FE010E94850EC136D107C9F70E940E0775
:100110000C948B0E0C940000CB01BA0120E030E06F
:1001200040E05FE30E94770C20E030E040E85FE3CE
:100130000E94580D9B01AC0160E070E08CE092E4FD
:100140000E94C40D20E030E04CE553E40E94580DBD
:100150000E94360ECB010895CB01BA0120E030E0B9
:1001600040E05FE30E94770C20E030E040E85FE38E
:100170000E94580D9B01AC0160E070E08CE392E4BA
:100180000E94C40D20E030E040E553E40E94580D89
:100190000E94360ECB010895CB01BA012DEC3CEC48
:1001A0004CEC5EE30E94770C20E030E040E85FE337
:1001B0000E94580D9B01AC0160E070E082E892E47F
:1001C0000E94C40D20E030E04EE353E40E94580D3D
:1001D0000E94360ECB010895CB01BA012DEC3CEC08
:1001E0004CE45FE30E94770C20E030E040E85FE3FE
:1001F0000E94580D9B01AC0160E070E085E293E441
:100200000E94C40D20E030E044EB52E40E94580DFF
:100210000E94360ECB010895AF92BF92CF92DF922B
:10022000EF92FF920F931F93CF93DF936C017B01AB
:100230008B01040F151FEB015E01AE18BF08C0173C
:10024000D10759F06991D601ED91FC910190F081AF
:10025000E02DC6010995892B79F7C501DF91CF9172
:100260001F910F91FF90EF90DF90CF90BF90AF90D4
:100270000895FC01538D448D252F30E0842F90E0AC
:10028000821B930B541710F0CF9608950197089591
:10029000FC01918D828D981761F0A28DAE0FBF2F5A
:1002A000B11D5D968C91928D9F5F9F73928F90E0B0
:1002B00008958FEF9FEF0895FC01918D828D98171F
:1002C00031F0828DE80FF11D858D90E008958FEF5C
:1002D0009FEF0895FC01918D228D892F90E0805C25
:1002E0009F4F821B91098F739927089587E691E0AC
:1002F0000E946A0121E0892B09F420E0822F0895F1
:1003000080E090E0892B29F00E94760181110C9405
:1003100000000895FC01A48DA80FB92FB11DA35AA8
:10032000BF4F2C91848D90E001968F739927848F15
:10033000A689B7892C93A089B1898C918370806438
:100340008C93938D848D981306C00288F389E02DD9
:1003500080818F7D80830895EF92FF920F931F938A
:10036000CF93DF93EC0181E0888F9B8D8C8D981368
:100370001AC0E889F989808185FF15C09FB7F89474
:10038000EE89FF896083E889F989808183708064C0
:1003900080839FBF81E090E0DF91CF911F910F910B
:1003A000FF90EF900895F62E0B8D10E00F5F1F4F1A
:1003B0000F731127E02E8C8D8E110CC00FB607FC29
:1003C000FACFE889F989808185FFF5CFCE010E94B7
:1003D0008A01F1CFEB8DEC0FFD2FF11DE35AFF4F9A
:1003E000F0829FB7F8940B8FEA89FB898081806245
:1003F000CFCFCF93DF93EC01888D8823B9F0AA8902
:10040000BB89E889F9898C9185FD03C0808186FDCF
:100410000DC00FB607FCF7CF8C9185FFF2CF80811E
:1004200085FFEDCFCE010E948A01E9CFDF91CF9108
:100430000895833081F028F4813099F08230A9F05A
:1004400008958730A9F08830C9F08430B1F48091E4
:1004500080008F7D03C0809180008F778093800023
:10046000089584B58F7784BD089584B58F7DFBCFC3
:100470008091B0008F778093B00008958091B00094
:100480008F7DF9CF1F93CF93DF93282F30E0F901B1
:10049000E255FF4F8491F901E656FF4FD491F901DF
:1004A000EA57FF4FC491CC23A9F0162F81110E9467
:1004B0001902EC2FF0E0EE0FFF1FE458FF4FA5915B
:1004C000B4918FB7F894EC91111108C0D095DE2348
:1004D000DC938FBFDF91CF911F910895DE2BF8CF72
:1004E000CF93DF9390E0FC01E656FF4F24918A57AB
:1004F0009F4FFC0184918823D1F090E0880F991FD1
:10050000FC01EE58FF4FA591B491FC01E458FF4F58
:10051000C591D49161110EC09FB7F8948C91E22FD0
:10052000E0958E238C932881E223E8839FBFDF919F
:10053000CF9108958FB7F894EC91E22BEC938FBF95
:10054000F6CF1F93CF93DF93182FEB0161E00E944A
:100550007002209739F460E0812FDF91CF911F91D5
:100560000C944202CF3FD10511F461E0F5CFE12FA9
:10057000F0E0E255FF4FE491E33031F140F4E13037
:10058000B1F0E230E1F0C038D1057CF7E4CFE730DC
:1005900029F1E83059F1E430B1F7809180008062B0
:1005A00080938000D0938B00C0938A0004C084B5F0
:1005B000806884BDC7BDDF91CF911F91089584B538
:1005C000806284BDC8BDF7CF809180008068809331
:1005D0008000D0938900C0938800EDCF8091B00057
:1005E00080688093B000C093B300E5CF8091B000E5
:1005F00080628093B000C093B400DDCF8E3008F0ED
:100600008E508770806480937C0080917A00806433
:1006100080937A0080917A0086FDFCCF80917800EB
:100620009091790008953FB7F8948091630190917B
:100630006401A0916501B091660126B5A89B05C033
:100640002F3F19F00196A11DB11D3FBFBA2FA92F51
:10065000982F8827BC01CD01620F711D811D911D4E
:1006600042E0660F771F881F991F4A95D1F70895BA
:100670008F929F92AF92BF92CF92DF92EF92FF92B2
:100680004B015C010E9413036B017C010E94130368
:100690006C197D098E099F09683E7340810591059B
:1006A000A8F321E0821A9108A108B10888EEC80ECB
:1006B00083E0D81EE11CF11C81149104A104B10453
:1006C00029F7FF90EF90DF90CF90BF90AF909F9071
:1006D0008F9008952FB7F89460915F017091600139
:1006E00080916101909162012FBF0895FC01838187
:1006F00094818230910538F0880F991F880F991FD7
:1007000005970197F1F70895EF92FF920F931F93CA
:10071000CF93DF93EC01062F18E061E088810E94FF
:100720007002CE010E947603E02EF12C60E000FF03
:1007300061E089810E947002CE010E94760360E030
:1007400088810E947002CE010E947603F594E7949E
:100750000E2D115011F761E088810E94700260E057
:1007600089810E947002CE010E94760360E0888138
:100770000E947002CE010E947603298130E0F901C7
:10078000E255FF4F8491F901E656FF4F0491F901BC
:10079000EA57FF4F1491112349F181110E94190268
:1007A000E12FF0E0EE0FFF1FE859FF4FA591B49144
:1007B000EC910E2311E009F410E0111104C061E086
:1007C00089810E947002CE010E94760361E08881D7
:1007D0000E947002CE010E947603812F8170DF910A
:1007E000CF911F910F91FF90EF90089510E0E7CF08
:1007F000CF93DF93EC0161E089810E947002CE010A
:100800000E94760360E088810E947002CE010E94FF
:10081000760360E089810E947002CE01DF91CF9162
:100820000C947603CF93DF93EC0161E089810E9401
:100830007002CE01DF91CF910C947603CF92DF92BC
:10084000EF92FF920F931F93CF93DF93EC01F62E5D
:10085000C72EE42E122F0E94120460E4CE010E94E3
:100860008403CE010E94F803CE010E94120460ECC2
:10087000610FCE010E948403DF2C0F2D1C2DF80187
:1008800061918F01CE010E948403802F8D198E15F6
:10089000B0F3CE010E94F803CE010E9412046A81D7
:1008A0006F706058CE010E948403CE01DF91CF911A
:1008B0001F910F91FF90EF90DF90CF900C94F80371
:1008C0004F925F926F927F928F929F92AF92BF9260
:1008D000CF92DF92EF920F931F93CF93DF9300D0CD
:1008E00000D0CDB7DEB74C016A01402F30E067FF82
:1008F00002C0619531E0E42FF0E0CF010197DE0105
:1009000011965D01C114D10451F550E0252F30E05E
:100910002817390734F42A0D3B1DF90110825F5F57
:10092000F5CF8A0D9B1D2FE3DC012C932E2DB501F5
:10093000C4010E941E040F900F900F900F90DF9142
:10094000CF911F910F91EF90DF90CF90BF90AF901C
:100950009F908F907F906F905F904F900895EA0FD7
:10096000FB1F662E660F770810E4C601B3010E94D4
:10097000710E582FDF0111972D0181110CC0C11488
:10098000D10449F41C92332381F0D2011C9330E04E
:100990000CC0F201EACF8C5D9E4FDC018C91D2013C
:1009A0008C93511102C0CD2871F36B01D2014A140E
:1009B0005B0479F7222309F4B9CF6F0183E0C80EF5
:1009C000D11C9D91BD0161507109822F8078892BC6
:1009D000FB018083220FCA16DB0699F7A7CFCF93BE
:1009E000DF9300D000D0CDB7DEB719821A821B8208
:1009F0001C8220E044E0BE016F5F7F4F0E941E0416
:100A00000F900F900F900F90DF91CF9108958CEB86
:100A100092E00E94EF0420E044E06FE073E08CEB92
:100A200092E00E941E04FFCF1F920F920FB60F920A
:100A300011242F933F934F935F936F937F938F93E3
:100A40009F93AF93BF93EF93FF9387E691E00E944C
:100A50008A01FF91EF91BF91AF919F918F917F910B
:100A60006F915F914F913F912F910F900FBE0F901B
:100A70001F9018951F920F920FB60F9211242F936B
:100A80008F939F93EF93FF93E0917701F09178011B
:100A90008081E0917D01F0917E0182FD1BC09081FB
:100AA000809180018F5F8F7320918101821741F0C7
:100AB000E0918001F0E0E959FE4F958F809380012D
:100AC000FF91EF919F918F912F910F900FBE0F90FB
:100AD0001F9018958081F4CF1F920F920FB60F923E
:100AE00011242F933F938F939F93AF93BF93809144
:100AF0005F0190916001A0916101B091620130911C
:100B00005E0123E0230F2D3758F50196A11DB11D7D
:100B100020935E0180935F0190936001A093610137
:100B2000B09362018091630190916401A09165018D
:100B3000B09166010196A11DB11D80936301909350
:100B40006401A0936501B0936601BF91AF919F913D
:100B50008F913F912F910F900FBE0F901F9018957E
:100B600026E8230F0296A11DB11DD2CF4F925F92AE
:100B70006F927F928F929F92AF92BF92CF92DF92AD
:100B8000EF92FF92CF93DF93E7E6F1E013821282B8
:100B900088EE93E0A0E0B0E084839583A683B783DA
:100BA00088E391E09183808385EC90E0958784874A
:100BB00084EC90E09787868780EC90E0918B808B27
:100BC00081EC90E0938B828B82EC90E0958B848B10
:100BD00086EC90E0978B868B118E128E138E148E7E
:100BE000E4E0F2E0168217821086118612861386E0
:100BF0001486158616861786108A118A128A138A19
:100C0000148A158AEAE4F2E01082118214821382B7
:100C10003BE035832CE0268384E690E09087878351
:100C20001186128615861486CCE8D0E0D787C68751
:100C3000118A108AACEAB0E0B38BA28B158A148AB1
:100C40006CEC70E0778B668B118E108E4CEE50E062
:100C5000538F428F158E148E17AA16AA11AE10AE9E
:100C600013AE12AE10929F0210929E021092A10239
:100C70001092A0024090100150901101609012015A
:100C8000709013014092A2025092A3026092A402BB
:100C90007092A5028090140190901501A090160109
:100CA000B09017018092A6029092A702A092A8028B
:100CB000B092A902C0901801D0901901E0901A01D9
:100CC000F0901B01C092AA02D092AB02E092AC025B
:100CD000F092AD02E3EBF2E01082118214821382F3
:100CE000358326839087878311861286158614861E
:100CF000D787C687118A108AB38BA28B158A148A6C
:100D0000778B668B118E108E538F428F158E148EBB
:100D100017AA16AA11AE10AE13AE12AE10920803A7
:100D20001092070310920A031092090340920B03DA
:100D300050920C0360920D0370920E0380920F0389
:100D400090921003A0921103B0921203C092130369
:100D5000D0921403E0921503F0921603A0E0B1E0E4
:100D60004D915C91119755AF44AF14964D915C91A4
:100D700015975093F4024093F30218964D915C91AD
:100D800019975093F8024093F7021C964D915C918D
:100D90001D975093FC024093FB0212964D915C917B
:100DA000139757AF46AF16964D915C911797509396
:100DB000F6024093F5021A964D915C911B97509361
:100DC000FA024093F9021E964D915C915093FE02F7
:100DD0004093FD02CEEAD2E0388329839C838B8343
:100DE00060E08BE00E94700260E089810E947002E6
:100DF00060E088810E94420260E08981DF91CF91AA
:100E0000FF90EF90DF90CF90BF90AF909F908F902A
:100E10007F906F905F904F900C944202CF93DF933E
:100E2000CDB7DEB7C657D1090FB6F894DEBF0FBEF7
:100E3000CDBF789484B5826084BD84B5816084BD63
:100E400085B5826085BD85B5816085BD80916E0068
:100E5000816080936E001092810080918100826099
:100E600080938100809181008160809381008091D6
:100E700080008160809380008091B10084608093C5
:100E8000B1008091B00081608093B00080917A00C1
:100E9000846080937A0080917A00826080937A00E7
:100EA00080917A00816080937A0080917A008068D6
:100EB00080937A001092C10010924602109247026D
:100EC00010924802109249021092060210920702F4
:100ED00010920802109209020E946A036B017C01C1
:100EE0004B015C0128EB820E2BE0921EA11CB11C71
:100EF0000E946A036C157D058E059F0528F08616F5
:100F00009706A806B906A0F768EE73E080E090E0C7
:100F10000E943803E0917701F091780182E08083AC
:100F2000E0917301F09174011082E0917501F091EC
:100F3000760180E1808310927F01E0917B01F09146
:100F40007C0186E08083E0917901F0917A018081D3
:100F500080618083E0917901F0917A0180818860DD
:100F60008083E0917901F0917A01808180688083AB
:100F7000E0917901F0917A0180818F7D80830E94D8
:100F80006A036093060270930702809308029093AD
:100F9000090240E150E066E471E087E691E00E94DA
:100FA0000C010E946A036B017C014B015C013AE079
:100FB000830E911CA11CB11C0E946A036C157D0557
:100FC0008E059F0528F086169706A806B906A0F795
:100FD00081E080931A020E946A0360930602709374
:100FE0000702809308029093090246E050E067E50B
:100FF00071E087E691E00E940C0161E089E00E94C7
:10100000700261E088E00E94700261E087E00E9467
:10101000700261E086E00E94700261E085E00E945B
:10102000700261E084E00E94700261E083E00E944F
:10103000700261E082E00E94700261E08AE00E943A
:10104000700261E089E00E94420261E088E00E9453
:10105000420261E087E00E94420261E086E00E9475
:10106000420261E085E00E94420261E084E00E9469
:10107000420261E083E00E94420261E082E00E945D
:10108000420261E08AE00E9442026FEF70E08AE073
:101090000E94A1028CE08093B00244E6C42ED12CC1
:1010A000E12C04E020E0A6016AE08EEA92E00E94D2
:1010B000600441E0C41AD10898F78EEA92E00E94D9
:1010C000EF04CE01C796A7969FAF8EAFA797AEE06D
:1010D000B0E0B093EA02A093E902EAE0F0E0F09316
:1010E000EC02E093EB0225E1C22ED12CD092EE026D
:1010F000C092ED0203EB12E031EEC32E32E0D32EAC
:10110000912C812C60E0D801DC968C910E944202E7
:1011100060E0F80186AD0E94420266E970E080E07E
:1011200090E00E94380394E0A92EB12CF12CE12C20
:101130008EE00E94FE02E80EF91EF1E0AF1AB1083F
:10114000B9F761E0D801DC968C910E94420261E01F
:10115000F80186AD0E944202D601ED92FD926D012A
:10116000C701875292408E3F910508F052C3E1E0DB
:10117000F0E05D96FC93EE935C978824839466E997
:1011800070E080E090E00E9438030C5F1F4F23EC7A
:1011900032E02017310709F0B5CF81101AC08EEA6E
:1011A00092E0992059F00E94EF0420E044E06CE1C5
:1011B00071E08EEA92E00E941E04FFCF0E94EF04CD
:1011C00020E044E060E271E08EEA92E00E941E04BA
:1011D000FFCF84E6E3EBF2E0DE01119601900D9281
:1011E0008A95E1F7A091EB02B091EC02E091ED025B
:1011F000F091EE02A090EF02B090F0024091F10267
:101200005091F2026091F3027091F4022091F50284
:101210003091F6028090F7029090F8020091F90266
:101220001091FA028091FB029091FC02E090FD0285
:10123000F090FE02C090E902D090EA02D0928102C2
:10124000C0928002B0938302A0938202F093850241
:10125000E0938402FE01BF96A8E7B2E0C190D1906E
:10126000CD92DD92C48CD58C5D96DC92CE925C974B
:10127000A796CEACDFACA797CE16DF0679F7B09273
:101280008702A092860270938B0260938A029092EA
:101290008F0280928E0290939302809392025093D9
:1012A00089024093880230938D0220938C02109320
:1012B000910200939002F0929502E09294021091B4
:1012C000B9020091B80260E0802F0E94700260E0D5
:1012D000812F0E94700260E0802F0E94420260E035
:1012E000812F0E9442020093BC021093BD0244E68B
:1012F00050E05093C0024093BF028DE08093BE0245
:1013000086E9882E82E0982EF40190E080E0219119
:101310003191CC24CA94DC2C2130310509F46C01C4
:1013200001968430910531F43FEFC316D30631F4B2
:101330000E9407052FEFC216D20649F3F601EE0F01
:10134000FF1FEA56FD4F8081918122242A94322C7E
:10135000019709F41601C6010196F601EE0FFF1F71
:10136000E856FD4F8430910559F0219131912115B6
:10137000310531F02130310509F41C010196F2CF1D
:101380004FEF24163406A1F2809158029091590231
:10139000A0915A02B0915B02809368029093690217
:1013A000A0936A02B0936B0280915C0290915D02FF
:1013B000A0915E02B0915F0280936C0290936D02E7
:1013C000A0936E02B0936F028091600290916102CF
:1013D000A0916202B09163028093700290937102B7
:1013E000A0937202B093730280916402909165029F
:1013F000A0916602B0916702809374029093750287
:10140000A0937602B0937702B12CA12CD4018D91D8
:101410009D914D01BFEFAB1ABB0A009709F44BC079
:10142000019749F4E12C04E020E0A5016AE08CEB8F
:1014300092E00E9460046AE872E080E090E00E941E
:101440003803F401B09760817181072E000C880B7E
:10145000990B0E94180C25EA3CE243E05FE30E94EE
:10146000770C2B013C0120E030E0A9010E946C0EBA
:1014700020E030E040E05FE387FDCDC0C301B20172
:101480000E94580D0E94360EAB0177FF04C044271E
:101490005527461B570B77FFC3C066EFE12C04E0CE
:1014A00020E48CEB92E00E94600468EE73E080E040
:1014B00090E00E943803E4E0AE16B10409F0A6CF34
:1014C0008CEB92E00E94EF0453E0E52E01E020E077
:1014D00050E040E06AE08CEB92E00E9460046FEF25
:1014E00070E0809182020E94A1029601215F3F4F2D
:1014F000A9963FAF2EAFA997F901EE0FFF1FEE0F90
:10150000FF1FE65BFD4F60E080810E944202A10167
:10151000440F551F440F551FAB965FAF4EAFAB97AF
:10152000FA01E65BFD4F60E086AD0E9442020E9438
:101530006A03E5966CAF7DAF8EAF9FAFE5970E94D3
:101540006A03AF966CAF7DAF8EAF9FAFAF978FEF53
:1015500090E0E1969FAF8EAFE197812C912C5401E2
:101560002C183D08C101880F991F880F991FDC01B5
:10157000A659BD4FE796BFAFAEAFE797FC01E8595C
:10158000FD4F1F010E946A03E5962CAD3DAD4EADA7
:101590005FADE597621B730B840B950B613C744D3B
:1015A0008140910508F0FEC0412C512C3201C12C24
:1015B000D12C76010E946A03AF962CAD3DAD4EADA5
:1015C0005FADAF97621B730B840B950B693C710584
:1015D0008105910538F5809184020E94FE02092E52
:1015E000000CAA0BBB0BC80ED91EEA1EFB1E3FEF58
:1015F000431A530A630A730AE1966EAD7FADE19711
:10160000809182020E94A10260E570E080E090E09B
:101610000E943803CFCFC301B2010E94570D32CFD1
:101620006AE03CCFC701B601A30192010E94350DCB
:1016300029013A01E796AEADBFADE7978D919C9138
:1016400095958795D101ED91FC91B501A401865B3B
:101650009D4F0995E1969FAF8EAFE197BAE54B1686
:1016600051046104710458F16FEF70E080918202BF
:101670000E94A102A996EEADFFADA997EE0FFF1F44
:10168000EE0FFF1FE65BFD4F61E080810E9442028A
:10169000AB96EEADFFADAB97E65BFD4F61E086AD7F
:1016A0000E9442028CEB92E00E94EF0420E044E0B2
:1016B00063E173E08CEB92E00E941E04FFCFEEE446
:1016C0004E1651046104710450F420E030E040E80B
:1016D0005FE3C501B4010E94580D4B015C01D301C9
:1016E000C20183559109A109B1090597A105B10569
:1016F00050F420E030E040E85FE3C501B4010E940F
:10170000570D4B015C0104E010E0F12CE12C8091BD
:1017100080020E94FE02E80EF91E01501109B9F77D
:10172000FDE2EF16F1E0FF06FCF4A996EEADFFAD89
:10173000A997EE0FFF1FEE0FFF1FE65BFD4F61E065
:1017400080810E944202AB96EEADFFADAB97E65BA7
:10175000FD4F61E086AD0E94420261E070E0809141
:1017600082020E94A102E4CDC301B2010E94160CC4
:1017700023E938E144E250E40E94770C0E94360EDF
:10178000E12C04E020E0AB016AE08CEB92E00E94E7
:1017900060040E946A03AF966CAF7DAF8EAF9FAFBF
:1017A000AF97F0CE6FEF70E0809182020E94A102AD
:1017B000A996EEADFFADA997EE0FFF1FEE0FFF1F2D
:1017C000E65BFD4F61E080810E944202AB96EEAD88
:1017D000FFADAB97E65BFD4F61E086AD0E94420234
:1017E0008CEB92E00E94EF0460ED77E080E090E007
:1017F0000E94380390E0C92E90E0D92ECD2809F43C
:1018000066CC0E947601882309F461CC0E94000016
:101810005ECC5D961C921E925C97B6E2EB16B3E02E
:10182000FB060CF4ACCC99249394A9CCE89409C0A1
:1018300097FB3EF490958095709561957F4F8F4F03
:101840009F4F9923A9F0F92F96E9BB279395F69519
:10185000879577956795B795F111F8CFFAF4BB0F97
:1018600011F460FF1BC06F5F7F4F8F4F9F4F16C0FB
:10187000882311F096E911C0772321F09EE8872F85
:10188000762F05C0662371F096E8862F70E060E041
:101890002AF09A95660F771F881FDAF7880F9695BA
:1018A000879597F90895990F0008550FAA0BE0E85E
:1018B000FEEF16161706E807F907C0F01216130612
:1018C000E407F50798F0621B730B840B950B39F452
:1018D0000A2661F0232B242B252B21F408950A26B8
:1018E00009F4A140A6958FEF811D811D08950E94E6
:1018F0008A0C0C94FB0C0E94ED0C38F00E94F40C46
:1019000020F0952311F00C94E40C0C94EA0C1124B3
:101910000C942F0D0E940C0D70F3959FC1F3950F41
:1019200050E0551F629FF001729FBB27F00DB11D63
:10193000639FAA27F00DB11DAA1F649F6627B00DF3
:10194000A11D661F829F2227B00DA11D621F739FDC
:10195000B00DA11D621F839FA00D611D221F749FEA
:101960003327A00D611D231F849F600D211D822F31
:10197000762F6A2F11249F5750409AF0F1F0882358
:101980004AF0EE0FFF1FBB1F661F771F881F915085
:101990005040A9F79E3F510580F00C94E40C0C9444
:1019A0002F0D5F3FE4F3983ED4F3869577956795C6
:1019B000B795F795E7959F5FC1F7FE2B880F911DAF
:1019C0009695879597F9089597F99F6780E870E055
:1019D00060E008959FEF80EC089500240A941616A5
:1019E000170618060906089500240A94121613060D
:1019F000140605060895092E0394000C11F488239B
:101A000052F0BB0F40F4BF2B11F460FF04C06F5FB6
:101A10007F4F8F4F9F4F089557FD9058440F551F8C
:101A200059F05F3F71F04795880F97FB991F61F060
:101A30009F3F79F087950895121613061406551FD7
:101A4000F2CF4695F1DF08C0161617061806991F43
:101A5000F1CF86957105610508940895E894BB2738
:101A600066277727CB0197F90895A1E21A2EAA1BC2
:101A7000BB1BFD010DC0AA1FBB1FEE1FFF1FA2173E
:101A8000B307E407F50720F0A21BB30BE40BF50B3B
:101A9000661F771F881F991F1A9469F760957095C4
:101AA000809590959B01AC01BD01CF0108955058E0
:101AB000BB27AA270E946F0D0C94FB0C0E94ED0C13
:101AC00038F00E94F40C20F039F49F3F19F426F40A
:101AD0000C94EA0C0EF4E095E7FB0C94E40CE92F6F
:101AE0000E940C0D58F3BA17620773078407950715
:101AF00020F079F4A6F50C942E0D0EF4E0950B2E43
:101B0000BA2FA02D0B01B90190010C01CA01A0014F
:101B10001124FF27591B99F0593F50F4503E68F1AA
:101B20001A16F040A22F232F342F4427585FF3CFEB
:101B3000469537952795A795F0405395C9F77EF4BC
:101B40001F16BA0B620B730B840BBAF09150A1F005
:101B5000FF0FBB1F661F771F881FC2F70EC0BA0F8B
:101B6000621F731F841F48F4879577956795B79513
:101B7000F7959E3F08F0B0CF9395880F08F099270E
:101B8000EE0F9795879508950E94D80D0C94FB0C45
:101B90000E94F40C58F00E94ED0C40F029F45F3FD5
:101BA00029F00C94E40C51110C942F0D0C94EA0CB8
:101BB0000E940C0D68F39923B1F3552391F3951B03
:101BC000550BBB27AA2762177307840738F09F5F5E
:101BD0005F4F220F331F441FAA1FA9F335D00E2ECB
:101BE0003AF0E0E832D091505040E695001CCAF738
:101BF0002BD0FE2F29D0660F771F881FBB1F2617FB
:101C000037074807AB07B0E809F0BB0B802DBF01D1
:101C1000FF2793585F4F3AF09E3F510578F00C94A0
:101C2000E40C0C942F0D5F3FE4F3983ED4F38695BB
:101C300077956795B795F7959F5FC9F7880F911DC1
:101C40009695879597F90895E1E0660F771F881FAD
:101C5000BB1F621773078407BA0720F0621B730B60
:101C6000840BBA0BEE1F88F7E09508950E943D0E95
:101C70006894B1110C942F0D08950E94140D88F0F2
:101C80009F5798F0B92F9927B751B0F0E1F0660F40
:101C9000771F881F991F1AF0BA95C9F714C0B13081
:101CA00091F00E942E0DB1E008950C942E0D672F37
:101CB000782F8827B85F39F0B93FCCF386957795B0
:101CC0006795B395D9F73EF4909580957095619599
:101CD0007F4F8F4F9F4F08950E94530C08F48FEF52
:101CE0000895AA1BBB1B51E107C0AA1FBB1FA61763
:101CF000B70710F0A61BB70B881F991F5A95A9F7B5
:101D000080959095BC01CD010895EE0FFF1F0590C1
:0A1D1000F491E02D0994F894FFCF40
:101D1A00090005000800040007000300060002008D
:101D2A003F5C54797177303871003F393F5C5479A0
:101D3A00545C007C3F065B4F666D7D077F6F777C46
:101D4A00395E797100000000AC010C013901F9011A
:101D5A006A0148015C01564D4450565F317C315F3F
:0E1D6A00564D4450560A00564D4450525F00EC
:00000001FF
