:100000000C9462000C948A000C948A000C948A0070
:100010000C948A000C948A000C948A000C948A0038
:100020000C948A000C948A000C948A000C948A0028
:100030000C948A000C948A000C948A000C948A0018
:100040000C94BA050C948A000C9488050C946205F3
:100050000C948A000C948A000C948A000C948A00F8
:100060000C948A000C948A000000000023002600F3
:10007000290000000000240027002A0000000000E2
:10008000250028002B0004040404040404040202D4
:100090000202020203030303030301020408102007
:1000A0004080010204081020010204081020000012
:1000B0000008000201000003040700000000000027
:1000C0000000040611241FBECFEFD8E0DEBFCDBF75
:1000D00011E0A0E0B1E0E0E5FCE102C005900D9286
:1000E000A234B107D9F722E0A2E4B1E001C01D9229
:1000F000AD3AB207E1F710E0C2E6D0E004C02197C4
:10010000FE010E94200EC136D107C9F70E942A07BE
:100110000C94260E0C940000CB01BA0120E030E0D4
:1001200040E05FE30E94590D20E030E040E85FE3EB
:100130000E94B20B9B01AC0160E070E08CE092E4A5
:100140000E941E0C20E030E04CE553E40E94B20B0C
:100150000E94900CCB010895CB01BA0120E030E061
:1001600040E05FE30E94590D20E030E040E85FE3AB
:100170000E94B20B9B01AC0160E070E08CE392E462
:100180000E941E0C20E030E040E553E40E94B20BD8
:100190000E94900CCB010895CB01BA012DEC3CECF0
:1001A0004CEC5EE30E94590D20E030E040E85FE354
:1001B0000E94B20B9B01AC0160E070E082E892E427
:1001C0000E941E0C20E030E04EE353E40E94B20B8C
:1001D0000E94900CCB010895CB01BA012DEC3CECB0
:1001E0004CE45FE30E94590D20E030E040E85FE31B
:1001F0000E94B20B9B01AC0160E070E085E293E4E9
:100200000E941E0C20E030E044EB52E40E94B20B4E
:100210000E94900CCB010895AF92BF92CF92DF92D3
:10022000EF92FF920F931F93CF93DF936C017B01AB
:100230008B01040F151FEB015E01AE18BF08C0173C
:10024000D10759F06991D601ED91FC910190F081AF
:10025000E02DC6010995892B79F7C501DF91CF9172
:100260001F910F91FF90EF90DF90CF90BF90AF90D4
:100270000895FC01538D448D252F30E0842F90E0AC
:10028000821B930B541710F0CF9608950197089591
:10029000FC01918D828D981761F0A28DAE0FBF2F5A
:1002A000B11D5D968C91928D9F5F9F73928F90E0B0
:1002B00008958FEF9FEF0895FC01918D828D98171F
:1002C00031F0828DE80FF11D858D90E008958FEF5C
:1002D0009FEF0895FC01918D228D892F90E0805C25
:1002E0009F4F821B91098F73992708958BE491E0AA
:1002F0000E946A0121E0892B09F420E0822F0895F1
:1003000080E090E0892B29F00E94760181110C9405
:1003100000000895FC01A48DA80FB92FB11DA35AA8
:10032000BF4F2C91848D90E001968F739927848F15
:10033000A689B7892C93A089B1898C918370806438
:100340008C93938D848D981306C00288F389E02DD9
:1003500080818F7D80830895EF92FF920F931F938A
:10036000CF93DF93EC0181E0888F9B8D8C8D981368
:100370001AC0E889F989808185FF15C09FB7F89474
:10038000EE89FF896083E889F989808183708064C0
:1003900080839FBF81E090E0DF91CF911F910F910B
:1003A000FF90EF900895F62E0B8D10E00F5F1F4F1A
:1003B0000F731127E02E8C8D8E110CC00FB607FC29
:1003C000FACFE889F989808185FFF5CFCE010E94B7
:1003D0008A01F1CFEB8DEC0FFD2FF11DE35AFF4F9A
:1003E000F0829FB7F8940B8FEA89FB898081806245
:1003F000CFCFCF93DF93EC01888D8823B9F0AA8902
:10040000BB89E889F9898C9185FD03C0808186FDCF
:100410000DC00FB607FCF7CF8C9185FFF2CF80811E
:1004200085FFEDCFCE010E948A01E9CFDF91CF9108
:100430000895833081F028F4813099F08230A9F05A
:1004400008958730A9F08830C9F08430B1F48091E4
:1004500080008F7D03C0809180008F778093800023
:10046000089584B58F7784BD089584B58F7DFBCFC3
:100470008091B0008F778093B00008958091B00094
:100480008F7DF9CF1F93CF93DF93282F30E0F901B1
:10049000E255FF4F8491F901E656FF4FD491F901DF
:1004A000EA57FF4FC491CC23A9F0162F81110E9467
:1004B0001902EC2FF0E0EE0FFF1FE458FF4FA5915B
:1004C000B4918FB7F894EC91111108C0D095DE2348
:1004D000DC938FBFDF91CF911F910895DE2BF8CF72
:1004E000CF93DF9390E0FC01E656FF4F24918A57AB
:1004F0009F4FFC0184918823D1F090E0880F991FD1
:10050000FC01EE58FF4FA591B491FC01E458FF4F58
:10051000C591D49161110EC09FB7F8948C91E22FD0
:10052000E0958E238C932881E223E8839FBFDF919F
:10053000CF9108958FB7F894EC91E22BEC938FBF95
:10054000F6CF1F93CF93DF93182FEB0161E00E944A
:100550007002209739F460E0812FDF91CF911F91D5
:100560000C944202CF3FD10511F461E0F5CFE12FA9
:10057000F0E0E255FF4FE491E33031F140F4E13037
:10058000B1F0E230E1F0C038D1057CF7E4CFE730DC
:1005900029F1E83059F1E430B1F7809180008062B0
:1005A00080938000D0938B00C0938A0004C084B5F0
:1005B000806884BDC7BDDF91CF911F91089584B538
:1005C000806284BDC8BDF7CF809180008068809331
:1005D0008000D0938900C0938800EDCF8091B00057
:1005E00080688093B000C093B300E5CF8091B000E5
:1005F00080628093B000C093B400DDCF8E3008F0ED
:100600008E508770806480937C0080917A00806433
:1006100080937A0080917A0086FDFCCF80917800EB
:100620009091790008953FB7F89480914701909197
:100630004801A0914901B0914A0126B5A89B05C087
:100640002F3F19F00196A11DB11D3FBFBA2FA92F51
:10065000982F8827BC01CD01620F711D811D911D4E
:1006600042E0660F771F881F991F4A95D1F70895BA
:100670008F929F92AF92BF92CF92DF92EF92FF92B2
:100680004B015C010E9413036B017C010E94130368
:100690006C197D098E099F09683E7340810591059B
:1006A000A8F321E0821A9108A108B10888EEC80ECB
:1006B00083E0D81EE11CF11C81149104A104B10453
:1006C00029F7FF90EF90DF90CF90BF90AF909F9071
:1006D0008F9008952FB7F894609143017091440171
:1006E00080914501909146012FBF0895FC018381BF
:1006F00094818230910538F0880F991F880F991FD7
:1007000005970197F1F70895EF92FF920F931F93CA
:10071000CF93DF93EC01062F18E061E088810E94FF
:100720007002CE010E947603E02EF12C60E000FF03
:1007300061E089810E947002CE010E94760360E030
:1007400088810E947002CE010E947603F594E7949E
:100750000E2D115011F761E088810E94700260E057
:1007600089810E947002CE010E94760360E0888138
:100770000E947002CE010E947603298130E0F901C7
:10078000E255FF4F8491F901E656FF4F0491F901BC
:10079000EA57FF4F1491112349F181110E94190268
:1007A000E12FF0E0EE0FFF1FE859FF4FA591B49144
:1007B000EC910E2311E009F410E0111104C061E086
:1007C00089810E947002CE010E94760361E08881D7
:1007D0000E947002CE010E947603812F8170DF910A
:1007E000CF911F910F91FF90EF90089510E0E7CF08
:1007F000CF93DF93EC0161E089810E947002CE010A
:100800000E94760360E088810E947002CE010E94FF
:10081000760360E089810E947002CE01DF91CF9162
:100820000C947603CF93DF93EC0161E089810E9401
:100830007002CE01DF91CF910C947603CF92DF92BC
:10084000EF92FF920F931F93CF93DF93EC01F62E5D
:10085000C72EE42E122F0E94120460E4CE010E94E3
:100860008403CE010E94F803CE010E94120460ECC2
:10087000610FCE010E948403DF2C0F2D1C2DF80187
:1008800061918F01CE010E948403802F8D198E15F6
:10089000B0F3CE010E94F803CE010E9412046A81D7
:1008A0006F706058CE010E948403CE01DF91CF911A
:1008B0001F910F91FF90EF90DF90CF900C94F80371
:1008C0004F925F926F927F928F929F92AF92BF9260
:1008D000CF92DF92EF920F931F93CF93DF9300D0CD
:1008E00000D0CDB7DEB74C016A01402F30E067FF82
:1008F00002C0619531E0E42FF0E0CF010197DE0105
:1009000011965D01C114D10451F550E0252F30E05E
:100910002817390734F42A0D3B1DF90110825F5F57
:10092000F5CF8A0D9B1D2FE3DC012C932E2DB501F5
:10093000C4010E941E040F900F900F900F90DF9142
:10094000CF911F910F91EF90DF90CF90BF90AF901C
:100950009F908F907F906F905F904F900895EA0FD7
:10096000FB1F662E660F770810E4C601B3010E94D4
:10097000EA0D582FDF0111972D0181110CC0C11410
:10098000D10449F41C92332381F0D2011C9330E04E
:100990000CC0F201EACF845E9E4FDC018C91D20143
:1009A0008C93511102C0CD2871F36B01D2014A140E
:1009B0005B0479F7222309F4B9CF6F0183E0C80EF5
:1009C000D11C9D91BD0161507109822F8078892BC6
:1009D000FB018083220FCA16DB0699F7A7CFCF93BE
:1009E000DF9300D000D0CDB7DEB719821A821B8208
:1009F0001C8220E044E0BE016F5F7F4F0E941E0416
:100A00000F900F900F900F90DF91CF91089586E592
:100A100092E00E94EF0420E044E069EA72E086E59B
:100A200092E00E941E04FFCF8F929F92AF92BF92DE
:100A30000F931F93CF93DF93CDB7DEB7A1970FB678
:100A4000F894DEBF0FBECDBF19A2423008F44AE0D1
:100A50008E010F5D1F4F842E912CB12CA12CA5016E
:100A600094010E94FE0DE62FB901CA01EA3044F557
:100A7000E05DD801EE938D01232B242B252B79F7F4
:100A800090E080E0109769F0FD0101900020E9F707
:100A90003197AF014A1B5B0BBD018BE491E00E94D3
:100AA0000C01A1960FB6F894DEBF0FBECDBFDF914B
:100AB000CF911F910F91BF90AF909F908F9008950D
:100AC000E95CD7CF1F920F920FB60F9211242F938C
:100AD0003F934F935F936F937F938F939F93AF93C6
:100AE000BF93EF93FF938BE491E00E948A01FF9103
:100AF000EF91BF91AF919F918F917F916F915F9196
:100B00004F913F912F910F900FBE0F901F9018950E
:100B10001F920F920FB60F9211242F938F939F93D2
:100B2000EF93FF93E0915B01F0915C018081E09194
:100B30006101F091620182FD1BC09081809164018E
:100B40008F5F8F7320916501821741F0E0916401FE
:100B5000F0E0E55BFE4F958F80936401FF91EF918C
:100B60009F918F912F910F900FBE0F901F9018950E
:100B70008081F4CF1F920F920FB60F9211242F9302
:100B80003F938F939F93AF93BF9380914301909135
:100B90004401A0914501B09146013091420123E00A
:100BA000230F2D3758F50196A11DB11D2093420149
:100BB0008093430190934401A0934501B093460173
:100BC0008091470190914801A0914901B0914A015B
:100BD0000196A11DB11D8093470190934801A093F8
:100BE0004901B0934A01BF91AF919F918F913F917D
:100BF0002F910F900FBE0F901F90189526E8230F8E
:100C00000296A11DB11DD2CF8F929F92AF92BF923B
:100C1000CF92DF92EF92FF92CF93DF93EBE4F1E07C
:100C20001382128288EE93E0A0E0B0E08483958383
:100C3000A683B78380E391E09183808385EC90E085
:100C40009587848784EC90E09787868780EC90E096
:100C5000918B808B81EC90E0938B828B82EC90E087
:100C6000958B848B86EC90E0978B868B118E128E01
:100C7000138E148EE8EEF1E010821182148213823A
:100C80003BE035832CE0268384E690E090878783E1
:100C90001186128615861486CCE8D0E0D787C687E1
:100CA000118A108AACEAB0E0B38BA28B158A148A41
:100CB0006CEC70E0778B668B118E108E4CEE50E0F2
:100CC000538F428F158E148E17AA16AA11AE10AE2E
:100CD00013AE12AE10923D0210923C0210923F02EF
:100CE00010923E028090100190901101A09012018C
:100CF000B09013018092400290924102A092420271
:100D0000B0924302C0901401D0901501E0901601FA
:100D1000F0901701C0924402D0924502E092460240
:100D2000F0924702EDE4F2E0108211821482138205
:100D300035832683908787831186128615861486CD
:100D4000D787C687118A108AB38BA28B158A148A1B
:100D5000778B668B118E108E538F428F158E148E6B
:100D600017AA16AA11AE10AE13AE12AE1092A202BE
:100D70001092A1021092A4021092A3028092A502E6
:100D80009092A602A092A702B092A802C092A902D5
:100D9000D092AA02E092AB02F092AC02A0E0B1E0E5
:100DA0004D915C91119755AF44AF14964D915C9164
:100DB000159750938E0240938D0218964D915C9139
:100DC000199750939202409391021C964D915C9119
:100DD0001D97509396024093950212964D915C9107
:100DE000139757AF46AF16964D915C911797509356
:100DF000900240938F021A964D915C911B975093ED
:100E00009402409393021E964D915C9150939802E8
:100E100040939702C8E4D2E0388329839C838B8374
:100E200060E08BE00E94700260E089810E947002A5
:100E300060E088810E94420260E08981DF91CF9169
:100E4000FF90EF90DF90CF90BF90AF909F908F90EA
:100E50000C944202CF93DF93CDB7DEB7C457D109CC
:100E60000FB6F894DEBF0FBECDBF789484B5826014
:100E700084BD84B5816084BD85B5826085BD85B53E
:100E8000816085BD80916E00816080936E001092BC
:100E90008100809181008260809381008091810037
:100EA00081608093810080918000816080938000C8
:100EB0008091B10084608093B1008091B000816026
:100EC0008093B00080917A00846080937A00809152
:100ED0007A00826080937A0080917A0081608093AA
:100EE0007A0080917A00806880937A001092C10025
:100EF00061E089E00E94700261E088E00E94700277
:100F000061E087E00E94700261E086E00E9470026A
:100F100061E085E00E94700261E084E00E9470025E
:100F200061E083E00E94700261E082E00E94700252
:100F300061E08AE00E94700261E089E00E94420262
:100F400061E088E00E94420261E087E00E94420284
:100F500061E086E00E94420261E085E00E94420278
:100F600061E084E00E94420261E083E00E9442026C
:100F700061E082E00E94420261E08AE00E94420257
:100F80006FEF70E08AE00E94A1028CE080934A0239
:100F900034E6C32ED12CE12C04E020E0A6016AE067
:100FA00088E492E00E94600421E0C21AD10898F718
:100FB00088E492E00E94EF04E0915B01F0915C0113
:100FC00082E08083E0915701F09158011082E09116
:100FD0005901F0915A0180E1808310926301E09100
:100FE0005F01F091600186E08083E0915D01F09106
:100FF0005E01808180618083E0915D01F0915E01FE
:10100000808188608083E0915D01F0915E01808144
:1010100080688083E0915D01F0915E0180818F7D29
:101020008083AE01495C5F4FA3965FAF4EAFA3973D
:101030008EE090E09093840280938302AAE0B0E077
:10104000B0938602A0938502E5E1F0E0F093880278
:10105000E09387020DE412E02BE7C22E22E0D22EAD
:10106000912C60E0D801DC968C910E94420260E0F5
:10107000F80186AD0E94420266E970E080E090E0EF
:101080000E94380394E0A92EB12CF12CE12C8EE0C3
:101090000E94FE02E80EF91EF1E0AF1AB108B9F79E
:1010A00061E0D801DC968C910E94420261E0F80177
:1010B00086AD0E944202D601ED92FD926D01B7E22B
:1010C000EB1AB2E0FB0AEEEFEE16F10408F043C3B0
:1010D000E1E0F0E0D6015D96FC93EE935C979924F5
:1010E000939466E970E080E090E00E9438030C5F22
:1010F0001F4F2DE532E02017310709F0B2CF9110D4
:101100000DC088E492E00E94EF0420E044E068E132
:1011100071E088E492E00E941E04FFCF80E6EDE4D7
:10112000F2E0DE01119601900D928A95E1F7A0910F
:101130008502B0918602E0918702F0918802A0902A
:101140008902B0908A0260918B0270918C0280902B
:101150008D0290908E02E0908F02F09090020091AC
:101160009102109192024091930250919402209129
:101170009502309196028091970290919802C090CA
:101180008302D0908402D0921F02C0921E02B093BC
:101190002102A0932002F0932302E0932202FE0199
:1011A000BF96A6E1B2E0C190D190CD92DD92C48C01
:1011B000D58C5D96DC92CE925C97A396CEACDFACDC
:1011C000A397EC15FD0579F7B0922502A0922402B1
:1011D000909229028092280210932D0200932C02F3
:1011E00030933102209330027093270260932602DD
:1011F000F0922B02E0922A0250932F0240932E028B
:101200009093330280933202109153020091520264
:1012100060E0802F0E94700260E0812F0E947002C7
:1012200060E0802F0E94420260E0812F0E94420213
:10123000009356021093570244E650E050935A022E
:10124000409359028DE08093580284E3882E82E017
:10125000982EF40190E080E021913191CC24CA9441
:10126000DC2C2130310509F46C01019684309105A4
:1012700031F43FEFC316D30631F40E9407052FEF78
:10128000C216D20649F3F601EE0FFF1FEC5CFD4FCC
:101290008081918122242A94322C019709F416012D
:1012A000C6010196F601EE0FFF1FEA5CFD4F843088
:1012B000910541F0219131912130310509F41C0152
:1012C0000196F5CF4FEF24163406B9F28091F6015E
:1012D0009091F701A091F801B091F9018093060275
:1012E00090930702A0930802B09309028091FA013B
:1012F0009091FB01A091FC01B091FD0180930A0245
:1013000090930B02A0930C02B0930D028091FE010A
:101310009091FF01A0910002B091010280930E0212
:1013200090930F02A0931002B093110280910202D9
:1013300090910302A0910402B091050280931202E1
:1013400090931302A0931402B0931502B12CA12C18
:10135000D4018D919D914D01BFEFAB1ABB0A00974F
:1013600009F44BC0019749F4E12C04E020E0A50109
:101370006AE086E592E00E9460046EEE72E080E032
:1013800090E00E943803F401B09760817181072ECC
:10139000000C880B990B0E94C80C2FEE38E345E037
:1013A0005FE30E94590D2B013C0120E030E0A901D0
:1013B0000E94540D20E030E040E05FE387FDD0C0A4
:1013C000C301B2010E94B20B0E94900CAB0177FFE7
:1013D00004C044275527461B570B77FFC6C066EF4E
:1013E000E12C04E020E486E592E00E94600462EED5
:1013F00074E080E090E00E943803E4E0AE16B104AF
:1014000009F0A6CF86E592E00E94EF0433E0E32ED8
:1014100001E020E050E040E06AE086E592E00E94D2
:1014200060046FEF70E0809120020E94A10296019B
:10143000215F3F4FA7963FAF2EAFA797F901EE0F61
:10144000FF1FEE0FFF1FE851FE4F60E080810E94FA
:101450004202A101440F551F440F551FA9965FAFCB
:101460004EAFA997FA01E851FE4F60E086AD0E94A9
:1014700042020E946A03E1966CAF7DAF8EAF9FAFD0
:10148000E1970E946A03AD966CAF7DAF8EAF9FAFC0
:10149000AD978FEF90E0A5969FAF8EAFA597812C6B
:1014A000912C54012C183D08C101880F991F880FF9
:1014B000991FDC01A85FBD4FE396BFAFAEAFE397C6
:1014C000FC01EA5FFD4FE596FFAFEEAFE5970E94A6
:1014D0006A03E1962CAD3DAD4EAD5FADE197621B69
:1014E000730B840B950B613C744D8140910508F0A2
:1014F000FDC0412C512C3201C12CD12C76010E940F
:101500006A03AD962CAD3DAD4EAD5FADAD97621BA0
:10151000730B840B950B693C71058105910538F5BA
:10152000809122020E94FE02092E000CAA0BBB0B26
:10153000C80ED91EEA1EFB1E3FEF431A530A630A68
:10154000730AA5966EAD7FADA597809120020E948B
:10155000A10260E570E080E090E00E943803CFCF08
:10156000C301B2010E94B10B2FCF6AE039CFC7018E
:10157000B601A30192010E94FE0D29013A01E396F2
:10158000AEADBFADE3978D919C9195958795E5960E
:10159000AEADBFADE597ED91FC91B501A4018851C9
:1015A0009E4F0995A5969FAF8EAFA597BAE54B16AE
:1015B00051046104710438F06FEF70E080912002F3
:1015C0000E94A1025ACEEEE44E1651046104710449
:1015D00050F420E030E040E85FE3C501B4010E9430
:1015E000B20B4B015C01D301C20183559109A109E2
:1015F000B1090597A105B10550F420E030E040E8BD
:101600005FE3C501B4010E94B10B4B015C0104E032
:1016100010E0312C212C80911E020E94FE02280E27
:10162000391E01501109B9F7A5962EAD3FADA5970A
:101630006901330FEE08FF084AE0C701B601F7FE63
:101640000DC06DE28BE491E00E94AC016627772724
:10165000CB016C197D098E099F094AE00E9414058F
:1016600042E050E06EE371E08BE491E00E940C01F7
:101670003DE2231631E03306DCF4A796EEADFFAD74
:10168000A797EE0FFF1FEE0FFF1FE851FE4F61E01F
:1016900080810E944202A996EEADFFADA997E85164
:1016A000FE4F61E086AD0E94420261E070E086CFAD
:1016B000C301B2010E94C60C23E938E144E250E4C0
:1016C0000E94590D0E94900CE12C04E020E0AB0137
:1016D0006AE086E592E00E9460040E946A03AD968B
:1016E0006CAF7DAF8EAF9FAFAD97F1CE6FEF70E077
:1016F000809120020E94A102A796EEADFFADA797B0
:10170000EE0FFF1FEE0FFF1FE851FE4F61E08081DB
:101710000E944202A996EEADFFADA997E851FE4F97
:1017200061E086AD0E94420286E592E00E94EF04ED
:1017300060ED77E080E090E00E94380340E050E008
:10174000452B09F475CC0E947601882309F470CCEE
:101750000E9400006DCCD6015D961C921E925C9793
:10176000C0CC5058BB27AA270E94C90B0C941A0D55
:101770000E940C0D38F00E94130D20F039F49F3FA9
:1017800019F426F40C94090D0EF4E095E7FB0C9483
:10179000030DE92F0E942B0D58F3BA176207730748
:1017A0008407950720F079F4A6F50C944D0D0EF4FE
:1017B000E0950B2EBA2FA02D0B01B90190010C0161
:1017C000CA01A0011124FF27591B99F0593F50F479
:1017D000503E68F11A16F040A22F232F342F4427D1
:1017E000585FF3CF469537952795A795F0405395C9
:1017F000C9F77EF41F16BA0B620B730B840BBAF099
:101800009150A1F0FF0FBB1F661F771F881FC2F703
:101810000EC0BA0F621F731F841F48F48795779517
:101820006795B795F7959E3F08F0B0CF9395880FD1
:1018300008F09927EE0F9795879508950E94320C2E
:101840000C941A0D0E94130D58F00E940C0D40F0DC
:1018500029F45F3F29F00C94030D51110C944E0DA7
:101860000C94090D0E942B0D68F39923B1F35523B5
:1018700091F3951B550BBB27AA27621773078407A3
:1018800038F09F5F5F4F220F331F441FAA1FA9F339
:1018900035D00E2E3AF0E0E832D091505040E69527
:1018A000001CCAF72BD0FE2F29D0660F771F881F88
:1018B000BB1F261737074807AB07B0E809F0BB0B7B
:1018C000802DBF01FF2793585F4F3AF09E3F51058F
:1018D00078F00C94030D0C944E0D5F3FE4F3983EAA
:1018E000D4F3869577956795B795F7959F5FC9F778
:1018F000880F911D9695879597F90895E1E0660FF9
:10190000771F881FBB1F621773078407BA0720F071
:10191000621B730B840BBA0BEE1F88F7E0950895DA
:101920000E94970C6894B1110C944E0D08950E947A
:10193000330D88F09F5798F0B92F9927B751B0F021
:10194000E1F0660F771F881F991F1AF0BA95C9F743
:1019500014C0B13091F00E944D0DB1E008950C9487
:101960004D0D672F782F8827B85F39F0B93FCCF33A
:10197000869577956795B395D9F73EF490958095C0
:10198000709561957F4F8F4F9F4F0895E89409C0E0
:1019900097FB3EF490958095709561957F4F8F4FA2
:1019A0009F4F9923A9F0F92F96E9BB279395F695B8
:1019B000879577956795B795F111F8CFFAF4BB0F36
:1019C00011F460FF1BC06F5F7F4F8F4F9F4F16C09A
:1019D000882311F096E911C0772321F09EE8872F24
:1019E000762F05C0662371F096E8862F70E060E0E0
:1019F0002AF09A95660F771F881FDAF7880F969559
:101A0000879597F9089597F99F6780E870E060E0FF
:101A100008959FEF80EC089500240A941616170687
:101A200018060906089500240A94121613061406CF
:101A300005060895092E0394000C11F4882352F032
:101A4000BB0F40F4BF2B11F460FF04C06F5F7F4FEA
:101A50008F4F9F4F089557FD9058440F551F59F0D1
:101A60005F3F71F04795880F97FB991F61F09F3F8B
:101A700079F087950895121613061406551FF2CFB4
:101A80004695F1DF08C0161617061806991FF1CF04
:101A900086957105610508940895E894BB2766272B
:101AA0007727CB0197F908950E94C60D08F48FEFB0
:101AB00008950E946C0D0C941A0D0E940C0D38F0C4
:101AC0000E94130D20F0952311F00C94030D0C943B
:101AD000090D11240C944E0D0E942B0D70F3959F4F
:101AE000C1F3950F50E0551F629FF001729FBB2715
:101AF000F00DB11D639FAA27F00DB11DAA1F649FB1
:101B00006627B00DA11D661F829F2227B00DA11D63
:101B1000621F739FB00DA11D621F839FA00D611DE9
:101B2000221F749F3327A00D611D231F849F600D0A
:101B3000211D822F762F6A2F11249F5750409AF033
:101B4000F1F088234AF0EE0FFF1FBB1F661F771FBF
:101B5000881F91505040A9F79E3F510580F00C948A
:101B6000030D0C944E0D5F3FE4F3983ED4F386953D
:101B700077956795B795F795E7959F5FC1F7FE2B2A
:101B8000880F911D9695879597F90895990F0008EC
:101B9000550FAA0BE0E8FEEF16161706E807F9073F
:101BA000C0F012161306E407F50798F0621B730BDA
:101BB000840B950B39F40A2661F0232B242B252B5B
:101BC00021F408950A2609F4A140A6958FEF811DFE
:101BD000811D0895AA1BBB1B51E107C0AA1FBB1F93
:101BE000A617B70710F0A61BB70B881F991F5A95A9
:101BF000A9F780959095BC01CD010895A1E21A2E18
:101C0000AA1BBB1BFD010DC0AA1FBB1FEE1FFF1FA0
:101C1000A217B307E407F50720F0A21BB30BE40BF0
:101C2000F50B661F771F881F991F1A9469F7609537
:101C30007095809590959B01AC01BD01CF010895F1
:101C4000EE0FFF1F0590F491E02D0994F894FFCF5B
:101C50000900050008000400070003000600020058
:101C60003F5C547971773038545C007C3F065B4FA1
:101C7000666D7D077F6F777C395E797100000000AB
:101C8000AC010C013901F9016A0148015C010D0A3E
:021C9000000052
:107E0000112484B714BE81FFF0D085E080938100F7
:107E100082E08093C00088E18093C10086E0809377
:107E2000C20080E18093C4008EE0C9D0259A86E02C
:107E300020E33CEF91E0309385002093840096BBD3
:107E4000B09BFECF1D9AA8958150A9F7CC24DD24C4
:107E500088248394B5E0AB2EA1E19A2EF3E0BF2EE7
:107E6000A2D0813461F49FD0082FAFD0023811F036
:107E7000013811F484E001C083E08DD089C08234E0
:107E800011F484E103C0853419F485E0A6D080C0E4
:107E9000853579F488D0E82EFF2485D0082F10E0AE
:107EA000102F00270E291F29000F111F8ED06801E7
:107EB0006FC0863521F484E090D080E0DECF843638
:107EC00009F040C070D06FD0082F6DD080E0C81688
:107ED00080E7D80618F4F601B7BEE895C0E0D1E017
:107EE00062D089930C17E1F7F0E0CF16F0E7DF06D8
:107EF00018F0F601B7BEE89568D007B600FCFDCFD4
:107F0000A601A0E0B1E02C9130E011968C91119780
:107F100090E0982F8827822B932B1296FA010C0160
:107F200087BEE89511244E5F5F4FF1E0A038BF0790
:107F300051F7F601A7BEE89507B600FCFDCF97BE46
:107F4000E89526C08437B1F42ED02DD0F82E2BD052
:107F50003CD0F601EF2C8F010F5F1F4F84911BD097
:107F6000EA94F801C1F70894C11CD11CFA94CF0C13
:107F7000D11C0EC0853739F428D08EE10CD085E9AC
:107F80000AD08FE07ACF813511F488E018D01DD067
:107F900080E101D065CF982F8091C00085FFFCCF94
:107FA0009093C60008958091C00087FFFCCF809118
:107FB000C00084FD01C0A8958091C6000895E0E648
:107FC000F0E098E1908380830895EDDF803219F02E
:107FD00088E0F5DFFFCF84E1DECF1F93182FE3DFCA
:107FE0001150E9F7F2DF1F91089580E0E8DFEE27F6
:047FF000FF270994CA
:027FFE00040479
:0400000300007E007B
:00000001FF