:100000000C9462000C948A000C948A000C948A0070
:100010000C948A000C948A000C948A000C948A0038
:100020000C948A000C948A000C948A000C948A0028
:100030000C948A000C948A000C948A000C948A0018
:100040000C94E3050C948A000C94B1050C948B0578
:100050000C948A000C948A000C948A000C948A00F8
:100060000C948A000C948A000000000023002600F3
:10007000290000000000240027002A0000000000E2
:10008000250028002B0004040404040404040202D4
:100090000202020203030303030301020408102007
:1000A0004080010204081020010204081020000012
:1000B0000008000201000003040700000000000027
:1000C00000002D0611241FBECFEFD8E0DEBFCDBF4C
:1000D00023E0AEE6B1E001C01D92AB31B207E1F71B
:1000E00011E0A0E0B1E0E6E0FEE102C005900D9273
:1000F000AE36B107D9F710E0C2E6D0E004C02197D0
:10010000FE010E94FB0EC136D107C9F70E945507B8
:100110000C94010F0C940000CB01BA0120E030E0F8
:1001200040E05FE30E94F20C20E030E040E85FE353
:100130000E94D30D9B01AC0160E070E08CE092E482
:100140000E943F0E20E030E04CE553E40E94D30DC6
:100150000E94B10ECB010895CB01BA0120E030E03E
:1001600040E05FE30E94F20C20E030E040E85FE313
:100170000E94D30D9B01AC0160E070E08CE392E43F
:100180000E943F0E20E030E040E553E40E94D30D92
:100190000E94B10ECB010895CB01BA0123E333E3F2
:1001A00043E35FE30E94F20C20E030E040E85FE3CD
:1001B0000E94D30D9B01AC0160E070E08CE892E4FA
:1001C0000E943F0E20E030E049E353E40E94D30D4B
:1001D0000E94B10ECB010895CB01BA0120E030E0BE
:1001E00040E85FE30E94D30D9B01AC0160E070E04A
:1001F00085E793E40E943F0E20E030E040E251E4C6
:100200000E94D30D0E94B10ECB010895AF92BF9210
:10021000CF92DF92EF92FF920F931F93CF93DF93D2
:100220006C017B018B01040F151FEB015E01AE1801
:10023000BF08C017D10759F06991D601ED91FC9123
:100240000190F081E02DC6010995892B79F7C50150
:10025000DF91CF911F910F91FF90EF90DF90CF90A2
:10026000BF90AF900895FC01538D448D252F30E051
:10027000842F90E0821B930B541710F0CF960895B3
:1002800001970895FC01918D828D981761F0A28DE0
:10029000AE0FBF2FB11D5D968C91928D9F5F9F73A6
:1002A000928F90E008958FEF9FEF0895FC01918D5C
:1002B000828D981731F0828DE80FF11D858D90E0C9
:1002C00008958FEF9FEF0895FC01918D228D892F66
:1002D00090E0805C9F4F821B91098F73992708954E
:1002E0008BE791E00E94640121E0892B09F420E072
:1002F000822F089580E090E0892B29F00E94700100
:1003000081110C9400000895FC01A48DA80FB92F51
:10031000B11DA35ABF4F2C91848D90E001968F732D
:100320009927848FA689B7892C93A089B1898C914C
:10033000837080648C93938D848D981306C002889B
:10034000F389E02D80818F7D80830895EF92FF9265
:100350000F931F93CF93DF93EC0181E0888F9B8DE8
:100360008C8D98131AC0E889F989808185FF15C0A2
:100370009FB7F894EE89FF896083E889F9898081C5
:100380008370806480839FBF81E090E0DF91CF9194
:100390001F910F91FF90EF900895F62E0B8D10E0B6
:1003A0000F5F1F4F0F731127E02E8C8D8E110CC025
:1003B0000FB607FCFACFE889F989808185FFF5CF70
:1003C000CE010E948401F1CFEB8DEC0FFD2FF11DCA
:1003D000E35AFF4FF0829FB7F8940B8FEA89FB89AD
:1003E00080818062CFCFCF93DF93EC01888D88230B
:1003F000B9F0AA89BB89E889F9898C9185FD03C088
:10040000808186FD0DC00FB607FCF7CF8C9185FF6C
:10041000F2CF808185FFEDCFCE010E948401E9CF2C
:10042000DF91CF910895833081F028F4813099F0E5
:100430008230A9F008958730A9F08830C9F084305F
:10044000B1F4809180008F7D03C0809180008F7710
:1004500080938000089584B58F7784BD089584B516
:100460008F7DFBCF8091B0008F778093B00008958F
:100470008091B0008F7DF9CF1F93CF93DF93282F0A
:1004800030E0F901E255FF4F8491F901E656FF4F44
:10049000D491F901EA57FF4FC491CC23A9F0162F4C
:1004A00081110E941302EC2FF0E0EE0FFF1FE458C1
:1004B000FF4FA591B4918FB7F894EC91111108C03A
:1004C000D095DE23DC938FBFDF91CF911F910895EC
:1004D000DE2BF8CFCF93DF9390E0FC01E656FF4F81
:1004E00024918A579F4FFC0184918823D1F090E09A
:1004F000880F991FFC01EE58FF4FA591B491FC01A4
:10050000E458FF4FC591D49161110EC09FB7F89484
:100510008C91E22FE0958E238C932881E223E8834F
:100520009FBFDF91CF9108958FB7F894EC91E22BA4
:10053000EC938FBFF6CF1F93CF93DF93182FEB0170
:1005400061E00E946A02209739F460E0812FDF9118
:10055000CF911F910C943C02CF3FD10511F461E083
:10056000F5CFE12FF0E0E255FF4FE491E33031F1B8
:1005700040F4E130B1F0E230E1F0C038D1057CF771
:10058000E4CFE73029F1E83059F1E430B1F7809158
:100590008000806280938000D0938B00C0938A009B
:1005A00004C084B5806884BDC7BDDF91CF911F9121
:1005B000089584B5806284BDC8BDF7CF8091800066
:1005C000806880938000D0938900C0938800EDCF2D
:1005D0008091B00080688093B000C093B300E5CFF5
:1005E0008091B00080628093B000C093B400DDCFF2
:1005F0008E3008F08E508770806480937C008091EC
:100600007A00806480937A0080917A0086FDFCCF26
:10061000809178009091790008953FB7F894809187
:10062000730190917401A0917501B091760126B586
:10063000A89B05C02F3F19F00196A11DB11D3FBF1A
:10064000BA2FA92F982F8827BC01CD01620F711DE9
:10065000811D911D42E0660F771F881F991F4A95E3
:10066000D1F708958F929F92AF92BF92CF92DF926F
:10067000EF92FF924B015C010E940D036B017C0124
:100680000E940D036C197D098E099F09683E734015
:1006900081059105A8F321E0821A9108A108B1080B
:1006A00088EEC80E83E0D81EE11CF11C8114910471
:1006B000A104B10429F7FF90EF90DF90CF90BF9095
:1006C000AF909F908F9008952FB7F89460916F012D
:1006D0007091700180917101909172012FBF089506
:1006E000FC01838194818230910538F0880F991F35
:1006F000880F991F05970197F1F70895EF92FF92E0
:100700000F931F93CF93DF93EC01062F18E061E066
:1007100088810E946A02CE010E947003E02EF12CB3
:1007200060E000FF61E089810E946A02CE010E94C0
:10073000700360E088810E946A02CE010E9470030B
:10074000F594E7940E2D115011F761E088810E9415
:100750006A0260E089810E946A02CE010E947003F1
:1007600060E088810E946A02CE010E9470032981A4
:1007700030E0F901E255FF4F8491F901E656FF4F51
:100780000491F901EA57FF4F1491112349F18111A6
:100790000E941302E12FF0E0EE0FFF1FE859FF4F18
:1007A000A591B491EC910E2311E009F410E0111120
:1007B00004C061E089810E946A02CE010E94700338
:1007C00061E088810E946A02CE010E947003812F3D
:1007D0008170DF91CF911F910F91FF90EF9008955D
:1007E00010E0E7CFCF93DF93EC0161E089810E94B5
:1007F0006A02CE010E94700360E088810E946A0252
:10080000CE010E94700360E089810E946A02CE01DD
:10081000DF91CF910C947003CF93DF93EC0161E0F3
:1008200089810E946A02CE01DF91CF910C947003FE
:10083000CF92DF92EF92FF920F931F93CF93DF93AC
:10084000EC01F62EC72EE42E122F0E940C0460E459
:10085000CE010E947E03CE010E94F203CE010E94CF
:100860000C0460EC610FCE010E947E03DF2C0F2D83
:100870001C2DF80161918F01CE010E947E03802F13
:100880008D198E15B0F3CE010E94F203CE010E94A5
:100890000C046A816F706058CE010E947E03CE0105
:1008A000DF91CF911F910F91FF90EF90DF90CF904C
:1008B0000C94F203CF93DF9300D000D0CDB7DEB716
:1008C00019821A821B821C8220E044E0BE016F5F05
:1008D0007F4F88EC92E00E94180420E044E067E13A
:1008E00073E088EC92E00E941804FFCF4F925F9271
:1008F0007F928F929F92AF92BF92CF92DF92EF92B0
:10090000FF920F931F93CF93DF9300D000D0CDB70A
:10091000DEB75C016A01422F202F30E067FF02C082
:10092000619531E0E42EF12CF7013197CE0101966B
:100930004C01C114D10441F530E0832F90E08E17B3
:100940009F0734F4880D991DDC011C923F5FF5CFA1
:10095000E80DF91D8FE38083B401C5010E941804DE
:100960000F900F900F900F90DF91CF911F910F91EB
:10097000FF90EF90DF90CF90BF90AF909F908F90BF
:100980007F905F904F900895E80EF91E462E660FF7
:10099000550880E4782EC601B2010E94E70E8C0152
:1009A000982FD7011197811109C0C114D10431F4D6
:1009B0001C92332361F07C9230E009C0045E1E4F2C
:1009C000F80180818C93911102C0CD2891F36B01C5
:1009D0007D018A169B06F9F6BFCFFC01019000202D
:1009E000E9F73197AF01481B590BBC018BE791E048
:1009F0000C9406018F929F92AF92BF920F931F9318
:100A0000CF93DF93CDB7DEB7A1970FB6F894DEBFD3
:100A10000FBECDBF19A2423008F44AE08E010F5D2F
:100A20001F4F842E912CB12CA12CA50194010E9462
:100A3000B00DE62FB901CA01EA30F4F4E05DD80147
:100A4000EE938D01232B242B252B79F790E080E06A
:100A5000109719F0CD010E94ED04A1960FB6F894FD
:100A6000DEBF0FBECDBFDF91CF911F910F91BF9021
:100A7000AF909F908F900895E95CE1CF1F93CF9343
:100A8000DF9300D000D0CDB7DEB78BE791E00E94B6
:100A900042018BE791E00E94420110E08A3379F035
:100AA000E1E0F0E0EC0FFD1FE10FF11D17FDFA95FD
:100AB00080831F5F8BE791E00E944201EFCFCE0160
:100AC00001960E948F0C182F8BE791E00E94420143
:100AD0008053990B8230910520F4682F812F0E945A
:100AE0003C028BE791E00E9442018A3011F08D3088
:100AF000C1F78BE791E00E9456018A3021F48BE721
:100B000091E00E9442010F900F900F900F90DF91A3
:100B1000CF911F9108951F920F920FB60F9211243B
:100B20002F933F934F935F936F937F938F939F93F5
:100B3000AF93BF93EF93FF938BE791E00E94840103
:100B4000FF91EF91BF91AF919F918F917F916F91A5
:100B50005F914F913F912F910F900FBE0F901F907B
:100B600018951F920F920FB60F9211242F938F9307
:100B70009F93EF93FF93E0918B01F0918C01808123
:100B8000E0919101F091920182FD1BC090818091D2
:100B900094018F5F8F7320919501821741F0E0914E
:100BA0009401F0E0E558FE4F958F80939401FF91FA
:100BB000EF919F918F912F910F900FBE0F901F90EB
:100BC00018958081F4CF1F920F920FB60F921124C7
:100BD0002F933F938F939F93AF93BF9380916F0118
:100BE00090917001A0917101B091720130916E01EC
:100BF00023E0230F2D3758F50196A11DB11D209339
:100C00006E0180936F0190937001A0937101B09376
:100C100072018091730190917401A0917501B0915E
:100C200076010196A11DB11D80937301909374010B
:100C3000A0937501B0937601BF91AF919F918F9171
:100C40003F912F910F900FBE0F901F90189526E89F
:100C5000230F0296A11DB11DD2CF8F929F92AF920A
:100C6000BF92CF92DF92EF92FF92CF93DF93EBE7A9
:100C7000F1E01382128288EE93E0A0E0B0E084837A
:100C80009583A683B78380E391E09183808385EC8D
:100C900090E09587848784EC90E09787868780EC46
:100CA00090E0918B808B81EC90E0938B828B82EC37
:100CB00090E0958B848B86EC90E0978B868B118EE1
:100CC000128E138E148EE8E1F2E0168217821086DF
:100CD0001186128613861486158616861786108A44
:100CE000118A128A138A148A158AEEE5F2E01082BC
:100CF0001182148213823BE035832CE0268384E644
:100D000090E0908787831186128615861486CCE83A
:100D1000D0E0D787C687118A108AACEAB0E0B38BDF
:100D2000A28B158A148A6CEC70E0778B668B118E1F
:100D3000108E4CEE50E0538F428F158E148E17AAF2
:100D400016AA11AE10AE13AE12AE809010019090A4
:100D50001101A0901201B09013018092B202909202
:100D6000B302A092B402B092B502C0901401D09028
:100D70001501E0901601F0901701C092B602D092D2
:100D8000B702E092B802F092B902EFEBF2E0108203
:100D9000118214821382358326839087878311867C
:100DA000128615861486D787C687118A108AB38B58
:100DB000A28B158A148A778B668B118E108E538FB7
:100DC000428F158E148E17AA16AA11AE10AE13AE4E
:100DD00012AE8092130390921403A0921503B09266
:100DE0001603C0921703D0921803E0921903F092F1
:100DF0001A03A0E0B1E04D915C91119755AF44AF5B
:100E000014964D915C911597509300034093FF0207
:100E100018964D915C9119975093040340930303E6
:100E20001C964D915C911D975093080340930703C6
:100E300012964D915C91139757AF46AF16964D9110
:100E40005C91179750930203409301031A964D91BA
:100E50005C911B9750930603409305031E964D919A
:100E60005C9150930A0340930903CAEBD2E03883A4
:100E700029839C838B8360E08BE00E946A0260E0A0
:100E800089810E946A0260E088810E943C0260E0E1
:100E90008981DF91CF91FF90EF90DF90CF90BF904D
:100EA000AF909F908F900C943C02CF93DF93CDB77F
:100EB000DEB7C257D1090FB6F894DEBF0FBECDBF63
:100EC000789484B5826084BD84B5816084BD85B525
:100ED000826085BD85B5816085BD80916E00816031
:100EE00080936E00109281008091810082608093D7
:100EF00081008091810081608093810080918000D9
:100F00008160809380008091B10084608093B10003
:100F10008091B00081608093B00080917A008460FD
:100F200080937A0080917A00826080937A00809129
:100F30007A00816080937A0080917A008068809343
:100F40007A001092C10010925A0210925B02109225
:100F50005C0210925D0210921A0210921B02109213
:100F60001C0210921D020E9464036B017C014B0164
:100F70005C0108EB800E0BE0901EA11CB11C0E94CE
:100F800064036C157D058E059F0528F0861697066F
:100F9000A806B906A0F768EE73E080E090E00E9432
:100FA0003203E0918B01F0918C0182E08083E0912B
:100FB0008701F09188011082E0918901F0918A0106
:100FC00080E1808310929301E0918F01F091900174
:100FD00086E08083E0918D01F0918E0180818061B7
:100FE0008083E0918D01F0918E0180818860808303
:100FF000E0918D01F0918E01808180688083E09185
:101000008D01F0918E0180818F7D80830E94640329
:1010100060931A0270931B0280931C0290931D022E
:101020008EE391E00E94ED040E9464036B017C0159
:101030004B015C011AE0810E911CA11CB11C0E94A5
:1010400064036C157D058E059F0528F086169706AE
:10105000A806B906A0F781E080932E020E946403DF
:1010600060931A0270931B0280931C0290931D02DE
:101070008FE491E00E94ED0461E089E00E946A0241
:1010800061E088E00E946A0261E087E00E946A02F3
:1010900061E086E00E946A0261E085E00E946A02E7
:1010A00061E084E00E946A0261E083E00E946A02DB
:1010B00061E082E00E946A0261E08AE00E946A02C6
:1010C00061E089E00E943C0261E088E00E943C020D
:1010D00061E087E00E943C0261E086E00E943C0201
:1010E00061E085E00E943C0261E084E00E943C02F5
:1010F00061E083E00E943C0261E082E00E943C02E9
:1011000061E08AE00E943C026FEF70E08AE00E949A
:101110009B028CE08093BC0234E6E32EF12C00E0CD
:1011200024E0A7016AE08AEB92E00E94760421E0C5
:10113000E21AF108A0F7AE01495C5F4FA3965FAFDA
:101140004EAFA3970E946403672B682B692B09F4A9
:10115000F5C00E94640300917701109178012091FD
:10116000790130917A01601771078207930708F4BB
:101170006EC1009177011091780120917901309131
:101180007A016B017C01C01AD10AE20AF30A9701C5
:1011900086010A3F11052105310508F4D7C0609387
:1011A0007701709378018093790190937A0114EF1D
:1011B000E12EFF24F39400E010E0E0922602F0928A
:1011C0002702009328021093290210922A021092FB
:1011D0002B0210922C0210922D0280911E029091EF
:1011E0001F02A0912002B0912102809322029093CD
:1011F0002302A0932402B09325020E94640360930B
:101200001E0270931F0280932002909321028BE7AD
:1012100091E00E945601843611F40E943E050E941E
:10122000640360931A0270931B0280931C029093D4
:101230001D020E9464036B017C0186E591E00E941F
:10124000ED044AE061E070E080E090E00E94FA0482
:101250008DE591E00E94ED044AE0C701B6010E94CD
:10126000FA048FE591E00E94ED0480911E029091B6
:101270001F02A0912002B091210297018601081B54
:10128000190B2A0B3B0BC901B8014AE00E94FA0472
:101290008FE591E00E94ED0460911E0270911F02A3
:1012A000809120029091210200912202109123024C
:1012B0002091240230912502601B710B820B930B4D
:1012C0004AE00E94FA0481E691E00E94ED040E9447
:1012D00064034AE00E94FA0483E691E00E94ED0470
:1012E0008AE691E00E94ED040E9464034B015C01D8
:1012F0007C016B0115E0C10ED11CE11CF11C0E94A8
:101300006403681579058A059B0528F0C616D7067B
:10131000E806F906A0F78BE791E00E9456018436B3
:1013200011F40E943E050E94640360931E027093B4
:101330001F02809320029093210208C00E94640340
:10134000623071058105910508F003CF2EE030E091
:101350003093F6022093F5024AE050E05093F802F1
:101360004093F70285E190E09093FA028093F902AE
:101370000FEB12E09DEEC92E92E0D92E912C60E089
:10138000D801DC968C910E943C0260E0F80186ADA9
:101390000E943C0266E970E080E090E00E94320327
:1013A00084E0A82EB12CF12CE12C8EE00E94F802F2
:1013B000E80EF91EF1E0AF1AB108B9F761E0D80103
:1013C000DC968C910E943C0261E0F80186AD0E949F
:1013D0003C02D601ED92FD926D01B7E2EB1AB2E04C
:1013E000FB0AE1E2EE16E1E0FE0608F092C2E1E05F
:1013F000F0E0D6015D96FC93EE935C97992493946C
:1014000066E970E080E090E00E9432030C5F1F4FBD
:10141000F2E00F3C1F0709F0B2CF911021C0A19656
:101420001CAE1DAE1EAE1FAEA19720E044E0BE0173
:10143000635A7F4F8AEB92E00E94180420E044E058
:1014400068E171E08AEB92E00E941804FFCF60939C
:101450007701709378018093790190937A0189CE16
:101460008CE5EFEBF2E0DE01119601900D928A958A
:10147000E1F7A091F702B091F802E091F902F09142
:10148000FA024091FB025091FC026091FD027091C2
:10149000FE026090FF0270900003E0900103F09064
:1014A0000203C0900303D090040380900503909042
:1014B000060380910703909108032091090330915E
:1014C0000A03A090F502B090F602B0929502A092A5
:1014D0009402B0939702A0939602F0939902E0933E
:1014E0009802FE01BF96ACE8B2E0A190B190AD9237
:1014F000BD92A48CB58C5D96BC92AE925C97A3967F
:101500000EAD1FADA3970E171F0779F750939B02DF
:1015100040939A0270929F0260929E02D092A30220
:10152000C092A2029093A7028093A60270939D029C
:1015300060939C02F092A102E092A0029092A50218
:101540008092A4023093A9022093A8021091C502B0
:101550000091C40260E0802F0E946A0260E0812F47
:101560000E946A0260E0802F0E943C0260E0812FAE
:101570000E943C020093C8021093C90214E6C12ED7
:10158000D12CD092CC02C092CB028DE08093CA02C3
:10159000EAEAF2E090E080E0219131916C012130A3
:1015A000310519F0CC24CA94DC2C019684309105C5
:1015B00031F42FEFC216D20631F40E945A041FEF05
:1015C000C116D10649F3F601EE0FFF1FE655FD4F98
:1015D000808191817601019719F0EE24EA94FE2C26
:1015E000C6010196F601EE0FFF1FE455FD4F843052
:1015F000910541F0219131912130310509F47C01AF
:101600000196F5CF3FEFE316F306B9F280916C0235
:1016100090916D02A0916E02B0916F0280937C0256
:1016200090937D02A0937E02B0937F02809170021E
:1016300090917102A0917202B09173028093800226
:1016400090938102A0938202B093830280917402EE
:1016500090917502A0917602B091770280938402F6
:1016600090938502A0938602B093870280917802BE
:1016700090917902A0917A02B0917B0280938802C6
:1016800090938902A0938A02B0938B0203E021E039
:1016900050E040E06AE088EC92E00E9476046FEF50
:1016A00070E0809196020E949B0216014FE0240E8A
:1016B000311CF101EE0FFF1FEE0FFF1FE25AFD4F2D
:1016C00060E080810E943C02C701880F991F880F4B
:1016D000991FAB969FAF8EAFAB97FC01E25AFD4FBF
:1016E00060E086AD0E943C020E946403AF966CAF3E
:1016F0007DAF8EAF9FAFAF970E946403A7966CAF8C
:101700007DAF8EAF9FAFA797AFEFB0E0A996BFAF09
:10171000AEAFA997812C912C5401EC18FD08C7019C
:10172000880F991F880F991FFC01E258FD4FE19621
:10173000FFAFEEAFE1978C0104581D4FE3961FAF4A
:101740000EAFE3970E946403AF96CCACDDACEEAC79
:10175000FFACAF976C197D098E099F0961367A4EEF
:101760008105910508F0ADC0412C512C3201C12CEE
:10177000D12C76010E946403A7962CAD3DAD4EADF1
:101780005FADA797621B730B840B950B693C7105CA
:101790008105910500F5809198020E94F802092EBA
:1017A000000CAA0BBB0BC80ED91EEA1EFB1E3FEF96
:1017B000431A530A630A730AA9966EAD7FADA997BF
:1017C000809196020E949B0260E570E080E090E0CC
:1017D0000E943203CFCFC701B601A30192010E943C
:1017E000B00D69017A01E196AEADBFADE1978D9183
:1017F0009C9195958795E396AEADBFADE397ED913E
:10180000FC91B501A401825A9D4F0995A9969FAFFD
:101810008EAFA997BAE5CB16D104E104F10438F0F4
:101820006FEF70E0809196020E949B02C6CEEEE4BC
:10183000CE16D104E104F10450F420E030E040E899
:101840005FE3C501B4010E94D30D4B015C01D701D8
:10185000C60183559109A109B1090597A105B105F3
:1018600050F420E030E040E85FE3C501B4010E949D
:10187000D20D4B015C01C701B6010E94B50C23E9F2
:1018800038E144E250E40E94F20C0E94B10E00E004
:1018900024E0AB016AE088EC92E00E9476044AE022
:1018A000C701B6010E94FA048AE691E00E94ED04A5
:1018B0000E946403A7966CAF7DAF8EAF9FAFA797D2
:1018C00041CF6FEF70E0809196020E949B02F10180
:1018D000EE0FFF1FEE0FFF1FE25AFD4F61E0808108
:1018E0000E943C02AB96EEADFFADAB97E25AFD4FC6
:1018F00061E086AD0E943C0280E090E0892B09F413
:1019000021CC0E947001882309F41CCC0E940000A5
:1019100019CCD6015D961C921E925C9771CDFC018C
:1019200088279927E89421912032E9F3293010F093
:101930002E30C8F32B3241F02D3239F4689404C0B4
:101940000E94AD0C820F911D219120532A30C0F3CB
:101950001EF4909581959F4F08957AE0979F902D62
:10196000879F802D910D11240895E89409C097FB5D
:101970003EF490958095709561957F4F8F4F9F4F66
:101980009923A9F0F92F96E9BB279395F6958795AA
:1019900077956795B795F111F8CFFAF4BB0F11F46D
:1019A00060FF1BC06F5F7F4F8F4F9F4F16C0882314
:1019B00011F096E911C0772321F09EE8872F762F4A
:1019C00005C0662371F096E8862F70E060E02AF08B
:1019D0009A95660F771F881FDAF7880F9695879577
:1019E00097F908950E94050D0C94760D0E94680DDC
:1019F00038F00E946F0D20F0952311F00C945F0DCC
:101A00000C94650D11240C94AA0D0E94870D70F39F
:101A1000959FC1F3950F50E0551F629FF001729F93
:101A2000BB27F00DB11D639FAA27F00DB11DAA1FA2
:101A3000649F6627B00DA11D661F829F2227B00DEF
:101A4000A11D621F739FB00DA11D621F839FA00D7A
:101A5000611D221F749F3327A00D611D231F849FCA
:101A6000600D211D822F762F6A2F11249F57504021
:101A70009AF0F1F088234AF0EE0FFF1FBB1F661F9C
:101A8000771F881F91505040A9F79E3F510580F065
:101A90000C945F0D0C94AA0D5F3FE4F3983ED4F3D1
:101AA000869577956795B795F795E7959F5FC1F709
:101AB000FE2B880F911D9695879597F9089597F9B4
:101AC0009F6780E870E060E008959FEF80EC0895E4
:101AD00000240A941616170618060906089500240D
:101AE0000A9412161306140605060895092E039487
:101AF000000C11F4882352F0BB0F40F4BF2B11F4FB
:101B000060FF04C06F5F7F4F8F4F9F4F089557FD59
:101B10009058440F551F59F05F3F71F04795880F5B
:101B200097FB991F61F09F3F79F0879508951216F2
:101B300013061406551FF2CF4695F1DF08C016169E
:101B400017061806991FF1CF86957105610508944F
:101B50000895E894BB2766277727CB0197F9089566
:101B6000A1E21A2EAA1BBB1BFD010DC0AA1FBB1FA1
:101B7000EE1FFF1FA217B307E407F50720F0A21B13
:101B8000B30BE40BF50B661F771F881F991F1A9480
:101B900069F760957095809590959B01AC01BD01AA
:101BA000CF0108955058BB27AA270E94EA0D0C9434
:101BB000760D0E94680D38F00E946F0D20F039F408
:101BC0009F3F19F426F40C94650D0EF4E095E7FBA5
:101BD0000C945F0DE92F0E94870D58F3BA17620726
:101BE00073078407950720F079F4A6F50C94A90DE6
:101BF0000EF4E0950B2EBA2FA02D0B01B901900128
:101C00000C01CA01A0011124FF27591B99F0593F6B
:101C100050F4503E68F11A16F040A22F232F342FB3
:101C20004427585FF3CF469537952795A795F04001
:101C30005395C9F77EF41F16BA0B620B730B840B16
:101C4000BAF09150A1F0FF0FBB1F661F771F881FCE
:101C5000C2F70EC0BA0F621F731F841F48F4879526
:101C600077956795B795F7959E3F08F0B0CF939518
:101C7000880F08F09927EE0F9795879508950E9491
:101C8000530E0C94760D0E946F0D58F00E94680D53
:101C900040F029F45F3F29F00C945F0D51110C9432
:101CA000AA0D0C94650D0E94870D68F39923B1F37A
:101CB000552391F3951B550BBB27AA276217730772
:101CC000840738F09F5F5F4F220F331F441FAA1F06
:101CD000A9F335D00E2E3AF0E0E832D091505040C2
:101CE000E695001CCAF72BD0FE2F29D0660F771F70
:101CF000881FBB1F261737074807AB07B0E809F056
:101D0000BB0B802DBF01FF2793585F4F3AF09E3FDA
:101D1000510578F00C945F0D0C94AA0D5F3FE4F32D
:101D2000983ED4F3869577956795B795F7959F5F1D
:101D3000C9F7880F911D9695879597F90895E1E069
:101D4000660F771F881FBB1F621773078407BA07C8
:101D500020F0621B730B840BBA0BEE1F88F7E09523
:101D600008950E94B80E6894B1110C94AA0D0895BC
:101D70000E948F0D88F09F5798F0B92F9927B7517F
:101D8000B0F0E1F0660F771F881F991F1AF0BA951F
:101D9000C9F714C0B13091F00E94A90DB1E00895C7
:101DA0000C94A90D672F782F8827B85F39F0B93FB9
:101DB000CCF3869577956795B395D9F73EF49095D2
:101DC0008095709561957F4F8F4F9F4F0895AA1B07
:101DD000BB1B51E107C0AA1FBB1FA617B70710F016
:101DE000A61BB70B881F991F5A95A9F78095909548
:101DF000BC01CD010895EE0FFF1F0590F491E02D79
:061E00000994F894FFCFE5
:101E060009000500080004000700030006000200A0
:101E16003F5C547971773038545C007C3F065B4FE9
:101E2600666D7D077F6F777C395E797100000000F3
:101E3600A60106013301F301640142015601564D24
:101E46004450565F317C315F564D4450560A005619
:101E56004D4450525F00564D4450455F003A323A69
:0E1E6600007C005F564D445045000D0A000000
:00000001FF
